:10000000005000000004000098C60000000000003E
:1000100000000000000000000000000000000000E0
:10002000022C719001FA7401F02222022995023506
:10003000A50000020816D2AF32000002081ED2AF9F
:10004000320000021C4CD2AF320000020826E490BD
:1000500001DAF0A3F01222FC90018C12101E123073
:10006000DCE4FCFD120EA090018C12102A9001908D
:10007000E475F001120E08C3900193E094649001BE
:1000800092E094005003020AD490018C121012ECFA
:10009000C0E0EDC0E0EEC0E0EFC0E0900190E0FE17
:1000A000A3E0FBEEFAE4F9F8D0E0FFD0E0FED0E008
:1000B000FDD0E0FC120F4690018C12102A90018CAA
:1000C00012101290018AEEF0A3EFF0A31210360086
:1000D0000000009001901231099001FBE07002A332
:1000E000E06003020AD4900194E07002A3E0600390
:1000F000020AD490013FE0700302096E900186E08D
:100100007002A3E0701D90018AE0FFA3E0900186D9
:100110001230C012311B9001967403F0A374E8F002
:1001200002097E90018AE0FEA3E0FFC3900187E010
:100130009FFF900186E09EFE1236359001B01210AE
:1001400073EE8FF0120E81900184E0701D9001B06B
:100150001230C8C39406E5F0940050081230C5125E
:10016000311B80069001847401F090018AE0FEA3A7
:10017000E0FFD3900187E09F900186E09E4007E476
:10018000900185F080189001857401F08010900135
:1001900086123109900184F090019812310A900181
:1001A00084E07003020AD4D3900189E094009001A6
:1001B00088E094005003020AD41230C5FF900188F1
:1001C000E0FCA3E0FDC3EF9DFFE5F09CFE12363599
:1001D0009001DCEEF0A3EFF0A3E4F074C81230C39A
:1001E000D39494E5F09411400A9001DE7403F0A3D7
:1001F0007420F09001DCE0FFA3E09001B41230C065
:10020000D31230CF400CD39001DDE094641230F370
:1002100050131230C51230CE50369001DDE094C834
:100220001230F3402BE4900184F0900186F01230FC
:10023000C31230CE9001945008E4F0A374C8F0804B
:10024000077401F0A3742CF0E4900185F0020AD445
:100250001230C5FFD31230D0404AD31230ED4044A3
:1002600090010812107374FF75F0F9120E49900195
:100270009AE475F007120E08C3900199E094E89093
:100280000198E09403501DA3E09407900198E09436
:1002900000400A74FF75F0F9120E088007E490011F
:1002A00098F0A3F01230C51230CE50481230ED4015
:1002B00043900108121073E475F007120E49900183
:1002C00098E475F007120E08C390019BE0945890D3
:1002D000019AE09402501DA3E0940790019AE094E3
:1002E00000400A74FF75F0F9120E088007E49001CF
:1002F0009AF0A3F090013FE060179001D0E0700207
:10030000A3E0700D1230E59001D0CFF0A3EFF080A4
:100310001F90013FE070191230C5C3947CE5F09442
:1003200001500DE49001D0F0A3F09001D4F0A3F0BF
:100330009001D0E07002A3E07003020BD81230DC11
:10034000C39001D1E09FFF9001D0E09EFE123635B0
:100350009001DAEEF0A3EFF01230DCD39001D1E09F
:100360009F9001D0E09E400D9001DAE0FFA3E09065
:1003700001D2CF801A9001DAE0FEA3E0FFD394C847
:10038000EE9400400EEE13FEEF13FF9001D2EEF05C
:10039000A3EFF0D39001D3E0940A9001D2E094004F
:1003A00040561230C5D39488E5F094134023900151
:1003B000D5E094DC9001D4E09405503C9001D3E06A
:1003C00025E0FE9001D2E0339001D4F0A3CEF0807E
:1003D000271230C5D394E8E5F09403401B9001D573
:1003E000E094F49001D4E09401500D9001D2E0FF2C
:1003F000A3E0A3CFF0A3EFF090020FE0640160034D
:10040000020CC990013FE06003020CB69001A6E027
:100410007002A3E0700B1230E59001A6CFF0A3EFBD
:10042000F01230DCC39001A5E09F9001A4E09E5043
:1004300004EE1231139001AAE07002A3E0705A1288
:1004400030DCD312312640129001A7E09FFF9001CB
:10045000A6E09E9001A8F0A3EFF0D39001A9E0944C
:10046000049001A8E0940040081230FA7464F0800F
:1004700015D39001A9E094069001A8E094004006ED
:100480001230FA74C8F09001AA7403F0A374E8F073
:100490001230E59001A6CF800D1230DCC312312658
:1004A00050089001A6EEF0A3EFF09001ACE07002CE
:1004B000A3E070121230E5123112E49001AEF0A305
:1004C000F09001D680209001AEE0FFA3E09001D62D
:1004D000CFF0A3EFF0221230E5123112E49001D6F2
:1004E000F0A3F09001AEF0A3F022E709F608DFFADE
:1004F0008046E709F208DFFA803E88828C83E709AC
:10050000F0A3DFFA8032E309F608DFFA8078E30926
:10051000F208DFFA807088828C83E309F0A3DFFAA7
:10052000806489828A83E0A3F608DFFA8058898292
:100530008A83E0A3F208DFFA804C80D280FA80C67A
:1005400080D4806980F28033801080A680EA809A0F
:1005500080A880DA80E280CA803389828A83ECFABC
:10056000E493A3C8C582C8CCC583CCF0A3C8C58218
:10057000C8CCC583CCDFE9DEE7800D89828A83E4BD
:1005800093A3F608DFF9ECFAA9F0EDFB2289828A41
:1005900083ECFAE0A3C8C582C8CCC583CCF0A3C85D
:1005A000C582C8CCC583CCDFEADEE880DB89828ADD
:1005B00083E493A3F208DFF980CC88F0EF60010EAA
:1005C0004E60C388F0ED2402B4040050B9F582EB0C
:1005D0002402B4040050AF2323458223900D1A73E4
:1005E000EF8DF0A4A8F0CF8CF0A428CE8DF0A42E2F
:1005F000FE22C2D5EC30E709B2D5E4C39DFDE49CF0
:10060000FCEE30E715B2D5E4C39FFFE49EFE121066
:10061000DEC3E49DFDE49CFC80031210DE30D507B0
:10062000C3E49FFFE49EFE22C5F0F8A3E028F0C5D6
:10063000F0F8E582158270021583E038F022BB01E4
:100640000A89828A83E0F5F0A3E022500687F00948
:10065000E71922BBFE07E3F5F009E3192289828A34
:1006600083E493F5F074019322BB010789828A83A6
:10067000020E08500B09C5F027F7C5F01937F7220D
:10068000BBFE0D09F8E325F0F3C5F019E338F322BA
:10069000F889828A8374019325F0C5F0F8E49338D1
:1006A00022BB010A89828A83F0E5F0A3F02250067A
:1006B000F709A7F01922BBFE06F3E5F009F31922AA
:1006C000EF2BFFEE3AFEED39FDEC38FC22C3EF9B39
:1006D000FFEE9AFEED99FDEC98FC22E88FF0A4CC99
:1006E0008BF0A42CFCE98EF0A42CFC8AF0EDA42C59
:1006F000FCEA8EF0A4CDA8F08BF0A42DCC3825F028
:10070000FDE98FF0A42CCD35F0FCEB8EF0A4FEA912
:10071000F0EB8FF0A4CFC5F02ECD39FEE43CFCEA1F
:10072000A42DCE35F0FDE43CFC2275F00875820066
:10073000EF2FFFEE33FECD33CDCC33CCC58233C5A6
:10074000829BED9AEC99E58298400CF582EE9BFE37
:10075000ED9AFDEC99FC0FD5F0D6E4CEFBE4CDFA92
:10076000E4CCF9A88222B800C1B90059BA002DEC36
:100770008BF084CFCECDFCE5F0CBF97818EF2FFFCE
:10078000EE33FEED33FDEC33FCEB33FB10D7039976
:100790004004EB99FB0FD8E5E4F9FA227818EF2F23
:1007A000FFEE33FEED33FDEC33FCC933C910D70542
:1007B0009BE99A4007EC9BFCE99AF90FD8E0E4C961
:1007C000FAE4CCFB2275F010EF2FFFEE33FEED3391
:1007D000FDCC33CCC833C810D7079BEC9AE89940BE
:1007E0000AED9BFDEC9AFCE899F80FD5F0DAE4CD20
:1007F000FBE4CCFAE4C8F922EB9FF5F0EA9E42F064
:10080000E99D42F0EC6480C864809845F022EB9F3B
:10081000F5F0EA9E42F0E99D42F0E89C45F022E8BE
:10082000600FECC313FCED13FDEE13FEEF13FFD8C6
:10083000F122E0FCA3E0FDA3E0FEA3E0FF22E0F84C
:10084000A3E0F9A3E0FAA3E0FB22ECF0A3EDF0A310
:10085000EEF0A3EFF022A8828583F0D083D082123D
:10086000104D12104D12104D12104DE473E493A36D
:10087000C583C5F0C583C8C582C8F0A3C583C5F0CC
:10088000C583C8C582C822A42582F582E5F03583D8
:10089000F58322E0FBA3E0FAA3E0F922EBF0A3EA60
:1008A000F0A3E9F022EC8EF0A4CCC5F0CCCDF8EFAB
:1008B000A4CEC5F02DFDE43CFCE8A42EC8C5F03D57
:1008C000FDE43CFCEFA4FFE5F028FEE43DFDE43C44
:1008D000FC22EF4E6012EF60010EEDBB010B89822E
:1008E0008A83F0A3DFFCDEFA2289F05007F709DFE4
:1008F000FCA9F022BBFEFCF309DFFCA9F022BC003E
:100900000BBE0029EF8DF084FFADF022E4CCF8752A
:10091000F008EF2FFFEE33FEEC33FCEE9DEC984039
:1009200005FCEE9DFE0FD5F0E9E4CEFD22EDF8F5D5
:10093000F0EE8420D21CFEADF075F008EF2FFFED35
:1009400033FD4007985006D5F0F222C398FD0FD52D
:10095000F0EA221227F070537F0112304F1227A4C1
:10096000902E20E030E2F990020FE025E02458F5C7
:1009700082E434361227759001DF1227877F011237
:10098000361890015FE07002A3E070031227B412E2
:1009900027B490015BE07002A3E0700F90015FE06C
:1009A000FFA3E090015BCFF0A3EFF09001E1121004
:1009B0003600002710E4FF12304FE49001DCF09085
:1009C00001DCE0FF7E00C394047480948040030245
:1009D0001394EF2401FFEE33FE1227C4FDD3EF9DE5
:1009E0007480F86E98400302138BE4FF1227A490E2
:1009F0002E20E030E2F990020FE025E02457F58246
:100A0000E434361227759001DD122787FF1236185D
:100A100090015FE0FEA3E0FFC390015CE09FFF90C8
:100A2000015BE09E9001DD8FF0120E089001DDE089
:100A3000FAA3E0FB900161EAF0A3EBF074FFF52369
:100A4000F524F525F526E4F527F528F529F52AF509
:100A50002EF52DF52CF52B9001CCEAF0A3EBF0E46C
:100A6000F522C3E52294087480948040030212DFCB
:100A7000E52225E024BEF582E43401F583E0FEA3FF
:100A8000E0FF4E600280089001DDE0FEA3E0FF126F
:100A90002767EEF0A3EFF0122767E0FEA3E0FFD395
:100AA0009528EE9527400C85272985282A8E278FA3
:100AB00028800DD3EF952AEE952940048E298F2AA0
:100AC000C3EF9524EE9523500C8523258524268E8F
:100AD000238F24800DC3EF9526EE952550048E2597
:100AE0008F2612276712279BE52E2FFFE52D3EFE4E
:100AF000ED352CFDEC352B1227420522021242AEB9
:100B000027AF28EFFB12272EAE29AF2A12272BAED4
:100B100023AF2412272BAE25AF2612272BFC7802F9
:100B2000120FFF9001CEEEF0A3EFF090015DE0FE1A
:100B3000A3E0FF4E700E9001CEE0FCA3E0FDECFEC2
:100B4000EDFF801E7C007D03120DC09001CFE02FD1
:100B5000FF9001CEE03EFE7802EFCEC313CE13D855
:100B6000F9FF90015DEEF0FAA3EFF0FB12279890E9
:100B700001E612102AEBFFEAFEE4FCFD9001EA1206
:100B8000102AE4FF121DBF900165EEF0A3EFF012F2
:100B900027F01227F7900165E0FEA3E02400FFEEA6
:100BA00034E8FE3395E0FDFC1227FD9001DCE00403
:100BB000F002119F902E23E4F01227F7E8C0E0E93D
:100BC000C0E0EAC0E0EBC0E01227C4FFFBE4FAF9A2
:100BD000F81227E11233A4D0E0FBD0E0FAD0E0F91C
:100BE000D0E0F81227FDE47F507EC3FDFC1227F70A
:100BF000D3120FD8400A9001E11210360000C35002
:100C00001227E1EC33500A9001E112103600000087
:100C10000090016BE0FAA3E0FB4A70051227E18027
:100C2000227E007F02EBFDEAFC121085ECF8EDF964
:100C3000EEFAEFFB1227E1120EA0E47B03FAF9F8BB
:100C4000120F4690016BEEF0A3EFF0900159E070A7
:100C500002A3E0700F90016BE0FFA3E0900159CF79
:100C6000F0A3EFF090012612101E122798120EA08A
:100C700090012612102A90012AE475F001120E0844
:100C800090012AE0FEA3E0FFD3940AEE94004029ED
:100C9000EFFBEEFAE4F9F8900126121012120F465B
:100CA000900124EEF0A3EFF0E490012AF0A3F0907D
:100CB00001261210360000000090012CE07002A303
:100CC000E0703A900124E0FEA3E0FFC3900166E0EB
:100CD0009FFF900165E09EFE123635900122EEF0F6
:100CE000A3EFF0D39406EE9400401290012C74030D
:100CF000F0A374E8F0A3E475F001120E0890016B04
:100D0000E0FEA3E0FF22122B5140030217C890011E
:100D100008122B24FDE5F0FC122B21FFAEF0D39D31
:100D2000EE9C402E122BBAD3EF9430EE9475400C0B
:100D30009001DA7475F0A37430F08010120E1EC3A7
:100D40009DFEE5F09C9001DAF0A3CEF0E49001B6B0
:100D50008060120E1EFFAEF0C3ED9FFBEC9EFAD337
:100D6000EB9410EA9427400C9001DA7427F0A374F6
:100D700010F08009C3ED9FFFEC9E122B779001DAF3
:100D8000E0FFA3E09001B6CFF0A3EFF0300718D357
:100D9000E0942C9001B6E0940140139001B87427C0
:100DA000F0A37410F08007E49001B8F0A3F0E49091
:100DB00001DAF0A3F090013FE0604A122B2AD394AD
:100DC00000EE648094804014D3EF9509EE950840BE
:100DD0000B900201E4F0A37464F0801BD390020234
:100DE000E09400900201E09400400C900105122B69
:100DF00024FFE5F0122B77D204900207740FF0A3C2
:100E000074A0F0800F9002057403F0A374E8F0E47E
:100E1000FF1234A7D39001DBE094009001DAE06484
:100E2000809480500302179DE0FEA3E0FF9001052F
:100E3000122B18122B2AEE3395E0FDFCE47BB87AD6
:100E400088F9F8C3120FD8500A9001DA7488F0A319
:100E500074B8F0D3900204E09400900203E0940090
:100E600050089000F1E06420701B122B2AC39509F2
:100E7000EE95085010EF9400EE6480948040357C2D
:100E8000007D0A802930072C90013FE07011122B61
:100E90002AC39517EE9516501B7C027DBC800F125D
:100EA0002B2AC39515EE9514500A7C027DBC120DB9
:100EB000D2122B7690013FE07003021722900205B8
:100EC000E07002A3E070149001DAE0FEA3E0FDEE12
:100ED000FCE4FF1217C9122B768035122B2AC3901F
:100EE0000135E09FFF900134E09EFE123635D3EFCE
:100EF0009428EE648094804017D3900206E094C852
:100F0000900205E09400400874FF75F09C120E08F2
:100F1000900134E0FEA3E0FF7C007D0F121085EC11
:100F2000F8EDF9EEFAEFFB122B2AEE3395E0FDFC1B
:100F3000120EA0E47B10FAF9F8120F46900134EE7D
:100F4000800B9001DAE0FFA3E0900134CFF0A3EF33
:100F5000F0900134E0FEA3E0FFD39405EE9400404E
:100F60000EEF9410EE940050069001DAEE80169089
:100F70000130E0FEA3E0FF900135E02FFF90013447
:100F8000E03E9001DAF0A3EFF0D39001DBE0943083
:100F90009001DAE0648094F540077475F0A3743032
:100FA000F0E5DB54047041122B2A90010E122B182D
:100FB0009001DBE024A8FF9001DAE08022E5DB5419
:100FC000047025122B45900130E0FEA3E0FF900154
:100FD0000E122B1890010E122B2424A8FFE5F034DA
:100FE00061FE90010B122B18229001DCEFF0A3ECB4
:100FF000F0A3EDF0EF122ACDE0FEA3E0C39DFFEEDB
:101000009CFE123635D3EF9428EE64809480401C09
:10101000122A9D12103600000000122A69E4F01214
:101020002AE7122AC9EEF0A3EFF0803B122A5812E9
:101030002AFD40339001DDE0FCA3E0FDD3EF9DEEFF
:101040009C400B9001DCE0122A90E04401F09001FA
:10105000DCE0FF122A5CE0FAA3E0C39DEA9C5007A3
:10106000122A8FE04402F09001DCE0122AA2C08331
:10107000C08212101E122AE7E4FCFD120EA0D082DC
:10108000D08312102A9001DCE0FF122AF0E475F000
:1010900001120E08EF75F007A42460F582E43436DF
:1010A000F583E493FE740193FF9001DCE0FDC454EA
:1010B000F0242CF582E43402F583E0FAA3E0C39F28
:1010C000EA9E5003021A35ED122AF0E0FEA3E0FF7B
:1010D000FBEEFAE4F9F89001DCE0122AA2121012F9
:1010E000120F469001DF12102A122A52E0FCA3E0F0
:1010F000C39FFFEC9EFE1236359001E3EEF0A3EFA6
:10110000F09001DCE0FD75F007A4245BF582E43487
:1011100036F583C37401939FE4939E401FED122A1A
:101120005CE0FEA3E04E60149001DCE0FB122ADAE2
:10113000E0FEA3E0C394B8EE940B501E9001DCE0F7
:10114000FF122A5CE0FCA3E04C7008EF122ADAE4FC
:10115000F0A3F0122A52EE0219DCEB60030219E24E
:101160009001E5F09001E3E0FEA3E0FFD39450EEA0
:1011700094004006A37408F080329001DCE0122A4B
:1011800090E064036026D3EF943CEE940040089016
:1011900001E57404F08015D39001E4E094289001F7
:1011A000E3E0940040069001E57402F0122A58E052
:1011B000FEA3E0FFE4FCFD122B09D3120FEE401159
:1011C0009001E5E0FF122A58E48FF0120E08021A8F
:1011D00018D39001E4E094509001E3E0940040586B
:1011E000122A58C083C082E0FEA3E0FF9001E5E030
:1011F000FDC3EF9DFFEE9400D082D083F0A3EFF00B
:101200008036122A58E0FEA3E0FF4E700D122B0923
:10121000EBFFEAFEE9FDE8FC80167C007D0712107A
:1012200085122B09120EA0E47B08FAF9F8120F467A
:10123000122A58EEF0A3EFF0122A9D121036000089
:101240000000122A69E4F09001DF121012122AC97C
:10125000EEF0A3EFF0122A58122AFD405F9001DE53
:10126000E09FFF9001DDE09EFE1236359001DCE04C
:1012700075F007A4245DF582E43436F583D3740158
:10128000939FE4939E400F9001DCE0FF122A5C12D2
:101290002AAFE4F080269001DCE0FF75F007A4247B
:1012A0005FF582E43436F583E493FE122ABBE0C393
:1012B0009E5009122A58122AAFE004F0122AE7229F
:1012C000D39001FCE09F9001FBE09E400AA3E09FC9
:1012D000F09001FBE09EF090020012320C9001FFB2
:1012E000E09C400CA3E09FF09001FFE09EF08002A4
:1012F000D28AD39001FEE09F9001FDE09E400AA3B8
:10130000E09FF09001FDE09EF012321E5003123279
:1013100056D3900202E09F900201E09E400AA3E0B3
:101320009FF0900201E09EF0D3900204E09F9002B3
:1013300003E09E400AA3E09FF0900203E09EF0D3FA
:1013400090020AE09F900209E09E400AA3E09FF00D
:10135000900209E09EF0D3900206E09F900205E023
:101360009E400AA3E09FF0900205E09EF0D3900219
:1013700008E09F900207E09E400AA3E09FF09002E1
:1013800007E09EF0D39001B9E09F9001B8E09E4045
:101390000AA3E09FF09001B8E09EF090020C123298
:1013A0000C90020BE09C400AA3E09FF090020BE03F
:1013B0009EF012322C5003123256D3900195E09FCA
:1013C000900194E09E400AA3E09FF0900194E09E7B
:1013D000F090019712325C900196E09C400AA3E0E5
:1013E0009FF0900196E09EF0D39001ABE09F9001BA
:1013F000AAE09E400AA3E09FF09001AAE09EF0D3ED
:101400009001ADE09F9001ACE09E400AA3E09FF008
:101410009001ACE09EF090017212325C900171E09C
:101420009C400AA3E09FF0900171E09EF0D39001F0
:10143000BBE09F9001BAE09E400AA3E09FF09001BC
:10144000BAE09EF012323A5003123256123248502D
:1014500003123256D390012DE09F90012CE09E4064
:101460000AA3E09FF090012CE09EF022C0E0C0F0C3
:10147000C083C082C0D0E8C0E0D2AFD39001FCE00E
:1014800094009001FBE094004003123205D39002D7
:1014900000E094019001FFE09400400512320580C5
:1014A00002D28AD39001FEE094009001FDE0940006
:1014B000400312320512321E5003123217D390022B
:1014C00002E09400900201E094004003123205D340
:1014D000900204E09400900203E094004003123272
:1014E00005D390020AE09400900209E094004003C2
:1014F000123205D3900206E09400900205E09400B9
:101500004003123205D3900208E09400900207E0F5
:1015100094004003123205D39001B9E09400900189
:10152000B8E094004003123205D390020CE094011D
:1015300090020BE09400400312320512322C50034B
:10154000123217D3900195E09400900194E094003A
:101550004003123205D3900197E09401900196E088
:1015600094004003123205D39001ABE09400900147
:10157000AAE094004003123205D39001ADE094003C
:101580009001ACE094004003123205D3900172E068
:101590009401900171E094004003123205D3900150
:1015A000BBE094009001BAE09400400312320512AF
:1015B000323A50031232171232485003123217D304
:1015C00090012DE0940090012CE094004003123231
:1015D00005D0E0F8D0D0D082D083D0F0D0E03290E7
:1015E00001E5EFF0122851E070279001E5E01228A4
:1015F00088121012E4FBFAF9F8C3120FEE60129091
:1016000001E5E01228A6121012E4F8C3120FEE70E2
:10161000571228BA9001E6121EFBEEF0A3EFF0ED90
:10162000122851E06029ED75F00AA42447F582E400
:101630003436F583C083C08290020FE0D082D0831D
:1016400012285F400A9001E5E01228517405F0125B
:101650002806E0D39400748094804006122850E05D
:1016600014F09001EA021EF7122883121012900162
:10167000EE12102A1228A51210129001F212102A4E
:101680009001E5E0122897121012EFF91228C3E931
:10169000F8120FFFEFFBEEFAEDF9ECF81228C31287
:1016A0000EAD9001F612102A9001EE121012900168
:1016B000EA12101E120EA09001F612101E120EA0B9
:1016C0001228B41228831228C01228A51228C0128A
:1016D00028C912101E120F461228B49001F2121ED1
:1016E000FBEEF0A3EFF0ED75F00AA42443F582E4DD
:1016F0003436F583C083C08290020FE0D082D0835D
:1017000012285F400F1228067405F01228BA9001C3
:10171000F212102A9001F212101222EFFBEEFA12CE
:101720001012C3EF9BFFEE9AFE1236359001E5E0F2
:10173000FD75F013A4241AF582E43402F583227FA8
:10174000FF7A00790012364B7FDA7A01790012367F
:101750004B7E007F147D007B017A0179FA1210B272
:10176000902DE0E493900001F09000047411F0A338
:101770007422F0A37433F0902DE2E493900012F001
:10178000902DE3E493900014F09000FB7401F0902E
:1017900000367410F09000F1F0900024F0A3742053
:1017A000F07B017A00794090010212107C7A007976
:1017B0004490010812107C7A0079429001051210C1
:1017C0007C7A00792E90010B12107C7A00792A9095
:1017D000010E12107C7A00792890011112107C7A87
:1017E00000796090011F12107C7A0079809001B01E
:1017F00012107C7A00791890013912107C7A0079E5
:101800001B90013612107C7A00793290011412106C
:101810007C7A00792690011712107C7A0079349036
:10182000011A12107C900114121073740175F0B833
:10183000120E81900117121073E475F0DC120E8104
:1018400090011A121073740175F07C120E817516D6
:10185000017517B875080175097C7514007515DCDC
:101860007B017A00795090013C12107C90005274F8
:101870000FF0A3F0A37407F090005804F0A37406CF
:10188000F0A304F09001FBF0A374D0F0E49001FA0F
:10189000F02290017D122BC19404EE94005022128C
:1018A0002B8AEF25E0FFEE33FE74752FF58274016D
:1018B0003EF583ECF0A3EDF090017D122B9E02210A
:1018C0003D9001DE7401F09001DEE0FFC3122B6257
:1018D0005021EF122B69FCA3E0FDEF25E02473F506
:1018E00082E43401F583ECF0A3EDF09001DEE00436
:1018F000F080D490013FE060028053122B21FF1250
:101900002B8AC3EF9DFFE5F09CFE123635C3EF94A2
:1019100028EE648094805036900108122B24FFC377
:10192000900101E09FFF900100E095F0FE12363536
:10193000C3EF9414EE6480948050059001088003F6
:10194000900102122B24FF90017BE5F0800B9001A7
:1019500000E0FFA3E090017BCFF0A3EFF09001DA6D
:1019600012103600000000E49001DEF09001DEE08D
:10197000FFD390017EE09F90017DE0940040259090
:1019800001DA12101E9001DEE0122B69FEA3E0FFC7
:10199000E4FCFD120EA09001DA12102A9001DEE0A4
:1019A00004F080C89001DA121012ECC0E0EDC0E043
:1019B000EEC0E0EFC0E090017D122BA5D0E0FFD09B
:1019C000E0FED0E0FDD0E0FC120F469001DA1210EC
:1019D0002A9001DA0210129001DA7402F0A374BCAA
:1019E000F0D39001BBE094009001BAE09400401164
:1019F000122B21FF900108121073E5F08FF0120EE8
:101A0000819001FBE07002A3E0600B9001DAE4F04A
:101A1000A37464F0800B90001AE0641170037420CA
:101A2000F090013FE0600F7E007F0A7D007B017A2D
:101A30000179400210B290014012101EE8C0E0E9A6
:101A4000C0E0EAC0E0EBC0E0122B21FFAEF0E4FC06
:101A5000FDD0E0FBD0E0FAD0E0F9D0E0F8120EA023
:101A600090014012102A900144122B9E9001DA122C
:101A70002BC1900149E09F900148E09E5003022253
:101A8000FB900140121012ECC0E0EDC0E0EEC0E0AF
:101A9000EFC0E0900144122BA5D0E0FFD0E0FED0D3
:101AA000E0FDD0E0FC120F4690014012102A900198
:101AB00008122B24243CFFE435F0FEE4FCFD9001E9
:101AC0004012101ED3120FEE402E9001FBE0700268
:101AD000A3E07024200421900146122B9FD3900193
:101AE00047E09405900146E094004018122B0FE463
:101AF000900146F0A3F0800C122B0FE4900146F009
:101B0000A3F0C20490014012103600000000E490DF
:101B10000144F0A3F0900148F0A3F022758D20431A
:101B20008D20538D7FE4F5B275B6FF75B7FF75B2A2
:101B3000A243B20153A8FB538B7F758B10438B08D4
:101B4000E58B20E7030080F8538B7F758B11438B67
:101B500008E58B20E7030080F890023DE5B5F0A38F
:101B6000E5B4F0758B01E4F5B21235A5E4F58D12FC
:101B700035FE4E70101235F5FD90011DE5F0F0A315
:101B8000EDF00223E21235F5FDC3EF9DFFEE95F077
:101B9000FE123635D3EF940AEE648094804024120E
:101BA00035F5FFC390011EE09F90011DE095F050B8
:101BB00006E475F001800790011D74FFF5F0120E28
:101BC00008803F1235FE7C007D03121085ECC0E0DA
:101BD000EDC0E0EEC0E0EFC0E01235F5FFAEF0E49E
:101BE000FCFDD0E0FBD0E0FAD0E0F9D0E0F8120E36
:101BF000A0E47B04FAF9F8120F4690011DEEF0A361
:101C0000EFF090020FE064011235FEE4FCFD7B0A68
:101C1000FAF9F8120F4690019CEEF0A3EFF0900154
:101C20009EE07002A3E0700D90019CE0FFA3E0A392
:101C3000CFF0A3EFF09001A4E07002A3E0700F904A
:101C4000011DE0FFA3E09001A4CFF0A3EFF02290EC
:101C500001E1EFF0902E22E0FF9001E5E4F0A3EF28
:101C6000F0758A50902E227401F0122D997404F0B0
:101C7000A3E4F09001E2F09001E2E0FFC3940D7460
:101C80008094804003022543EFF87E02E40880063A
:101C9000CEA2E713CE13D8F8FF9001E3EEF0A3EF46
:101CA000F04E70079001E3F0A304F0902E20740131
:101CB000F0902E20E030E2F99001E1E0FF902E005C
:101CC000122DA0E0FCA3E0D394FEEC940740401258
:101CD0002DC1E0FEA3E0FF9001E3E0FCA3E0FDEFF7
:101CE0002DFFEE3CFEC3EF94FFEE94079001E1E080
:101CF00075F002902E10500B121067EC8DF0120E42
:101D00000880501210677407F0A374FFF0804490AD
:101D100001E1E0FF122D9DE0FCA3E0FD9001E3E076
:101D2000FAA3E0FBD3ED9BEC9A4021122DC1C083B6
:101D3000C082C3A3E09BFF0582D582021583158272
:101D4000E09AD082D083F0A3EFF08007122D99E4BF
:101D5000F0A3F0902E20E4F0F58D9001E2E004F085
:101D60000224579001E5A3E0902E22F0758A3022DC
:101D70007FB87E017D7C7C01122B514003022643FB
:101D80003007209001B8E07002A3E06008751613D8
:101D900075178880067516077517D07508067509BA
:101DA00040804B90020FE0F9640170087E017FB81B
:101DB0007C017D7C9001D4E0FAA3E0FB2FF517EACB
:101DC0003EF516CEECCEEDFFEB2FF509EA3EF50819
:101DD000E964017019A3E0FEA3E0FF2517F517EEF3
:101DE0003516F516EF2509F509EE3508F5089001C9
:101DF00005122B24FFAEF0C39517EE9516500F90E9
:101E0000013FE0601AC3EF9509EE9508401190027A
:101E100003E07002A3E0702990013F04F08022905B
:101E200000F1E064209002037005F0A3F0800774D5
:101E300001F0A374F4F0E490013FF0900201122B42
:101E4000B090013FE0FF6016900024E06410900025
:101E50003670057410F080037420F0122B939000FC
:101E60004BEFF022E4F526F525F524F523F526F5CC
:101E700025F524F523F522122B5F502AE52225E0D3
:101E8000240AF8E6FE08E6FFE4FCFDE5262FFFE560
:101E9000253EFEED3524FDEC35238F268E258D2441
:101EA000F523052280D1E47B04FAF9F8AF26AE25AC
:101EB000AD24AC23120F46900181EEF0A3EFF0E4C5
:101EC0007526A8752561F524F523F522122B5F50A0
:101ED00055900181122B33C3122BBA123635D3EF32
:101EE000940AEE648094804012900181E0FEA3E0A9
:101EF000FF900159E0FCA3E0FD8007900159122BEF
:101F000033C3122BBA3395E0FDFCE5262FFFE52500
:101F10003EFEE5243DFDE5233C8F268E258D24F5F0
:101F20002305220226ACE47F607EEAFDFCAB26AAF4
:101F300025A924A823D3120FEE400BE47526607563
:101F400025EAF524F523AE25AF2622CBEFCBEEFA1A
:101F5000C3E52E9BFFE52D9AFEE52C9400FDE52BB5
:101F600094008F2E8E2D8D2CF52B2290020FE025C4
:101F7000E02457F582E43436F583E5822FF582E4D8
:101F80003583F583E49322E52225E024BCF582E441
:101F90003401F58322F583E49375F002902E00124C
:101FA0001067E0FFA3E022CFF0A3EFF0902E20E433
:101FB000F0758A3075B29322900165E0FEA3E0FFD0
:101FC000E4FCFD22123588758A5075B28F902E2060
:101FD0007401F0229001DFE0FFA3E090015FCFF0F9
:101FE000A3EFF02290020FE0243FF582E43402F5E3
:101FF00083E022F583E4932420F582E4342EF583F4
:10200000229001E10210127F047E007D007B0122FC
:1020100090020FE06401229001E102101E120EA056
:102020009001E102102A9001EA1210129001E5E0FD
:10203000FB75F013A42415F582E43402F583121025
:102040002AEB75F013A42420F582E43402F5831200
:1020500010129001EA12101E120EBB9001E5E0FB77
:1020600075F013A42411F582E43402F58312102ACA
:10207000EB75F013A42419F582E43402F58322757C
:10208000F002121067E493FE740193FFED75F013F4
:10209000A4241AF582E43402F583E0FCA3E0D39F84
:1020A000EC9E229001E5E0FB75F013A42415F58267
:1020B000E43402F58322EB75F013A4241CF582E4CA
:1020C0003402F58322EB75F013A42411F582E43475
:1020D00002F583229001F212102A9001EA021012F6
:1020E00012102A9001F2021012EB75F013A42420B2
:1020F000F582E43402F58322E49001DAF0A3F09053
:10210000014C7404F0A374B0F090014A7404F0A37D
:1021100074B0F01233E87E007F047D007B017A0109
:1021200079591210B27F0112346B902E14E0FEA385
:10213000E0FF122D9290013C121073EE8FF0120E00
:1021400081E4FF12346B122DA69001DACDF0A3EDDD
:10215000F09001DAE0FCA3E0FDC39405EC940040AC
:1021600009D3ED94F0EC94074017EF64014E70052D
:1021700090014C8004E490014AF0A3F0E4FF123493
:102180006B902E23E4F0122DA69001DACDF0A3ED92
:10219000F090001D7410F0EF64014E9001DA7008A9
:1021A000122D8D122DCB8006122D8D122DD5E03ED5
:1021B000FE122DB522C0E0C083C082C0D075D018F9
:1021C000D2AFE5DB30E422D205C202E5DB30E11418
:1021D000123627E0F5DFEF64077065D28A900007BA
:1021E000F0022A43C201022A46E5DB30E52C9000CA
:1021F000F0E064AA7017758A10F5DAC2AFF5B2F58F
:10220000A8F5A9F58B758E01758DC080FED20030C2
:102210000204C2028050C205804CC202E5DB30E1FC
:1022200021E5DB30E040123627E0F5DFEF24F960EE
:102230000824EE700BD2068007D28A900007E4F0E3
:10224000802120010A782FA6DFD201D20280171246
:102250003627E5DFF0EF642470099001FD04F0A358
:1022600074F4F0782F0675DBFFD0D0D082D083D005
:10227000E0329001DF1210129001DCE0C454F0242F
:102280002AF582E43402F58322EBC454F02428F5C5
:1022900082E43402F583E4F0A3F09001DCE0FFC4B3
:1022A00054F0242CF582E43402F583E4F0A3F0EF3B
:1022B000C454F02431F582E43402F583229001DC29
:1022C000E0FBC454F02424F582E43402F58322E0D8
:1022D000FDA3E09001DDCDF0A3EDF0EFC454F024B8
:1022E00030F582E43402F583229001DCE0C454F03E
:1022F000242EF582E43402F58322C454F02432F50E
:1023000082E43402F583229001DDE0FEA3E0FF22A7
:10231000C454F02428F582E43402F58322E0FEA3BD
:10232000E0FFD39400EE9400229001DF02101E9093
:102330000140121012900108121073EE8FF0020E7D
:1023400081900102121073020E1E9001DAE0FEA3CA
:10235000E0FF22E52225E0240AF8E6FE08E6FFE099
:10236000FCA3E0FD22900105121073E4F5F0020ECB
:1023700081D39001FCE094009001FBE0940022C323
:10238000E5229404748094802225E02475F582E48B
:102390003401F583E022EE9001DAF0A3EFF022128F
:1023A0001073746175F0A8020E81900100E0FCA327
:1023B000E0FD229001FD7403F0A37420F022E47587
:1023C000F001020E08E0FEA3E0FBEEFAE4F9F822C9
:1023D000F0A3F09000367410F022EF9DFFEE9CFE0B
:1023E00022E0FEA3E0FFC3221231311235687E00E5
:1023F0007F2C7D007B017A0179841210B212082EA5
:10240000E490017DF0A3F090016BF0A3F0900169DE
:10241000F0A3F090016DF0A3F07F04122ED590018F
:1024200000E0FEA3E0FFA3122B18900100E0FEA342
:10243000E0FF122B15122B4590010B122B7F900100
:1024400011122B7F90010E122B48E490013FF0FEF9
:102450007F0AFD7B017A0179401210B2E4900209F3
:10246000F0A3F0900207122BB0E490004BF0122B77
:102470009390020DE0700FC39001FCE094F4900182
:10248000FBE09401500A9001FB7401F0A374F4F096
:1024900022787FE4F6D8FD75812F022CBB02000064
:1024A000022E4AE493A3F8E493A34003F68001F2DA
:1024B00008DFF48029E493A3F85407240CC8C3333D
:1024C000C4540F4420C8834004F456800146F6DF0C
:1024D000E4800B0102040810204080903516E47E51
:1024E000019360BCA3FF543F30E509541FFEE49301
:1024F000A360010ECF54C025E060A840B8E493A3C8
:10250000FAE493A3F8E493A3C8C582C8CAC583CAF2
:10251000F0A3C8C582C8CAC583CADFE9DEE780BEAA
:10252000E49001DEF0A3F0200603022D8C20077C4E
:10253000C20690020FE0902E12E0FFA3E09001DEB1
:10254000CFF0A3EFF09001DEE0FFA3E09001DCCF3D
:10255000F0A3EFF0E4FF12346B122DA69001DECD54
:10256000F0A3EDF0EF64014E9001DE7008122D8DA6
:10257000122DCB8006122D8D122DD5E03E9001DA62
:10258000F0A3EFF09001DAE0FEA3E0FF122DB5908A
:10259000020FE09001DCE0FFA3E0902E12CFF0A349
:1025A000EFF09001FD7403F0A37420F022E0FEA38D
:1025B000E0FF7C007D0A020DC09001E1E0902E104A
:1025C00075F00202106790020FE0FF7E00902E125D
:1025D000E0FDA3E022900139121073EE8FF0020E9D
:1025E0008175F002EF902E1002106790014DE02FE0
:1025F000FF90014C2290014BE02FFF90014A2200F6
:102600000402AB5074AA7583F5758255A57455758F
:1026100083FA7582AAA574A57583F5758255A522DE
:102620000203030AB0B00BB6B60CFFFF09020208A2
:10263000FFFF0D77770E04041307071410101080A6
:10264000801500001600000192129212071B021B57
:10265000110F0404040404010101011108080F080A
:102660001208080F0603020402041235DC53A87F87
:102670001235C1121F1F12342B12080E43A880E41A
:10268000F58D9000F17420F0122F559001FAE014AE
:10269000601514601714603814604A240470E01246
:1026A00028D812080380D8122BC8803112354590E3
:1026B0000020E0FF64206008EF64216003122FD344
:1026C000900025E0641070B79001FA7404F080AFB8
:1026D00012080A9001FD7403F0A37420F09001FA2F
:1026E0007402F0809A12335C900025E06410608FD1
:1026F000120803808A9001DAEFF0E4A3F09001DA87
:10270000E0FFA3E0C39F502E121133123607900151
:102710006DEEF0A3EFF08E12F513C8740AC87400C2
:10272000FCE4FDFB7A00790CFE7F08120D9A900103
:10273000DBE004F080C7122644900100EEF0A3EF26
:10274000F090016B122BC1900133E09FFF9001329A
:10275000E09EFE1236357C007D05120DD2900130D0
:10276000ECF0A3EDF090016BE0FFA3E0900132CF1D
:10277000F0A3EFF022900020E0642070037421F0B9
:10278000900136121073120E1E641045F070031281
:102790003313900001E064AA70031232671232C84A
:1027A00020030890001AE06410700B90001A741156
:1027B000F0C2031208039000FBE06006E4F0900111
:1027C000FAF0900171E07004A3E0640170159001CB
:1027D00071F0A3F09001BA7407F0A374D0F0E49004
:1027E00001FAF030000CC2009001FD7401F0A374F6
:1027F000F4F022308A789001FBE07002A3E0706E62
:10280000900171E07002A3E07064F5B2758D204311
:102810008D20758D9043A808D2AF758B4090012C08
:10282000E0FEA3E0FF4E6005758E148003758E3FB9
:1028300020002F20052CE5DB54047026758AA42087
:102840000520E5DB5404701AF58675870300000047
:10285000758601EF4E60047F2880027F7F7E001224
:102860001AA0758B01758A3053A8F71235A522E49A
:10287000FEEEC39407748094805038EE75F005A482
:102880002428F582E4342EF583C083C08290020FA1
:10289000E0D082D08375F00212106712275AFDEE45
:1028A00075F005A42427F582E4342E1227D3EDF029
:1028B0000E80BEEF701090020FE0700A90014AE0A7
:1028C0007002A3E0600F1227F0701490014CE070CA
:1028D00002A3E0700A90020FE0902E217412F02201
:1028E000CFF0EFA3F0900105121073020E1EC3FF8C
:1028F000900189E09F900188E095F02290011DE011
:10290000FEA3E0FF2290011DE0FFA3E0229001DD85
:10291000E0941E9001DCE09400229001AC7413F06E
:10292000A37488F0A3E4F0A322E4F0A3F0A3F0A33F
:10293000F022CF9001A4F0A3EFF022FF900188E5F0
:10294000F0F0A3EFF0229001A7E09F9001A6E09E97
:10295000227E007F137D007B017A0279111210B272
:10296000E4FBEBC3940174809480505190020FE01B
:10297000FFEB75F00AA42441F582E43436F583E5D3
:10298000822FF582E43583F583E493FFE4FCFDFEBA
:1029900012289612102A122896121012EF04F87EAE
:1029A000007401088005C333CE33CED8F9FFEE336F
:1029B00095E0FDFC1228C912102A0B80A522900177
:1029C000FFE07004A3E064017011900007E0600470
:1029D000D28AE4F0E49001FFF0A3F0900036E0FF2B
:1029E0009000FFE06F603D900036E0FD9000FFF04A
:1029F000900007E0900210F0540FF0ED7E0064208C
:102A00007005E04420800CEF64104E700B900210B3
:102A1000E04410F0900007F0C28A9001FF7403F0C8
:102A2000A374E8F02274FFF5F0020E08EF2401FD14
:102A3000E43EFCD3E09D22E475F001020E08C39051
:102A40000149E094BC900148E0940222C3900193B4
:102A5000E09464900192E0940022C3900233E094E9
:102A6000B8900232E0940B22C390022DE094F490CF
:102A7000022CE0940122EE8FF0020E08EF2401FDFB
:102A8000E43EFCD3E09D229001DA7408F0A3E4F068
:102A9000A3743FF0A374DFF0E4FDFCF9758A1053D2
:102AA0008AEF009001DAE0FEA3E02DF582EE3CF51E
:102AB00083E493FF69F90DBD00010CBC37E5BDDF70
:102AC000E29001DCE0FEA3E0F5828E83E493FFE96F
:102AD0006F70089000017404F08005E4900001F02C
:102AE000758A30538AEF0022900013E0FF90020EA7
:102AF000E06F600CEFF090020B7402F0A37458F0DA
:102B000090020BE07004A3E06401702690020EE0D6
:102B1000FF7E0064107002D207EF64204E7002C284
:102B200007900025E064106002D203E490020BF0ED
:102B3000A3F022E49001DAF0A3F0758A10538AEF33
:102B400000122DE475EA81E4F5F6F5F475F308F565
:102B5000F275EB0700E5EC30E7FBAFF3EFFEADF20B
:102B6000EDFF900136121073EE8FF0120E81E4F536
:102B7000EC75EB30758A30538AEF0022900025E027
:102B80006410703FF5B2758D20438D20538D7F53B7
:102B9000A8F7F58BE5DB54047013200510F58AF5D2
:102BA00086758703000000758601758A30758B0174
:102BB00090020D7401F09001FD7403F0A37420F0F5
:102BC0001235A522C2D5E830E70FB2D5E4C39BFB8E
:102BD000E49AFAE499F9E498F8EC30E717B2D512E0
:102BE00033DA120F46E4C39BFBE49AFAE499F9E462
:102BF00098F88003120F4630D50DE4C39FFFE49E82
:102C0000FEE49DFDE49CFC22E4FFEFC3940D748080
:102C10009480502E90020FE0FEEF75F003A4240183
:102C2000F582E4342EF583E5822E12275DFEEF75E2
:102C3000F003A42400F582E4342E1227D3EEF00F23
:102C400080C8902F56E0902E2BF022E4F5DA75DA4A
:102C50004043DA2030881375D74075D64090020F74
:102C600004F09000157440F0801175D74275D6427B
:102C7000E490020FF09000157441F05392FE75DA63
:102C80005843A80275B80275F802229001E0EFF0EF
:102C90001235889001E0E0FF12304F9001E0E0FF34
:102CA00090020FE025E02457F582E43436F583E501
:102CB000822FF582E43583F583E493FF12242F906D
:102CC00001E0E0FF0236189001DCEFF07E007F109B
:102CD000EEC0E0EFC0E07D00E075F010A42424F920
:102CE000740235F0FA7B01D0E0FFD0E0FE1210B2A2
:102CF0009001DCE0122ADA740BF0A374B8F0229091
:102D0000015AE02430FF900159E034F8FEC39001ED
:102D10006CE09F90016BE09E5014900171E0700296
:102D2000A3E0701190017104F0A374F4F022E49018
:102D30000171F0A3F022C10542023F0204C1064125
:102D400002100041020F00C10741020E00C1010143
:102D50002F00C100C102C104C1034100FF104302A2
:102D60003A01023D0012082E7F01122ED512207268
:102D7000900102122B181214E61225501221B712DC
:102D8000319E1234DF022D001227E77A01795D129D
:102D900010B21227E77A0179651210B27F1212275A
:102DA000E97A0179BC0210B2EFF87401088002C31D
:102DB00033D8FC42AB12274B90365493F4529152C5
:102DC000935391DF22E5B254016006E5A8541070D8
:102DD0000F75B29275B67CE4F5B743B20143A81003
:102DE00022758A30538AEF758601758F05E4F5AB3D
:102DF00075AC0F75913E759201D28A2290407F4347
:102E0000EC40E493643B700300800653A87F00808D
:102E1000FD53ECBF2290023A121073020E1E900175
:102E20001DE0FEA3E0FF2290016BE0FEA3E0FF9017
:102E30000169EEF0A3EFF02212274B903654934233
:102E400091428843912022782FE6FF2400F582E406
:102E50003400F58322EE30E707C3E49FFFE49EFED3
:102E60002203030019001E001400197E007D007B60
:102E7000010210B201022001020102009600960731
:102E800001F400000000000000000000000000004D
:102E90000000000000000000000000000000000032
:102EA0000000000000000000000000000000000022
:102EB0000000000000000000000000000000000012
:102EC0000000000000000000000000000000000002
:1037F000000000000000000000000000000000C405
:1038000000000000000000000000000000000000B8
:1038100000000000000000000000000000000000A8
:00000001FF
