:1000000000510000000500001D5E0000000000001F
:1000100000000000000000000000000000000000E0
:10002000022FA790020E7401F02222022C41023806
:10003000650000020816D2AF32000002081ED2AFDF
:10004000320000021FEBD2AF3200000208269001FE
:10005000EE12319712256D90018E1211AD12316A98
:10006000E4FCFD12102F90018E1211B9900192E460
:1000700075F001120F97C3900195E094649001947C
:10008000E094005003020B6190018E1211A1ECC0AC
:10009000E0EDC0E0EEC0E0EFC0E0900192E0FEA332
:1000A000E0FBEEFAE4F9F8D0E0FFD0E0FED0E0FDAE
:1000B000D0E0FC1210D590018E1211B990018E1271
:1000C00011A190018CEEF0A3EFF0A31211C5000076
:1000D000000090019212319790020FE07002A3E0AD
:1000E0006003020B61900196E07002A3E0600302DE
:1000F0000B6190013FE07003020965900188E07098
:1001000002A3E0701A90018CE0FFA3E09001881236
:10011000314E1231B8E49001E6F0A3F0020990905C
:10012000018CE0FEA3E0FFC3900189E090018812FA
:100130000DFB9001B2121202EE8FF012101090011E
:1001400086E0701D9001B2123156C3940AE5F09416
:100150000050081231531231B880069001867401A4
:10016000F090018CE0FEA3E0FFD3900189E09F9026
:100170000188E09E4007E4900187F080339001877A
:100180007401F0802BE4900188123198900186F080
:1001900090019A1231989001E3F0A3F09001E2F0FF
:1001A0009001ECF0A3F09001E6F0A3F09001E5F0EF
:1001B000900186E07003020AFBD390018BE094006B
:1001C00090018AE094005003020AFB123153FF9021
:1001D000018AE0FCA3E0FDC3EF9DFFE5F09CFE1269
:1001E00038F69001F2EEF0A3EFF0A3E4F074C81239
:1001F0003151D39494E5F09411400A9001F47403C2
:10020000F0A37420F09001F2E0FFA3E09001B61299
:10021000314ED312315D4006D312318A500D123166
:100220005312315C504512318A4040E4900186F00F
:100230009001E274021231739001E3CFF0A3EFF06A
:10024000A37401F0E4900188F012315112315C90F6
:1002500001965008E4F0A374C8F080077401F0A37D
:10026000742CF0E4900187F0020AFB123153FFD3A3
:1002700012315E404DD39001F3E0941E1231904054
:10028000411231CE74FF75F0F9120FD890019CE441
:1002900075F007120F97C390019BE094E890019AC4
:1002A000E09403501DA3E0940790019AE09400406D
:1002B0000A74FF75F0F9120F978007E490019AF025
:1002C000A3F012315312315C504B9001F3E0941EB5
:1002D00012319040401231CEE475F007120FD890E1
:1002E000019AE475F007120F97C390019DE09458AE
:1002F00090019CE09402501DA3E0940790019CE0C3
:100300009400400A74FF75F0F9120F978007E4908B
:10031000019CF0A3F09001E27401F0900186E0707E
:10032000609001E2E06402705812316AC39001E407
:10033000E09001E3120DFB9001ECEEF0A3EFF090E2
:1003400001E5E0700FA3E0FEA3E0FF1231CEEE8FD7
:10035000F0120FD8E49001E5F09001ECE0FEA3E08C
:10036000FF7C007D0A120EFA9001E6EEF0A3EFF09A
:10037000900108123156C39FFFE5F09E8FF01210D6
:100380001090013FE060179001D2E07002A3E0708E
:100390000D1231749001D2CFF0A3EFF080199001CB
:1003A0003FE07013123153C3942CE5F094015007D1
:1003B000E49001D2F0A3F09001D2E07002A3E070CB
:1003C00003020D0A12316AC39001D3E09FFF90012E
:1003D000D2E09EFE1238F69001F0EEF0A3EFF0129C
:1003E000316AD39001D3E09F9001D2E09E400D90FE
:1003F00001F0E0FFA3E09001D4CF801A9001F0E07B
:10040000FEA3E0FFD394C8EE9400400EEE13FEEF7F
:1004100013FF9001D4EEF0A3EFF0D39001D5E09458
:100420000A9001D4E094005003020D0A123153D314
:1004300094E8E5F094035003020D0A123153FFAE25
:10044000F07C007D0A120F0C7C007D05120EFA90E4
:1004500001EEEEF0A3EFF0C39001D7E09F9001D63C
:10046000E09E4003020D0A9001F2740AF0E4A3F04A
:10047000123151D394A0E5F0940F40069001F2742C
:100480000FF09001F2E0FF7E009001D4E0FCA3E0C9
:10049000FD120EFA9001F3EEF0A3EFF09001EE12D0
:1004A000318050089001F3ECF0A3EDF09001DCE016
:1004B0007002A3E07074123153D39440E5F0941F9E
:1004C000401E9001D7E024F4FF9001D6E0340112E1
:1004D000317C9001D65002801C740175F0F48020AC
:1004E0009001D7E02464FF9001D6E0340012317C03
:1004F0009001D65007ECF0A3EDF08007E475F064AE
:10050000120F979001DC744EF0A37420F0D3900189
:10051000D7E0942C9001D6E09401500C123153C3D3
:10052000942CE5F094015002D204900223E064017F
:100530006003020DFA90013FE06003020DE79001B5
:10054000A8E07002A3E0700B1231749001A8CFF004
:10055000A3EFF012316AC39001A7E09F9001A6E0DB
:100560009E5004EE1231B09001ACE07002A3E07036
:100570005912316AD31231C340129001A9E09FFF92
:100580009001A8E09E9001AAF0A3EFF0D39001ABF8
:10059000E094049001AAE0940040081231A0746431
:1005A000F08015D39001ABE094069001AAE094008E
:1005B00040061231A074C8F09001AC7403F0A3742B
:1005C000E81231739001A8CF800D12316AC3123145
:1005D000C350089001A8EEF0A3EFF09001AEE070D8
:1005E00002A3E070121231741231AFE49001B0F046
:1005F000A3F09001D880209001B0E0FFA3E090012B
:10060000D8CFF0A3EFF0221231741231AFE4900191
:10061000D8F0A3F09001B0F0A3F0229FFFE09EFE7F
:100620001238F622E709F608DFFA8046E709F208F1
:10063000DFFA803E88828C83E709F0A3DFFA8032FC
:10064000E309F608DFFA8078E309F208DFFA807040
:1006500088828C83E309F0A3DFFA806489828A832D
:10066000E0A3F608DFFA805889828A83E0A3F208C3
:10067000DFFA804C80D280FA80C680D4806980F214
:100680008033801080A680EA809A80A880DA80E299
:1006900080CA803389828A83ECFAE493A3C8C58236
:1006A000C8CCC583CCF0A3C8C582C8CCC583CCDF79
:1006B000E9DEE7800D89828A83E493A3F608DFF9F7
:1006C000ECFAA9F0EDFB2289828A83ECFAE0A3C858
:1006D000C582C8CCC583CCF0A3C8C582C8CCC583AD
:1006E000CCDFEADEE880DB89828A83E493A3F20828
:1006F000DFF980CC88F0EF60010E4E60C388F0ED2A
:100700002402B4040050B9F582EB2402B404005072
:10071000AF2323458223900E5473EF8DF0A4A8F0ED
:10072000CF8CF0A428CE8DF0A42EFE22BC000BBEF0
:100730000029EF8DF084FFADF022E4CCF875F008CD
:10074000EF2FFFEE33FEEC33FCEE9DEC984005FC02
:10075000EE9DFE0FD5F0E9E4CEFD22EDF8F5F0EECA
:100760008420D21CFEADF075F008EF2FFFED33FDB5
:100770004007985006D5F0F222C398FD0FD5F0EA55
:1007800022C2D5EC30E709B2D5E4C39DFDE49CFC60
:10079000EE30E715B2D5E4C39FFFE49EFE120F0CC6
:1007A000C3E49DFDE49CFC8003120F0C30D507C30D
:1007B000E49FFFE49EFE22C5F0F8A3E028F0C5F018
:1007C000F8E582158270021583E038F022BB010A39
:1007D00089828A83E0F5F0A3E022500687F009E7DA
:1007E0001922BBFE07E3F5F009E3192289828A8307
:1007F000E493F5F074019322BB010789828A830296
:100800000F97500B09C5F027F7C5F01937F722BB32
:10081000FE0D09F8E325F0F3C5F019E338F322F8EB
:1008200089828A8374019325F0C5F0F8E493382215
:10083000BB010A89828A83F0E5F0A3F0225006F713
:1008400009A7F01922BBFE06F3E5F009F31922EF20
:100850002BFFEE3AFEED39FDEC38FC22C3EF9BFF97
:10086000EE9AFEED99FDEC98FC22E88FF0A4CC8B7B
:10087000F0A42CFCE98EF0A42CFC8AF0EDA42CFC56
:10088000EA8EF0A4CDA8F08BF0A42DCC3825F0FD95
:10089000E98FF0A42CCD35F0FCEB8EF0A4FEA9F08E
:1008A000EB8FF0A4CFC5F02ECD39FEE43CFCEAA4DA
:1008B0002DCE35F0FDE43CFC2275F008758200EF8A
:1008C0002FFFEE33FECD33CDCC33CCC58233C58282
:1008D0009BED9AEC99E58298400CF582EE9BFEED3B
:1008E0009AFDEC99FC0FD5F0D6E4CEFBE4CDFAE40A
:1008F000CCF9A88222B800C1B90059BA002DEC8BFE
:10090000F084CFCECDFCE5F0CBF97818EF2FFFEED9
:1009100033FEED33FDEC33FCEB33FB10D703994092
:1009200004EB99FB0FD8E5E4F9FA227818EF2FFFD2
:10093000EE33FEED33FDEC33FCC933C910D7059B14
:10094000E99A4007EC9BFCE99AF90FD8E0E4C9FA70
:10095000E4CCFB2275F010EF2FFFEE33FEED33FDFC
:10096000CC33CCC833C810D7079BEC9AE899400A1F
:10097000ED9BFDEC9AFCE899F80FD5F0DAE4CDFB9D
:10098000E4CCFAE4C8F922EB9FF5F0EA9E42F0E9E4
:100990009D42F0EC6480C864809845F022EB9FF59E
:1009A000F0EA9E42F0E99D42F0E89C45F022E860C2
:1009B0000FECC313FCED13FDEE13FEEF13FFD8F1A4
:1009C00022E0FCA3E0FDA3E0FEA3E0FF22E0F8A309
:1009D000E0F9A3E0FAA3E0FB22ECF0A3EDF0A3EE34
:1009E000F0A3EFF022A8828583F0D083D082121189
:1009F000DC1211DC1211DC1211DCE473E493A3C5E8
:100A000083C5F0C583C8C582C8F0A3C583C5F0C53A
:100A100083C8C582C822A42582F582E5F03583F516
:100A20008322E0FBA3E0FAA3E0F922EBF0A3EAF0D3
:100A3000A3E9F022EC8EF0A4CCC5F0CCCDF8EFA465
:100A4000CEC5F02DFDE43CFCE8A42EC8C5F03DFD6C
:100A5000E43CFCEFA4FFE5F028FEE43DFDE43CFCB3
:100A600022EF4E6012EF60010EEDBB010B89828A0E
:100A700083F0A3DFFCDEFA2289F05007F709DFFCE0
:100A8000A9F022BBFEFCF309DFFCA9F0227F0112D2
:100A9000334E122A37902E20E030E2F9900223E004
:100AA00025E02419F582E43439122A149001F31256
:100AB0002A267F011238D990015FE0FEA3E0FF4EA5
:100AC00070089001F3122A81801E7C007D03120EB3
:100AD000FA9001F4E02FFF9001F3E03EFE7802EF80
:100AE000CEC313CE13D8F9FFEE122A0C4E700312A8
:100AF0002A04122A0490015BE07002A3E0700F90B8
:100B0000015FE0FFA3E090015BCFF0A3EFF0900165
:100B1000F51211C500002710E4FF12334EE49001D6
:100B2000F0F09001F0E0FF7E00C3940474809480A4
:100B30004003021526EF2401FFEE33FE122A47FD83
:100B4000D3EF9D7480F86E98400302151DE4FF12E8
:100B50002A37902E20E030E2F9900223E025E024AD
:100B600018F582E43439122A149001F1122A26FF72
:100B70001238D990019EE0FEA3E0FF9001F2E02F31
:100B8000FF9001F1E03EFE9001A0E0FCA3E0FDC378
:100B9000EF9DFFEE9C9001F1F0FAA3EFF0FB74FFE4
:100BA000F523F524F525F526E4F527F528F529F5AF
:100BB0002AF52EF52DF52CF52B9001CEEAF0A3EBBE
:100BC000F0E4F522C3E52294087480948040030287
:100BD0001467122A64E0FEA3E04E6005122A6480C6
:100BE000039001F1E0FEA3E0FF1229AFEEF0A3EFC6
:100BF000F01229AFE0FEA3E0D39528EE952740122E
:100C000085272985282A1229AFE0F527A3E0F528B2
:100C100080191229AFE0FEA3E0D3952AEE95294072
:100C20000A1229AFE0F529A3E0F52A1229AFE0FE68
:100C3000A3E0C39524EE9523501285232585242611
:100C40001229AFE0F523A3E0F52480191229AFE0C3
:100C5000FEA3E0C39526EE9525500A1229AFE0F5D4
:100C600025A3E0F5261229AFE0FEA3E0FFE4FCFD9A
:100C7000E52E2FFFE52D3EFEED352CFDEC352B123C
:100C800029D405220213A4AE27AF28EFFB1229C0F6
:100C9000AE29AF2A1229BDAE23AF241229BDAE253D
:100CA000AF261229BDFC780212118E9001D0EEF011
:100CB000A3EFF090015DE0FEA3E0FF4E700890010D
:100CC000D0122A81801E7802EFC333CE33CED8F9FA
:100CD000FF9001D1E02FFF9001D0E03EFE7C007D2F
:100CE00005120F0C90015DEEF0FAA3EFF0FB122954
:100CF000FCFFE4FCFD9001FA1211B9EBFFEAFEE4FF
:100D0000FCFD9001FE1211B9E4FF12217090016503
:100D1000EEF0A3EFF0900223E064019001F5700B78
:100D20001229F92400FFEE34F080091229F9240079
:100D3000FFEE34E8FE3395E0FDFC122A8B9001F0C3
:100D4000E004F0021302902E23E4F09001F512115A
:100D5000ADE8C0E0E9C0E0EAC0E0EBC0E0122A473D
:100D6000FFFBE4FAF9F8122A72123687D0E0FBD0C2
:100D7000E0FAD0E0F9D0E0F8122A8BE47F507EC38D
:100D8000FDFC9001F51211ADD3121167400A9001DC
:100D9000F51211C50000C350122A72EC33500A90AC
:100DA00001F51211C50000000090016BE0FAA3E00C
:100DB000FB4A7005122A7280227E007F03EBFDEA57
:100DC000FC121214ECF8EDF9EEFAEFFB122A721293
:100DD000102FE47B04FAF9F81210D590016BEEF0B5
:100DE000A3EFF0900159E07002A3E0700F90016B47
:100DF000E0FFA3E0900159CFF0A3EFF0900126129D
:100E000029F9FFE4FCFD12102F9001261211B99070
:100E1000012AE475F001120F9790012AE0FEA3E089
:100E2000FFD3940AEE94004029EFFBEEFAE4F9F8C0
:100E30009001261211A11210D5900124EEF0A3EF1B
:100E4000F0E490012AF0A3F09001261211C50000F1
:100E5000000090012CE07002A3E0703A900124E0C1
:100E6000FEA3E0FFC3900166E09FFF900165E09E56
:100E7000FE1238F6900122EEF0A3EFF0D39406EEC6
:100E80009400401290012C7403F0A374E8F0A3E4E2
:100E900075F001120F9790016BE0FEA3E0FF2212A4
:100EA0002AFC4003021983122A97FDE5F0FC900109
:100EB00002122A9AFFAEF0D39DEE9C402E122B68B0
:100EC000D3EF9430EE9475400C9001EE7475F0A35E
:100ED0007430F08010120FADC39DFEE5F09C9001C0
:100EE000EEF0A3CEF0E49001B88060120FADFFAE3B
:100EF000F0C3ED9FFBEC9EFAD3EB9410EA942740ED
:100F00000C9001EE7427F0A37410F08009C3ED9FDC
:100F1000FFEC9E122AF49001EEE0FFA3E09001B8EE
:100F2000CFF0A3EFF0300718D3E0942C9001B8E095
:100F3000940140139001BA7427F0A37410F0800755
:100F4000E49001BAF0A3F0E49001EEF0A3F0900178
:100F50003FE06048122AB1D39400EE648094804050
:100F600014D3EF9509EE9508400B900215E4F0A319
:100F70007464F0801BD3900216E09400900215E098
:100F80009400400C900105122A9AFFE5F0122AF411
:100F900090021B740FF0A374A0F0800F90021974DC
:100FA00003F0A374E8F0E4FF12378AD39001EFE076
:100FB00094009001EEE0648094805003021960E098
:100FC000FEA3E0FF900105122AA8122AB1EE339584
:100FD000E0FDFCE47BB87A88F9F8C3121167500A87
:100FE0009001EE7488F0A374B8F0D3900218E094E6
:100FF00000900217E0940050089000F1E064207027
:1010000044122AB1C39509EE95085039E509249C8C
:10101000FDE50834FFFCD3EF9DEE9C40067C007D8F
:1010200003804BE5092438FDE50834FFFC122AB1A2
:10103000D39DEE9C40067C007D048007122AB17C83
:10104000007D0A802930072D90013FE07011122A9F
:10105000B1C39517EE9516501C7C027DBC800F1213
:101060002AB1C39515EE9514500B7C027DBC120F6E
:1010700061EE122AF490013FE070030218E890023A
:1010800019E07002A3E070199001EEE0FEA3E0FD0C
:10109000EEFCE4FF1219849001EEEEF0A3EFF08075
:1010A00035122AB1C3900135E09FFF900134E09ED4
:1010B000FE1238F6D3EF9428EE648094804017D364
:1010C00090021AE094C8900219E09400400874FF5E
:1010D00075F09C120F97900134E0FEA3E0FF7C00B6
:1010E0007D0F121214ECF8EDF9EEFAEFFB122AB1B3
:1010F000EE3395E0FDFC12102FE47B10FAF9F812A4
:1011000010D5900134EE800B9001EEE0FFA3E0904B
:101110000134CFF0A3EFF0900134E0FEA3E0FFD361
:101120009405EE9400400EEF9410EE94005006905B
:1011300001EEEE8016900130E0FEA3E0FF90013555
:10114000E02FFF900134E03E9001EEF0A3EFF0D3EA
:101150009001EFE094309001EEE0648094F5400758
:101160007475F0A37430F0E5DB540470369001EE32
:10117000122AA09001EFE024A8FF9001EEE0801A6F
:10118000E5DB5404701D122ACC900130122AA09085
:10119000010E122A9A24A8FFE5F03461FE90010B9B
:1011A000122AA8229001F0EFF0A3ECF0A3EDF0EFEB
:1011B000122D79E0FEA3E0C39DFFEE9CFE1238F6EF
:1011C000D3EF9428EE64809480401C122D491211B4
:1011D000C500000000122D15E4F0122D93122D759C
:1011E000EEF0A3EFF0803B122D04122DA9403390B6
:1011F00001F1E0FCA3E0FDD3EF9DEE9C400B9001DC
:10120000F0E0122D3CE04401F09001F0E0FF122DDF
:1012100008E0FAA3E0C39DEA9C5007122D3BE0448E
:1012200002F09001F0E0122D4EC083C0821211AD89
:10123000122D93E4FCFD12102FD082D0831211B92D
:101240009001F0E0FF122D9CE475F001120F97EF72
:1012500075F007A42421F582E43439F583E493FE84
:10126000740193FF9001F0E0FDC454F02440F58236
:10127000E43402F583E0FAA3E0C39FEA9E50030240
:101280001BF0ED122D9CE0FEA3E0FFFBEEFAE4F96B
:10129000F89001F0E0122D4E1211A11210D590011C
:1012A000F31211B9122CFEE0FCA3E0C39FFFEC9EE9
:1012B000FE1238F69001F7EEF0A3EFF09001F0E0A7
:1012C000FD75F007A4241CF582E43439F583C3745A
:1012D00001939FE4939E401FED122D08E0FEA3E0D2
:1012E0004E60149001F0E0FB122D86E0FEA3E0C3F7
:1012F00094B8EE940B501E9001F0E0FF122D08E020
:10130000FCA3E04C7008EF122D86E4F0A3F0122C41
:10131000FEEE021B97EB6003021B9D9001F9F0901B
:1013200001F7E0FEA3E0FFD39450EE94004006A343
:101330007408F080329001F0E0122D3CE06403600C
:1013400026D3EF943CEE940040089001F97404F029
:101350008015D39001F8E094289001F7E0940040C4
:10136000069001F97402F0122D04E0FEA3E0FFE400
:10137000FCFD122DB5D312117D40119001F9E0FF53
:10138000122D04E48FF0120F97021BD3D39001F8B3
:10139000E094509001F7E094004058122D04C0836F
:1013A000C082E0FEA3E0FF9001F9E0FDC3EF9DFFE6
:1013B000EE9400D082D083F0A3EFF08036122D049B
:1013C000E0FEA3E0FF4E700D122DB5EBFFEAFEE943
:1013D000FDE8FC80167C007D07121214122DB51258
:1013E000102FE47B08FAF9F81210D5122D04EEF054
:1013F000A3EFF0122D491211C500000000122D15A7
:10140000E4F09001F31211A1122D75EEF0A3EFF0AC
:10141000122D04122DA9405F9001F2E09FFF900170
:10142000F1E09EFE1238F69001F0E075F007A4247A
:101430001EF582E43439F583D37401939FE4939EBF
:10144000400F9001F0E0FF122D08122D5BE4F080B8
:10145000269001F0E0FF75F007A42420F582E43423
:1014600039F583E493FE122D67E0C39E5009122DD7
:1014700004122D5BE004F0122D93229001F074020F
:10148000F0A374BCF0D39001BDE094009001BCE0E7
:101490009400400C900102122A9A122B3C12101058
:1014A00090020FE07002A3E0600B9001F0E4F0A363
:1014B0007464F0800B90001AE0641170037420F0E3
:1014C00090013FE060667E007D00122AD890010204
:1014D000122A9AFFC39001DFE09FFF9001DEE095A2
:1014E000F0FE1238F69001F2EEF0A3EFF090011D3D
:1014F000122B149001E9E09FFF9001E8E09EFE129C
:1015000038F6C39001F3E094969001F2E094004025
:1015100003021E27C3EF940FEE94004003021E2720
:10152000900102122A9A122B3C02101090014012D4
:1015300011ADE8C0E0E9C0E0EAC0E0EBC0E0900136
:1015400002122A9AFFAEF0E4FCFDD0E0FBD0E0FAF4
:10155000D0E0F9D0E0F812102F9001401211B990AC
:101560000144E475F001120F979001F0122B1490D2
:101570000149E09F900148E09E5003021E27900120
:10158000401211A1ECC0E0EDC0E0EEC0E0EFC0E021
:10159000900144122B53D0E0FFD0E0FED0E0FDD00C
:1015A000E0FC1210D59001401211B92004239001E3
:1015B00014122A9A25E0FFE5F033FE900102122A68
:1015C0009A2FFFEE35F0FE122A97D39FE5F09E404A
:1015D000189001401211A1900108122AA8C204E437
:1015E0009001D6F0A3F0021E10122A972432FFE4D5
:1015F00035F0FEE4FCFD9001401211ADD312117DD7
:10160000900140400A122A94122AE37D2080081299
:101610002A94122AE37D04120F619001EEEEF0A3EA
:10162000EFF0122A97C39FFFE5F09E8FF012101083
:101630009001401211C500000000E4900144F0A3A5
:10164000F0900148F0A3F022D3900210E09F9002A6
:101650000FE09E400AA3E09FF090020FE09EF09002
:10166000021412349D900213E09C400CA3E09FF002
:10167000900213E09EF08002D28AD3900212E09F83
:10168000900211E09E400AA3E09FF0900211E09EBC
:10169000F01234AF50031234E7D3900216E09F905B
:1016A0000215E09E400AA3E09FF0900215E09EF034
:1016B000D3900218E09F900217E09E400AA3E09F9B
:1016C000F0900217E09EF0D390021EE09F90021D62
:1016D000E09E400AA3E09FF090021DE09EF0D390B0
:1016E000021AE09F900219E09E400AA3E09FF0904A
:1016F0000219E09EF0D390021CE09F90021BE09E36
:10170000400AA3E09FF090021BE09EF0D39001BB43
:10171000E09F9001BAE09E400AA3E09FF09001BADA
:10172000E09EF090022012349D90021FE09C400A3F
:10173000A3E09FF090021FE09EF01234BD50031210
:1017400034E7D3900197E09F900196E09E400AA372
:10175000E09FF0900196E09EF09001991234ED9098
:101760000198E09C400AA3E09FF0900198E09EF071
:10177000D39001ADE09F9001ACE09E400AA3E09FB2
:10178000F09001ACE09EF0D39001AFE09F9001AEED
:10179000E09E400AA3E09FF09001AEE09EF0900131
:1017A000741234ED900173E09C400AA3E09FF09026
:1017B0000173E09EF0D39001BDE09F9001BCE09EDC
:1017C000400AA3E09FF09001BCE09EF01234CB50A1
:1017D000031234E71234D950031234E7D390012DA9
:1017E000E09F90012CE09E400AA3E09FF090012C26
:1017F000E09EF0D39001DDE09F9001DCE09E400A86
:10180000A3E09FF09001DCE09EF022C0E0C0F0C0B9
:1018100083C082C0D0E8C0E0D2AFD3900210E09481
:101820000090020FE094004003123496D39002140B
:10183000E09401900213E094004005123496800277
:10184000D28AD3900212E09400900211E0940040FA
:10185000031234961234AF50031234A8D3900216F8
:10186000E09400900215E094004003123496D39067
:101870000218E09400900217E0940040031234969E
:10188000D390021EE0940090021DE09400400312E9
:101890003496D390021AE09400900219E09400402C
:1018A00003123496D390021CE0940090021BE09443
:1018B000004003123496D39001BBE094009001BA2B
:1018C000E094004003123496D3900220E0940190FB
:1018D000021FE0940040031234961234BD500312EC
:1018E00034A8D3900197E09400900196E0940040D2
:1018F00003123496D3900199E09401900198E094FA
:10190000004003123496D39001ADE094009001ACF6
:10191000E094004003123496D39001AFE09400901D
:1019200001AEE094004003123496D3900174E09429
:1019300001900173E094004003123496D39001BDEE
:10194000E094009001BCE0940040031234961234FD
:10195000CB50031234A81234D950031234A8D390B8
:10196000012DE0940090012CE09400400312349685
:10197000D39001DDE094009001DCE094004003127C
:101980003496D0E0F8D0D0D082D083D0F0D0E032FE
:101990009001F9EFF0122BBAE070279001F9E012F4
:1019A0002BF11211A1E4FBFAF9F8C312117D6012B8
:1019B0009001F9E0122C0F1211A1E4F8C312117D6D
:1019C0007057122C239001FA1222ACEEF0A3EFF024
:1019D000ED122BBAE06029ED75F00AA42408F58217
:1019E000E43439F583C083C082900223E0D082D0F2
:1019F00083122BC8400A9001F9E0122BBA7405F04B
:101A0000122B6FE0D39400748094804006122BB99F
:101A1000E014F09001FE0222A8122BEC1211A1900A
:101A200002021211B9122C0E1211A190020612110B
:101A3000B99001F9E0122C001211A1EFF9122C2C2F
:101A4000E9F812118EEFFBEEFAEDF9ECF8122C2CFE
:101A500012103C90020A1211B99002021211A190C8
:101A600001FE1211AD12102F90020A1211AD1210C8
:101A70002F122C1D122BEC122C29122C0E122C2999
:101A8000122C321211AD1210D5122C1D900206121A
:101A900022ACEEF0A3EFF0ED75F00AA42404F58279
:101AA000E43439F583C083C082900223E0D082D031
:101AB00083122BC8400F122B6F7405F0122C239049
:101AC00002061211B99002061211A122EFFBEEFAE2
:101AD0001211A1C3EF9BFFEE9AFE1238F69001F9A6
:101AE000E0FD75F013A4242EF582E43402F5832280
:101AF0007FFF7A00790012390C7FEE7A01790012AB
:101B0000390C7E007F147D007B017A02790E12125F
:101B100041902DE0E493900001F09000047411F0E6
:101B2000A37422F0A37433F0902DE2E4939000129A
:101B3000F0902DE3E493900014F09000FB7401F01A
:101B40009000367410F09000F1F0900024F0A3742F
:101B500020F07B017A00794090010212120B7A008A
:101B6000794490010812120B7A0079429001051213
:101B7000120B7A00792E90010B12120B7A00792A3F
:101B800090010E12120B7A00792890011112120B9B
:101B90007A00796090011F12120B7A00798090010F
:101BA000B212120B7A00791890013912120B7A00D6
:101BB000791B90013612120B7A00793290011412BF
:101BC000120B7A00792690011712120B7A007934E1
:101BD00090011A12120B900114121202740275F085
:101BE00058121010900117121202E475F0C812106A
:101BF0001090011A121202740175F02C1210107557
:101C0000160275175875080175092C75140075159D
:101C1000C87B017A00795090013C12120B9000525F
:101C20007418F0A3F0A37407F09000587418F0A390
:101C30007408F0A314F090020FF0A374D0F0E490B5
:101C4000020EF02290017F122B149404EE940050A7
:101C500026122B33EF25E0FFEE33FE74772FF5824B
:101C600074013EF583ECF0A3EDF090017FE475F094
:101C700001120F970224F39001F27401F09001F227
:101C8000E0FFC3122B0D5021EF122B1BFCA3E0FD34
:101C9000EF25E02475F582E43401F583ECF0A3ED43
:101CA000F09001F2E004F080D490013FE060028007
:101CB00053900102122A9AFF122B33C3EF9DFFE5C6
:101CC000F09CFE1238F6C3EF9428EE6480948050A6
:101CD00033122A97FFC3900101E09FFF900100E0BB
:101CE00095F0FE1238F6C3EF9414EE6480948050A1
:101CF000059001088003900102122A9AFF90017D4D
:101D0000E5F0800B900100E0FFA3E090017DCFF0B3
:101D1000A3EFF09001EE1211C500000000E4900165
:101D2000F2F09001F2E0FFD3900180E09F90017FFC
:101D3000E0940040259001EE1211AD9001F2E01206
:101D40002B1BFEA3E0FFE4FCFD12102F9001EE120E
:101D500011B99001F2E004F080C89001EE1211A1D7
:101D6000ECC0E0EDC0E0EEC0E0EFC0E090017F121B
:101D70002B53D0E0FFD0E0FED0E0FDD0E0FC12100D
:101D8000D59001EE1211B99001EE0211A1758D20CE
:101D9000438D20538D7FE4F5B275B6FF75B7FF759F
:101DA000B2A243B20153A8FB1238BEE58B20E70371
:101DB0000080F81238BEE58B20E7030080F890021F
:101DC00051E5B5F0A3E5B4F0758B01E4F5B2123836
:101DD00065E4F58D90011DE0FEA3E0FF4E7010124A
:101DE00038B5FD90011DE5F0F0A3EDF0022651128B
:101DF00038B5FDC3EF9DFFEE95F0FE1238F6D3EF38
:101E0000940AEE6480948040241238B5FFC3900198
:101E10001EE09F90011DE095F05006E475F00180F2
:101E20000790011D74FFF5F0120F97804490011D7B
:101E3000E0FEA3E0FF7C007D03121214ECC0E0ED95
:101E4000C0E0EEC0E0EFC0E01238B5FFAEF0E4FC59
:101E5000FDD0E0FBD0E0FAD0E0F9D0E0F812102F8E
:101E6000E47B04FAF9F81210D590011DEEF0A3EF0F
:101E7000F0900223E0640190011DE0FFA3E09001D7
:101E80009ECFF0A3EFF09001A0E07002A3E0700DF0
:101E900090019EE0FFA3E0A3CFF0A3EFF09001A696
:101EA000E07002A3E0700F90011DE0FFA3E090013D
:101EB000A6CFF0A3EFF0229001F5EFF0902E22E0F4
:101EC000FF9001F9E4F0A3EFF0758A50902E227490
:101ED00001F01235657404F0A3E4F09001F6F0907F
:101EE00001F6E0FFC3940D7480948040030227AB99
:101EF000EFF87E02E4088006CEA2E713CE13D8F8EE
:101F0000FF9001F7EEF0A3EFF04E70079001F7F0AD
:101F1000A304F0902E207401F0902E20E030E2F91E
:101F20009001F5E0FF902E0012356CE0FCA3E0D3A9
:101F300094FEEC9407404012358DE0FEA3E0FF9044
:101F400001F7E0FCA3E0FDEF2DFFEE3CFEC3EF94B4
:101F5000FFEE94079001F5E075F002902E10500B03
:101F60001211F6EC8DF0120F9780501211F67407D3
:101F7000F0A374FFF080449001F5E0FF123569E0B2
:101F8000FCA3E0FD9001F7E0FAA3E0FBD3ED9BECAE
:101F90009A402112358DC083C082C3A3E09BFF0508
:101FA00082D5820215831582E09AD082D083F0A375
:101FB000EFF08007123565E4F0A3F0902E20E4F0F6
:101FC000F58D9001F6E004F00226BF9001F9A3E040
:101FD000902E22F0758A30227F587E027D2C7C0163
:101FE000122AFC40030228C73007209001BAE07093
:101FF00002A3E0600875161375178880067516072A
:102000007517D0750806750940804B900223E0F9DA
:10201000640170087E027F587C017D2C9001D6E01F
:10202000FAA3E0FB2FF517EA3EF516CEECCEEDFF56
:10203000EB2FF509EA3EF508E964017019A3E0FE0B
:10204000A3E0FF2517F517EE3516F516EF2509F570
:1020500009EE3508F508900105122A9AFFAEF0C383
:102060009517EE9516500F90013FE0601AC3EF955B
:1020700009EE95084011900217E07002A3E0704548
:1020800090013F04F0803E9000F1E0642090021740
:102090007005F0A3F080077401F0A374F4F0E490ED
:1020A000013FF0900215122B5E122A97FF9001DE7D
:1020B000E5F0F0A3EFF090011DE0FFA3E09001E850
:1020C000CFF0A3EFF090013FE0FF6016900024E016
:1020D000641090003670057410F080037420F012C4
:1020E0002B4890004BEFF022E4F526F525F524F57A
:1020F00023F526F525F524F523F522122B0A502A7F
:10210000E52225E0240AF8E6FE08E6FFE4FCFDE50A
:10211000262FFFE5253EFEED3524FDEC35238F26E9
:102120008E258D24F523052280D1E47B04FAF9F86D
:10213000AF26AE25AD24AC231210D5900183EEF06E
:10214000A3EFF0E47526A8752561F524F523F522A3
:10215000122B0A5055900183122ABAC3122B68120F
:1021600038F6D3EF940AEE64809480401290018395
:10217000E0FEA3E0FF900159E0FCA3E0FD800790A2
:102180000159122ABAC3122B683395E0FDFCE526EB
:102190002FFFE5253EFEE5243DFDE5233C8F268E01
:1021A000258D24F5230522022930E47F607EEAFD97
:1021B000FCAB26AA25A924A823D312117D400BE449
:1021C0007526607525EAF524F523AE25AF2622E5B0
:1021D0002225E024BEF582E43401F58322CBEFCB47
:1021E000EEFAC3E52E9BFFE52D9AFEE52C9400FD4B
:1021F000E52B94008F2E8E2D8D2CF52B2290022313
:10220000E025E02418F582E43439F583E5822FF5E2
:1022100082E43583F583E493221211AD900165E0E9
:10222000FEA3E0229001F3E0FFA3E0CF90015FF076
:10223000A3EFF022F583E49375F002902E001211C3
:10224000F6E0FFA3E022CFF0A3EFF0902E20E4F021
:10225000758A3075B29322123848758A5075B28FDC
:10226000902E207401F022900223E02453F582E4A2
:102270003402F583E022F583E4932420F582E434EC
:102280002EF58322E52225E024C0F582E43401F511
:1022900083229001F50211A17F047E007D007B0165
:1022A00022E0FCA3E0FDECFEEDFF2212102F9001D6
:1022B000F50211B91211A1900108121202020FAD1C
:1022C000E0FEA3E090010EFF121202EE8FF002106A
:1022D000109001EEE0FEA3E0FF22E52225E0240AB3
:1022E000F8E6FE08E6FFE0FCA3E0FD2290010512FF
:1022F0001202E4F5F00210107F0A7B017A017940A6
:10230000021241C39FFFE5F09EFE9001EEF0A3EFA5
:10231000F07C00229001EEF0A3EFF022D3900210A7
:10232000E0940090020FE0940022C3E5229404742C
:1023300080948022E0FEA3E0FFC32225E02477F50D
:1023400082E43401F583E022121202746175F0A870
:10235000021010900100E0FCA3E0FD22FF900108B4
:10236000121202E5F08FF0229002117403F0A374B0
:1023700020F022E0FEA3E0FBEEFAE4F9F822F0A35D
:10238000F09000367410F022EF9DFFEE9CFE22903C
:1023900001FE1211A19001F9E0FB75F013A42429AC
:1023A000F582E43402F5831211B9EB75F013A4241D
:1023B00034F582E43402F5831211A19001FE12116A
:1023C000AD12104A9001F9E0FB75F013A42425F535
:1023D00082E43402F5831211B9EB75F013A4242DB5
:1023E000F582E43402F5832275F0021211F6E493CB
:1023F000FE740193FFED75F013A4242EF582E434EE
:1024000002F583E0FCA3E0D39FEC9E229001F9E06B
:10241000FB75F013A42429F582E43402F58322EB42
:1024200075F013A42430F582E43402F58322EB75B1
:10243000F013A42425F582E43402F58322900206E9
:102440001211B99001FE0211A11211B990020602F7
:1024500011A1EB75F013A42434F582E43402F58362
:1024600022C0E0C083C082C0D075D018D2AFE5DBF7
:1024700030E422D205C202E5DB30E1141238E8E094
:10248000F5DFEF64077065D28A900007F0022CEF49
:10249000C201022CF2E5DB30E52C9000F0E064AAEA
:1024A0007017758A10F5DAC2AFF5B2F5A8F5A9F57F
:1024B0008B758E01758DC080FED200300204C20281
:1024C0008050C205804CC202E5DB30E121E5DB3003
:1024D000E0401238E8E0F5DFEF24F9600824EE7000
:1024E0000BD2068007D28A900007E4F080212001F9
:1024F0000A782FA6DFD201D20280171238E8E5DF72
:10250000F0EF6424700990021104F0A374F4F078E1
:102510002F0675DBFFD0D0D082D083D0E03290017F
:10252000F31211A19001F0E0C454F0243EF582E4CE
:102530003402F58322EBC454F0243CF582E43402E7
:10254000F583E4F0A3F09001F0E0FFC454F02440E0
:10255000F582E43402F583E4F0A3F0EFC454F024F0
:1025600045F582E43402F583229001F0E0FBC45487
:10257000F02438F582E43402F58322E0FDA3E090F4
:1025800001F1CDF0A3EDF0EFC454F02444F582E462
:102590003402F583229001F0E0C454F02442F58225
:1025A000E43402F58322C454F02446F582E4340274
:1025B000F583229001F1E0FEA3E0FF22C454F02451
:1025C0003CF582E43402F58322E0FEA3E0FFD394DD
:1025D00000EE9400229001F30211AD12082E7F014B
:1025E0001231D4122424900102122AA812167F124A
:1025F00027B8121C5B12342F1237C202303600008B
:102600000502AB5174AA7583F5758255A57455758D
:1026100083FA7582AAA574A57583F5758255A522DE
:102620000203020AB0B00BB6B60CFFFF09020208A3
:10263000FFFF0D77770E04041307071410101080A6
:102640008015000016000001921292120718030B69
:10265000010F040404040401010101111818080801
:1026600012180808080302040204E49001EEF0A323
:10267000F090014C7407F0A304F090014A14F0A309
:1026800004F01236CB7E007F047D007B017A017955
:10269000591212417F0112374E902E14E0FEA3E032
:1026A000FF12355E90013C121202EE8FF0121010F4
:1026B000E4FF12374E1235729001EECDF0A3EDF02B
:1026C0009001EEE0FCA3E0FDC39405EC940040090A
:1026D000D3ED94F0EC94074017EF64014E70059031
:1026E000014C8004E490014AF0A3F0E4FF12374E5D
:1026F000902E23E4F01235729001EECDF0A3EDF0B0
:1027000090001D7410F0EF64014E9001EE700812FD
:10271000355912359780061235591235A1E03EFE23
:10272000123581221233C21238287E007F2C7D00A0
:102730007B017A01798612124112082EE490017F02
:10274000F0A3F090016BF0A3F0900169F0A3F0907A
:10275000016DF0A3F07F041231D4900100E0FEA3DC
:10276000E0A3122AA7900100E0FEA3E0FF90010879
:10277000122AA8122ACC90010B122B2890011112B8
:102780002B2890010E122ACFE490013FF0FEFD129B
:102790002AD8E490021DF0A3F090021B122B5EE4F5
:1027A00090004BF0122B48900221E0700FC3900272
:1027B00010E094F490020FE09401500A90020F741C
:1027C00001F0A374F4F022787FE4F6D8FD75812F30
:1027D000022FF10200000230C3E493A3F8E493A3B4
:1027E0004003F68001F208DFF48029E493A3F85453
:1027F00007240CC8C333C4540F4420C8834004F4D6
:1028000056800146F6DFE4800B01020408102040E8
:10281000809037F9E47E019360BCA3FF543F30E51C
:1028200009541FFEE493A360010ECF54C025E0605D
:10283000A840B8E493A3FAE493A3F8E493A3C8C52B
:1028400082C8CAC583CAF0A3C8C582C8CAC583CA1C
:10285000DFE9DEE780BEE49001F2F0A3F02006039A
:102860000230C220077CC206900223E0902E12E0C4
:10287000FFA3E09001F2CFF0A3EFF09001F2E0FFB0
:10288000A3E09001F0CFF0A3EFF0E4FF12374E1277
:1028900035729001F2CDF0A3EDF0EF64014E90019E
:1028A000F2700812355912359780061235591235D3
:1028B000A1E03E9001EEF0A3EFF09001EEE0FEA368
:1028C000E0FF123581900223E09001F0E0FFA3E0E9
:1028D000902E12CFF0A3EFF09002117403F0A374C6
:1028E00020F02212389C53A87F1238811222D01275
:1028F000370E12080E43A880E4F58D9000F1742085
:10290000F012325490020EE0146015146017146037
:102910003814604A240470E0122E4A12080380D84A
:10292000122F048031122DBB900020E0FF64206044
:1029300008EF642160031232D2900025E064107029
:10294000B790020E7404F080AF12080A900211745E
:1029500003F0A37420F090020E7402F0809A1236F5
:102960003F900025E06410608F120803808ACFF04A
:10297000EFA3F0900105121202020FADC3FF900108
:102980008BE09F90018AE095F02290011DE0FEA36C
:10299000E0FF22F090011DE0FFA3E022FE9001F392
:1029A000E0FCA3E0FDC39FEC9E229001F3E094C8FD
:1029B0009001F2E0940022E4F0A3F0A3F0A3F0224F
:1029C0009001AE7413F0A37488F0A3E4F0A322CFB7
:1029D0009001A6F0A3EFF022FF90018AE5F0F0A3AA
:1029E000EFF0229001A9E09F9001A8E09E229001C3
:1029F000080212029001EEEFF0E4A3F09001EEE085
:102A0000FFA3E0C39F502E12126D1238C890016DC3
:102A1000EEF0A3EFF08E12F513C8740AC87400FC30
:102A2000E4FDFB7A00790CFE7F08120ED49001EFD2
:102A3000E004F080C71228C8900100EEF0A3EFF088
:102A400090016B122B14900133E09FFF900132E054
:102A50009EFE1238F67C007D05120F61900130EC6D
:102A6000F0A3EDF090016BE0FFA3E0900132CFF016
:102A7000A3EFF022900020E0642070037421F09016
:102A80000136121202120FAD641045F070031235B8
:102A9000F6900001E064AA70031234F81235AB20FE
:102AA000030890001AE06410700B90001A7411F083
:102AB000C2031208039000FBE06006E4F090020EEF
:102AC000F0900173E07004A3E0640170159001734D
:102AD000F0A3F09001BC7407F0A374D0F0E490026E
:102AE0000EF030000CC2009002117401F0A374F4D7
:102AF000F022308A7890020FE07002A3E0706E90AE
:102B00000173E07002A3E07064F5B2758D20438D0F
:102B100020758D9043A808D2AF758B4090012CE0B2
:102B2000FEA3E0FF4E6005758E148003758E3F2076
:102B3000002F20052CE5DB54047026758AA420059F
:102B400020E5DB5404701AF58675870300000075D4
:102B50008601EF4E60047F2880027F7F7E00121E78
:102B600028758B01758A3053A8F712386522E4FE68
:102B7000EEC39407748094805038EE75F005A42459
:102B800028F582E4342EF583C083C082900223E0CE
:102B9000D082D08375F0021211F61229ECFDEE7589
:102BA000F005A42427F582E4342E122A56EDF00E07
:102BB00080BEEF7010900223E0700A90014AE0702E
:102BC00002A3E06012900223E06401701490014CB3
:102BD000E07002A3E0700A900223E0902E217412AC
:102BE000F0227E007F137D007B017A02792512128C
:102BF00041E4FBEBC3940174809480505190022314
:102C0000E0FFEB75F00AA42402F582E43439F58381
:102C1000E5822FF582E43583F583E493FFE4FCFD40
:102C2000FE122BFF1211B9122BFF1211A1EF04F8A3
:102C30007E007401088005C333CE33CED8F9FFEE91
:102C40003395E0FDFC122C321211B90B80A52290B5
:102C50000213E07004A3E064017011900007E060CB
:102C600004D28AE4F0E4900213F0A3F0900036E07E
:102C7000FF9000FFE06F603D900036E0FD9000FFA8
:102C8000F0900007E0900224F0540FF0ED7E006415
:102C9000207005E04420800CEF64104E700B900211
:102CA00024E04410F0900007F0C28A9002137403ED
:102CB000F0A374E8F02274FFF5F0020F97EF2401FF
:102CC000FDE43EFCD3E09D22E475F001020F97C3C2
:102CD000900149E094BC900148E0940222C3900125
:102CE00095E09464900194E0940022C3900247E040
:102CF00094B8900246E0940B22C3900241E094F411
:102D0000900240E0940122EE8FF0020F97EF240131
:102D1000FDE43EFCD3E09D229001EE7408F0A3E4B4
:102D2000F0A3743FF0A374DFF0E4FDFCF9758A10A2
:102D3000538AEF009001EEE0FEA3E02DF582EE3C19
:102D4000F583E493FF69F90DBD00010CBC37E5BDC7
:102D5000DFE29001F0E0FEA3E0F5828E83E493FFD2
:102D6000E96F70089000017405F08005E49000019F
:102D7000F0758A30538AEF0022E0FEA3E0FF7C006A
:102D80007D0A020EFA9001F5E0902E1075F0020215
:102D900011F6900223E0FF7E00902E12E0FDA3E0EA
:102DA00022900139121202EE8FF002101075F0021B
:102DB000EF902E100211F690014DE02FFF90014C84
:102DC0002290014BE02FFF90014A22900013E0FF78
:102DD000900222E06F600CEFF090021F7402F0A3EB
:102DE0007458F090021FE07004A3E0640170269014
:102DF0000222E0FF7E0064107002D207EF64204ED2
:102E00007002C207900025E064106002D203E490D3
:102E1000021FF0A3F022E49001EEF0A3F0758A10F7
:102E2000538AEF00122DE475EA81E4F5F6F5F475A6
:102E3000F308F5F275EB0700E5EC30E7FBAFF3EFD5
:102E4000FEADF2EDFF900136121202EE8FF012107D
:102E500010E4F5EC75EB30758A30538AEF00229060
:102E60000025E06410703FF5B2758D20438D20532E
:102E70008D7F53A8F7F58BE5DB5404701320051004
:102E8000F58AF586758703000000758601758A301E
:102E9000758B019002217401F09002117403F0A36C
:102EA0007420F012386522C2D5E830E70FB2D5E4BD
:102EB000C39BFBE49AFAE499F9E498F8EC30E7173D
:102EC000B2D51236BD1210D5E4C39BFBE49AFAE4E6
:102ED00099F9E498F880031210D530D50DE4C39F1A
:102EE000FFE49EFEE49DFDE49CFC22E4FFEFC3941E
:102EF0000D74809480502E900223E0FEEF75F00355
:102F0000A42401F582E4342EF583E5822E1229EF04
:102F1000FEEF75F003A42400F582E4342E122A5645
:102F2000EEF00F80C8902F56E0902E2BF022E4F5A3
:102F3000DA75DA4043DA2030881375D74075D64009
:102F400090022304F09000157440F0801175D74270
:102F500075D642E4900223F09000157441F053922C
:102F6000FE75DA5843A80275B80275F8022290017E
:102F7000F4EFF01238489001F4E0FF12334E900164
:102F8000F4E0FF900223E025E02418F582E43439D0
:102F9000F583E5822FF582E43583F583E493FF1210
:102FA00026979001F4E0FF0238D99001F0EFF07E0F
:102FB000007F10EEC0E0EFC0E07D00E075F010A4EF
:102FC0002438F9740235F0FA7B01D0E0FFD0E0FE3E
:102FD0001212419001F0E0122D86740BF0A374B828
:102FE000F02290015AE02430FF900159E034F8FEBD
:102FF000C390016CE09F90016BE09E5014900173B0
:10300000E07002A3E0701190017304F0A374F4F077
:1030100022E4900173F0A3F022C10542025304029E
:10302000C1064102240041022300C10741022200DF
:10303000C101012F00C100C102C104C1034100FF51
:103040001043024E01025100122A787A01795D1272
:103050001241122A787A0179651212417F12122ADE
:103060007A7A0179BE021241EFF87401088002C336
:1030700033D8FC42AB1229DD90391593F4529152AA
:10308000935391DF22E5B254016006E5A854107015
:103090000F75B29275B67CE4F5B743B20143A81040
:1030A00022758A30538AEF758601758F05E4F5AB7A
:1030B00075AC0F75913E759201D28A2290407F4384
:1030C000EC40E493643B700300800653A87F0080CB
:1030D000FD53ECBF2290024E121202020FAD538B31
:1030E0007F758B10438B082290016BE0FEA3E0FFFD
:1030F000900169EEF0A3EFF0221229DD90391593CB
:103100004291428843912022782FE6FF2400F582E5
:10311000E43400F58322EE30E707C3E49FFFE49E2A
:10312000FE220403001E001E001900197E007D000F
:103130007B01021241010220010201020096009669
:103140000701F40000000000000000000000000083
:10315000000000000000000000000000000000006F
:10316000000000000000000000000000000000005F
:10317000000000000000000000000000000000004F
:10318000000000000000000000000000000000003F
:1037F000000000000000000000000000000000E3E6
:1038000000000000000000000000000000000000B8
:1038100000000000000000000000000000000000A8
:00000001FF
