:100000000050000000050000C9B60000000000001C
:1000100000000000000000000000000000000000E0
:10002000022F0790020E7401F02222022C77023771
:10003000E50000020816D2AF32000002081ED2AF5F
:10004000320000021F63D2AF320000020826900186
:10005000EE1230F71224E790018E1211AD1230CA61
:10006000E4FCFD12102F90018E1211B9900192E460
:1000700075F001120F97C3900195E094649001947C
:10008000E094005003020B6190018E1211A1ECC0AC
:10009000E0EDC0E0EEC0E0EFC0E0900192E0FEA332
:1000A000E0FBEEFAE4F9F8D0E0FFD0E0FED0E0FDAE
:1000B000D0E0FC1210D590018E1211B990018E1271
:1000C00011A190018CEEF0A3EFF0A31211C5000076
:1000D00000009001921230F790020FE07002A3E04E
:1000E0006003020B61900196E07002A3E0600302DE
:1000F0000B6190013FE07003020965900188E07098
:1001000002A3E0701A90018CE0FFA3E09001881236
:1001100030AE123118E49001E6F0A3F0020990909D
:10012000018CE0FEA3E0FFC3900189E090018812FA
:100130000DFB9001B2121202EE8FF012101090011E
:1001400086E0701D9001B21230B6C3940AE5F094B7
:100150000050081230B312311880069001867401E5
:10016000F090018CE0FEA3E0FFD3900189E09F9026
:100170000188E09E4007E4900187F080339001877A
:100180007401F0802BE49001881230F8900186F021
:1001900090019A1230F89001E3F0A3F09001E2F0A0
:1001A0009001ECF0A3F09001E6F0A3F09001E5F0EF
:1001B000900186E07003020AFBD390018BE094006B
:1001C00090018AE094005003020AFB1230B3FF90C2
:1001D000018AE0FCA3E0FDC3EF9DFFE5F09CFE1269
:1001E00038759001F2EEF0A3EFF0A3E4F074C812BA
:1001F00030B1D39494E5F09411400A9001F4740363
:10020000F0A37420F09001F2E0FFA3E09001B61299
:1002100030AED31230BD4006D31230EA500D12304A
:10022000B31230BC50451230EA4040E4900186F0F1
:100230009001E274021230D39001E3CFF0A3EFF00B
:10024000A37401F0E4900188F01230B11230BC9038
:1002500001965008E4F0A374C8F080077401F0A37D
:10026000742CF0E4900187F0020AFB1230B3FFD344
:100270001230BE404DD39001F3E0941E1230F04096
:100280004112312E74FF75F0F9120FD890019CE4E1
:1002900075F007120F97C390019BE094E890019AC4
:1002A000E09403501DA3E0940790019AE09400406D
:1002B0000A74FF75F0F9120F978007E490019AF025
:1002C000A3F01230B31230BC504B9001F3E0941EF7
:1002D0001230F0404012312EE475F007120FD89022
:1002E000019AE475F007120F97C390019DE09458AE
:1002F00090019CE09402501DA3E0940790019CE0C3
:100300009400400A74FF75F0F9120F978007E4908B
:10031000019CF0A3F09001E27401F0900186E0707E
:10032000609001E2E0640270581230CAC39001E4A8
:10033000E09001E3120DFB9001ECEEF0A3EFF090E2
:1003400001E5E0700FA3E0FEA3E0FF12312EEE8F77
:10035000F0120FD8E49001E5F09001ECE0FEA3E08C
:10036000FF7C007D0F120EFA9001E6EEF0A3EFF095
:100370009001081230B6C39FFFE5F09E8FF0121077
:100380001090013FE060179001D2E07002A3E0708E
:100390000D1230D49001D2CFF0A3EFF0801990016C
:1003A0003FE070131230B3C3942CE5F09401500772
:1003B000E49001D2F0A3F09001D2E07002A3E070CB
:1003C00003020D0A1230CAC39001D3E09FFF9001CF
:1003D000D2E09EFE1238759001F0EEF0A3EFF0121D
:1003E00030CAD39001D3E09F9001D2E09E400D909F
:1003F00001F0E0FFA3E09001D4CF801A9001F0E07B
:10040000FEA3E0FFD394C8EE9400400EEE13FEEF7F
:1004100013FF9001D4EEF0A3EFF0D39001D5E09458
:100420000A9001D4E094005003020D0A1230B3D3B5
:1004300094E8E5F094035003020D0A1230B3FFAEC6
:10044000F07C007D0A120F0C7C007D05120EFA90E4
:1004500001EEEEF0A3EFF0C39001D7E09F9001D63C
:10046000E09E4003020D0A9001F2740AF0E4A3F04A
:100470001230B1D394A0E5F0940F40069001F274CD
:100480000FF09001F2E0FF7E009001D4E0FCA3E0C9
:10049000FD120EFA9001F3EEF0A3EFF09001EE12D0
:1004A00030E050089001F3ECF0A3EDF09001DCE0B7
:1004B0007002A3E070741230B3D39440E5F0941F3F
:1004C000401E9001D7E024F4FF9001D6E0340112E1
:1004D00030DC9001D65002801C740175F0F480204D
:1004E0009001D7E02464FF9001D6E034001230DCA4
:1004F0009001D65007ECF0A3EDF08007E475F064AE
:10050000120F979001DC744EF0A37420F0D3900189
:10051000D7E0942C9001D6E09401500C1230B3C374
:10052000942CE5F094015002D204900223E064017F
:100530006003020DFA90013FE06003020DE79001B5
:10054000A8E07002A3E0700B1230D49001A8CFF0A5
:10055000A3EFF01230CAC39001A7E09F9001A6E07C
:100560009E5004EE1231109001ACE07002A3E070D6
:10057000591230CAD312312340129001A9E09FFFD3
:100580009001A8E09E9001AAF0A3EFF0D39001ABF8
:10059000E094049001AAE0940040081231007464D1
:1005A000F08015D39001ABE094069001AAE094008E
:1005B000400612310074C8F09001AC7403F0A374CB
:1005C000E81230D39001A8CF800D1230CAC3123187
:1005D0002350089001A8EEF0A3EFF09001AEE07078
:1005E00002A3E070121230D412310FE49001B0F087
:1005F000A3F09001D880209001B0E0FFA3E090012B
:10060000D8CFF0A3EFF0221230D412310FE49001D2
:10061000D8F0A3F09001B0F0A3F0229FFFE09EFE7F
:1006200012387522E709F608DFFA8046E709F20872
:10063000DFFA803E88828C83E709F0A3DFFA8032FC
:10064000E309F608DFFA8078E309F208DFFA807040
:1006500088828C83E309F0A3DFFA806489828A832D
:10066000E0A3F608DFFA805889828A83E0A3F208C3
:10067000DFFA804C80D280FA80C680D4806980F214
:100680008033801080A680EA809A80A880DA80E299
:1006900080CA803389828A83ECFAE493A3C8C58236
:1006A000C8CCC583CCF0A3C8C582C8CCC583CCDF79
:1006B000E9DEE7800D89828A83E493A3F608DFF9F7
:1006C000ECFAA9F0EDFB2289828A83ECFAE0A3C858
:1006D000C582C8CCC583CCF0A3C8C582C8CCC583AD
:1006E000CCDFEADEE880DB89828A83E493A3F20828
:1006F000DFF980CC88F0EF60010E4E60C388F0ED2A
:100700002402B4040050B9F582EB2402B404005072
:10071000AF2323458223900E5473EF8DF0A4A8F0ED
:10072000CF8CF0A428CE8DF0A42EFE22BC000BBEF0
:100730000029EF8DF084FFADF022E4CCF875F008CD
:10074000EF2FFFEE33FEEC33FCEE9DEC984005FC02
:10075000EE9DFE0FD5F0E9E4CEFD22EDF8F5F0EECA
:100760008420D21CFEADF075F008EF2FFFED33FDB5
:100770004007985006D5F0F222C398FD0FD5F0EA55
:1007800022C2D5EC30E709B2D5E4C39DFDE49CFC60
:10079000EE30E715B2D5E4C39FFFE49EFE120F0CC6
:1007A000C3E49DFDE49CFC8003120F0C30D507C30D
:1007B000E49FFFE49EFE22C5F0F8A3E028F0C5F018
:1007C000F8E582158270021583E038F022BB010A39
:1007D00089828A83E0F5F0A3E022500687F009E7DA
:1007E0001922BBFE07E3F5F009E3192289828A8307
:1007F000E493F5F074019322BB010789828A830296
:100800000F97500B09C5F027F7C5F01937F722BB32
:10081000FE0D09F8E325F0F3C5F019E338F322F8EB
:1008200089828A8374019325F0C5F0F8E493382215
:10083000BB010A89828A83F0E5F0A3F0225006F713
:1008400009A7F01922BBFE06F3E5F009F31922EF20
:100850002BFFEE3AFEED39FDEC38FC22C3EF9BFF97
:10086000EE9AFEED99FDEC98FC22E88FF0A4CC8B7B
:10087000F0A42CFCE98EF0A42CFC8AF0EDA42CFC56
:10088000EA8EF0A4CDA8F08BF0A42DCC3825F0FD95
:10089000E98FF0A42CCD35F0FCEB8EF0A4FEA9F08E
:1008A000EB8FF0A4CFC5F02ECD39FEE43CFCEAA4DA
:1008B0002DCE35F0FDE43CFC2275F008758200EF8A
:1008C0002FFFEE33FECD33CDCC33CCC58233C58282
:1008D0009BED9AEC99E58298400CF582EE9BFEED3B
:1008E0009AFDEC99FC0FD5F0D6E4CEFBE4CDFAE40A
:1008F000CCF9A88222B800C1B90059BA002DEC8BFE
:10090000F084CFCECDFCE5F0CBF97818EF2FFFEED9
:1009100033FEED33FDEC33FCEB33FB10D703994092
:1009200004EB99FB0FD8E5E4F9FA227818EF2FFFD2
:10093000EE33FEED33FDEC33FCC933C910D7059B14
:10094000E99A4007EC9BFCE99AF90FD8E0E4C9FA70
:10095000E4CCFB2275F010EF2FFFEE33FEED33FDFC
:10096000CC33CCC833C810D7079BEC9AE899400A1F
:10097000ED9BFDEC9AFCE899F80FD5F0DAE4CDFB9D
:10098000E4CCFAE4C8F922EB9FF5F0EA9E42F0E9E4
:100990009D42F0EC6480C864809845F022EB9FF59E
:1009A000F0EA9E42F0E99D42F0E89C45F022E860C2
:1009B0000FECC313FCED13FDEE13FEEF13FFD8F1A4
:1009C00022E0FCA3E0FDA3E0FEA3E0FF22E0F8A309
:1009D000E0F9A3E0FAA3E0FB22ECF0A3EDF0A3EE34
:1009E000F0A3EFF022A8828583F0D083D082121189
:1009F000DC1211DC1211DC1211DCE473E493A3C5E8
:100A000083C5F0C583C8C582C8F0A3C583C5F0C53A
:100A100083C8C582C822A42582F582E5F03583F516
:100A20008322E0FBA3E0FAA3E0F922EBF0A3EAF0D3
:100A3000A3E9F022EC8EF0A4CCC5F0CCCDF8EFA465
:100A4000CEC5F02DFDE43CFCE8A42EC8C5F03DFD6C
:100A5000E43CFCEFA4FFE5F028FEE43DFDE43CFCB3
:100A600022EF4E6012EF60010EEDBB010B89828A0E
:100A700083F0A3DFFCDEFA2289F05007F709DFFCE0
:100A8000A9F022BBFEFCF309DFFCA9F0221229F732
:100A900070537F011232AE1229AB902E20E030E26B
:100AA000F9900223E025E0248FF582E434381229FE
:100AB0007C9001F312298E7F01123858900161E079
:100AC0007002A3E070031229BB1229BB90015DE004
:100AD0007002A3E0700F900161E0FFA3E090015D60
:100AE000CFF0A3EFF09001F51211C500002710E43C
:100AF000FF1232AEE49001F0F09001F0E0FF7E00D2
:100B0000C394057480948040030214CEEF2401FF47
:100B1000EE33FE1229CBFDD3EF9D7480F86E984022
:100B2000030214C5E4FF1229AB902E20E030E2F955
:100B3000900223E025E0248EF582E4343812297CEB
:100B40009001F112298EFF123858900161E0FEA346
:100B5000E0FFC390015EE09FFF90015DE09E900189
:100B6000F18FF0120F979001F1E0FAA3E0FB9001F2
:100B700063EAF0A3EBF074FFF509F50AF50BF50C49
:100B8000E4F50DF50EF50FF510F514F513F512F566
:100B9000119001CEEAF0A3EBF0E4F508C3E5089468
:100BA00008748094804003021419E50825E024C0ED
:100BB000F582E43401F583E0FEA3E0FF4E6002809D
:100BC000089001F1E0FEA3E0FF12296EEEF0A3EF22
:100BD000F012296EE0FEA3E0FFD3950EEE950D40D6
:100BE0000C850D0F850E108E0D8F0E800DD3EF9599
:100BF00010EE950F40048E0F8F10C3EF950AEE95FF
:100C000009500C85090B850A0C8E098F0A800DC3CB
:100C1000EF950CEE950B50048E0B8F0C12296E1273
:100C200029A2E5142FFFE5133EFEED3512FDEC354C
:100C300011122949050802137CAE0DAF0EEFFB120D
:100C40002935AE0FAF10122932AE09AF0A12293280
:100C5000AE0BAF0C122932FC780212118E9001D02B
:100C6000EEF0A3EFF090015FE0FEA3E0FF4E700E08
:100C70009001D0E0FCA3E0FDECFEEDFF801E7C00C7
:100C80007D03120EFA9001D1E02FFF9001D0E03EDB
:100C9000FE7802EFCEC313CE13D8F9FF90015FEEBA
:100CA000F0FAA3EFF0FB12299F9001FA1211B9EBB1
:100CB000FFEAFEE4FCFD9001FE1211B9E4FF1220F0
:100CC000E8900167EEF0A3EFF01229F71229FE90E9
:100CD0000167E0FEA3E02400FFEE34E8FE3395E078
:100CE000FDFC122A049001F0E004F00212D9902ECB
:100CF00023E4F01229FEE8C0E0E9C0E0EAC0E0EB3E
:100D0000C0E01229CBFFFBE4FAF9F81229E812350A
:100D1000E4D0E0FBD0E0FAD0E0F9D0E0F8122A0409
:100D2000E47F507EC3FDFC1229FED3121167400AF6
:100D30009001F51211C50000C3501229E8EC3350A0
:100D40000A9001F51211C50000000090016DE0FA53
:100D5000A3E0FB4A70051229E880227E007F02EBA7
:100D6000FDEAFC121214ECF8EDF9EEFAEFFB122991
:100D7000E812102FE47B03FAF9F81210D590016DF8
:100D8000EEF0A3EFF090015BE07002A3E0700F9033
:100D9000016DE0FFA3E090015BCFF0A3EFF09001C5
:100DA000261211AD12299F12102F9001261211B98F
:100DB00090012AE475F001120F9790012AE0FEA33A
:100DC000E0FFD3940AEE94004029EFFBEEFAE4F939
:100DD000F89001261211A11210D5900124EEF0A373
:100DE000EFF0E490012AF0A3F09001261211C50063
:100DF00000000090012CE07002A3E0703A90012402
:100E0000E0FEA3E0FFC3900168E09FFF900167E070
:100E10009EFE123875900122EEF0A3EFF0D39406F7
:100E2000EE9400401290012C7403F0A374E8F0A338
:100E3000E475F001120F9790016DE0FEA3E0FF2230
:100E4000122A7540030218FB122A10FDE5F0FC90EF
:100E50000102122A13FFAEF0D39DEE9C402E122AFF
:100E6000E1D3EF9430EE9475400C9001EE7475F080
:100E7000A37430F08010120FADC39DFEE5F09C907E
:100E800001EEF0A3CEF0E49001B88060120FADFF48
:100E9000AEF0C3ED9FFBEC9EFAD3EB9410EA9427DF
:100EA000400C9001EE7427F0A37410F08009C3ED9C
:100EB0009FFFEC9E122A6D9001EEE0FFA3E09001EF
:100EC000B8CFF0A3EFF0300718D3E0942C9001B81E
:100ED000E0940140139001BA7427F0A37410F080DD
:100EE00007E49001BAF0A3F0E49001EEF0A3F090D3
:100EF000013FE06048122A2AD39400EE6480948077
:100F00004014D3EF9523EE9522400B900215E4F0A8
:100F1000A37464F0801BD3900216E0940090021535
:100F2000E09400400C900105122A13FFE5F0122A0C
:100F30006D90021B740FF0A374A0F0800F90021943
:100F40007403F0A374E8F0E4FF1236E7D39001EFE6
:100F5000E094009001EEE06480948050030218D881
:100F6000E0FEA3E0FF900105122A21122A2AEE33A7
:100F700095E0FDFCE47BB87A88F9F8C3121167505C
:100F80000A9001EE7488F0A374B8F0D3900218E0D0
:100F90009400900217E0940050089000F1E0642063
:100FA000701B122A2AC39523EE95225010EF94004D
:100FB000EE6480948040367C007D0A802930072DC5
:100FC00090013FE07011122A2AC39533EE953250FA
:100FD0001C7C027DBC800F122A2AC39531EE95300D
:100FE000500B7C027DBC120F61EE122A6D90013F06
:100FF000E07003021860900219E07002A3E070191B
:101000009001EEE0FEA3E0FDEEFCE4FF1218FC9080
:1010100001EEEEF0A3EFF08035122A2AC3900135DD
:10102000E09FFF900134E09EFE123875D3EF9428C4
:10103000EE648094804017D390021AE094C8900226
:1010400019E09400400874FF75F09C120F9790010E
:1010500034E0FEA3E0FF7C007D0F121214ECF8EDEB
:10106000F9EEFAEFFB122A2AEE3395E0FDFC12109E
:101070002FE47B10FAF9F81210D5900134EE800BB2
:101080009001EEE0FFA3E0900134CFF0A3EFF090E9
:101090000134E0FEA3E0FFD39405EE9400400EEF90
:1010A0009410EE940050069001EEEE801690013000
:1010B000E0FEA3E0FF900135E02FFF900134E03E19
:1010C0009001EEF0A3EFF0D39001EFE094309001A7
:1010D000EEE0648094F540077475F0A37430F0E599
:1010E000DB540470369001EE122A199001EFE024CF
:1010F000A8FF9001EEE0801AE5DB5404701D122A6F
:1011000045900130122A1990010E122A1324A8FFCB
:10111000E5F03461FE90010B122A21229001F0EFDC
:10112000F0A3ECF0A3EDF0EF122EC5E0FEA3E0C3B8
:101130009DFFEE9CFE123875D3EF9428EE648094E8
:1011400080401C122E951211C500000000122E6165
:10115000E4F0122EDF122EC1EEF0A3EFF0803B126E
:101160002E50122EF540339001F1E0FCA3E0FDD3A8
:10117000EF9DEE9C400B9001F0E0122E88E04401C0
:10118000F09001F0E0FF122E54E0FAA3E0C39DEAD4
:101190009C5007122E87E04402F09001F0E0122EDE
:1011A0009AC083C0821211AD122EDFE4FCFD121032
:1011B0002FD082D0831211B99001F0E0FF122EE8F7
:1011C000E475F001120F97EF75F007A42497F582EC
:1011D000E43438F583E493FE740193FF9001F0E06A
:1011E000FDC454F02440F582E43402F583E0FAA310
:1011F000E0C39FEA9E5003021B68ED122EE8E0FE5A
:10120000A3E0FFFBEEFAE4F9F89001F0E0122E9A69
:101210001211A11210D59001F31211B9122E4AE049
:10122000FCA3E0C39FFFEC9EFE1238759001F7EE21
:10123000F0A3EFF09001F0E0FD75F007A42492F523
:1012400082E43438F583C37401939FE4939E401F76
:10125000ED122E54E0FEA3E04E60149001F0E0FB8E
:10126000122ED2E0FEA3E0C394B8EE940B501E9071
:1012700001F0E0FF122E54E0FCA3E04C7008EF12E6
:101280002ED2E4F0A3F0122E4AEE021B0FEB600305
:10129000021B159001F9F09001F7E0FEA3E0FFD3E7
:1012A0009450EE94004006A37408F080329001F050
:1012B000E0122E88E064036026D3EF943CEE9400A5
:1012C00040089001F97404F08015D39001F8E0947F
:1012D000289001F7E0940040069001F97402F012A2
:1012E0002E50E0FEA3E0FFE4FCFD122F01D312110B
:1012F0007D40119001F9E0FF122E50E48FF0120FA3
:1013000097021B4BD39001F8E094509001F7E094C2
:10131000004058122E50C083C082E0FEA3E0FF9030
:1013200001F9E0FDC3EF9DFFEE9400D082D083F081
:10133000A3EFF08036122E50E0FEA3E0FF4E700DBA
:10134000122F01EBFFEAFEE9FDE8FC80167C007D30
:1013500007121214122F0112102FE47B08FAF9F869
:101360001210D5122E50EEF0A3EFF0122E9512119E
:10137000C500000000122E61E4F09001F31211A1EB
:10138000122EC1EEF0A3EFF0122E50122EF5405F98
:101390009001F2E09FFF9001F1E09EFE12387590FF
:1013A00001F0E075F007A42494F582E43438F58365
:1013B000D37401939FE4939E400F9001F0E0FF12DD
:1013C0002E54122EA7E4F080269001F0E0FF75F075
:1013D00007A42496F582E43438F583E493FE122EB4
:1013E000B3E0C39E5009122E50122EA7E004F01253
:1013F0002EDF229001F07402F0A374BCF0D39001B0
:10140000BDE094009001BCE09400400C90010212F9
:101410002A13122AAB12101090020FE07002A3E000
:10142000600B9001F0E4F0A37464F0800B90001A5C
:10143000E0641170037420F090013FE060667E006C
:101440007D00122A51900102122A13FFC39001DF7E
:10145000E09FFF9001DEE095F0FE1238759001F2FA
:10146000EEF0A3EFF090011D122A839001E9E09FB6
:10147000FF9001E8E09EFE123875C39001F3E094FE
:10148000969001F2E094004003021D9FC3EF940F79
:10149000EE94004003021D9F900102122A13122AAB
:1014A000AB0210109001401211ADE8C0E0E9C0E0BD
:1014B000EAC0E0EBC0E0900102122A13FFAEF0E4B4
:1014C000FCFDD0E0FBD0E0FAD0E0F9D0E0F812105B
:1014D0002F9001401211B9900144E475F001120FF0
:1014E000979001F0122A83900149E09F900148E013
:1014F0009E5003021D9F9001401211A1ECC0E0ED2F
:10150000C0E0EEC0E0EFC0E0900144122AC2D0E09B
:10151000FFD0E0FED0E0FDD0E0FC1210D5900140FD
:101520001211B9200423900114122A1325E0FFE5BB
:10153000F033FE900102122A132FFFEE35F0FE1257
:101540002A10D39FE5F09E40189001401211A190FF
:101550000108122A21C204E49001D6F0A3F0021D72
:1015600088122A102432FFE435F0FEE4FCFD9001DD
:10157000401211ADD312117D900140400A122A0D84
:10158000122A5C7D208008122A0D122A5C7D04122A
:101590000F619001EEEEF0A3EFF0122A10C39FFF4F
:1015A000E5F09E8FF01210109001401211C500005E
:1015B0000000E4900144F0A3F0900148F0A3F02271
:1015C000D3900210E09F90020FE09E400AA3E09F9C
:1015D000F090020FE09EF09002141233FA90021382
:1015E000E09C400CA3E09FF0900213E09EF080028C
:1015F000D28AD3900212E09F900211E09E400AA38B
:10160000E09FF0900211E09EF012340C500312346F
:1016100044D3900216E09F900215E09E400AA3E09A
:101620009FF0900215E09EF0D3900218E09F900288
:1016300017E09E400AA3E09FF0900217E09EF0D3CF
:1016400090021EE09F90021DE09E400AA3E09FF0E2
:1016500090021DE09EF0D390021AE09F900219E0E4
:101660009E400AA3E09FF0900219E09EF0D3900202
:101670001CE09F90021BE09E400AA3E09FF09002B6
:101680001BE09EF0D39001BBE09F9001BAE09E402A
:101690000AA3E09FF09001BAE09EF090022012337E
:1016A000FA90021FE09C400AA3E09FF090021FE026
:1016B0009EF012341A5003123444D3900197E09FE5
:1016C000900196E09E400AA3E09FF0900196E09E74
:1016D000F090019912344A900198E09C400AA3E0EE
:1016E0009FF0900198E09EF0D39001ADE09F9001B3
:1016F000ACE09E400AA3E09FF09001ACE09EF0D3E6
:101700009001AFE09F9001AEE09E400AA3E09FF001
:101710009001AEE09EF090017412344A900173E0A3
:101720009C400AA3E09FF0900173E09EF0D39001EB
:10173000BDE09F9001BCE09E400AA3E09FF09001B5
:10174000BCE09EF012342850031234441234365058
:1017500003123444D390012DE09F90012CE09E4071
:101760000AA3E09FF090012CE09EF0D39001DDE011
:101770009F9001DCE09E400AA3E09FF09001DCE036
:101780009EF022C0E0C0F0C083C082C0D0E8C0E0BC
:10179000D2AFD3900210E0940090020FE09400408A
:1017A000031233F3D3900214E09401900213E094F7
:1017B0000040051233F38002D28AD3900212E094E3
:1017C00000900211E0940040031233F312340C50E5
:1017D00003123405D3900216E09400900215E094B1
:1017E0000040031233F3D3900218E09400900217E4
:1017F000E0940040031233F3D390021EE094009073
:10180000021DE0940040031233F3D390021AE094D7
:1018100000900219E0940040031233F3D390021CAD
:10182000E0940090021BE0940040031233F3D39045
:1018300001BBE094009001BAE0940040031233F33E
:10184000D3900220E0940190021FE0940040031224
:1018500033F312341A5003123405D3900197E094F5
:1018600000900196E0940040031233F3D390019965
:10187000E09401900198E0940040031233F3D39078
:1018800001ADE094009001ACE0940040031233F30A
:10189000D39001AFE094009001AEE09400400312B9
:1018A00033F3D3900174E09401900173E09400400D
:1018B000031233F3D39001BDE094009001BCE09497
:1018C0000040031233F3123428500312340512344B
:1018D000365003123405D390012DE0940090012C72
:1018E000E0940040031233F3D39001DDE0940090C4
:1018F00001DCE0940040031233F3D0E0F8D0D0D004
:1019000082D083D0F0D0E0329001F9EFF0122B3387
:10191000E070279001F9E0122B6A1211A1E4FBFAA2
:10192000F9F8C312117D60129001F9E0122B8812B0
:1019300011A1E4F8C312117D7057122B9C9001FA8B
:10194000122224EEF0A3EFF0ED122B33E06029ED2C
:1019500075F00AA42487F582E43438F583C083C087
:1019600082900223E0D082D083122B41400A900162
:10197000F9E0122B337405F0122AE8E0D3940074D6
:101980008094804006122B32E014F09001FE022277
:1019900020122B651211A19002021211B9122B878D
:1019A0001211A19002061211B99001F9E0122B79DF
:1019B0001211A1EFF9122BA5E9F812118EEFFBEE2F
:1019C000FAEDF9ECF8122BA512103C90020A121154
:1019D000B99002021211A19001FE1211AD12102F46
:1019E00090020A1211AD12102F122B96122B6512B3
:1019F0002BA2122B87122BA2122BAB1211AD12109D
:101A0000D5122B96900206122224EEF0A3EFF0EDF1
:101A100075F00AA42483F582E43438F583C083C0CA
:101A200082900223E0D082D083122B41400F122AF1
:101A3000E87405F0122B9C9002061211B990020670
:101A40001211A122EFFBEEFA1211A1C3EF9BFFEEE0
:101A50009AFE1238759001F9E0FD75F013A4242E5A
:101A6000F582E43402F583227FFF7A007900122D9B
:101A7000D77FEE7A017900122DD77E007F147D008A
:101A80007B017A02790E121241902DE0E4939000CE
:101A900001F09000047411F0A37422F0A37433F0E9
:101AA000902DE2E493900012F0902DE3E4939000E7
:101AB00014F09000FB7401F09000367410F0900068
:101AC000F1F0900024F0A37420F07B017A007940BB
:101AD00090010212120B7A00794490010812120B45
:101AE0007A00794290010512120B7A00792E90014A
:101AF0000B12120B7A00792A90010E12120B7A0047
:101B0000792890011112120B7A00796090011F124E
:101B1000120B7A0079809001B212120B7A007918B8
:101B200090013912120B7A00791B90013612120BB8
:101B30007A00793290011412120B7A007926900102
:101B40001712120B7A00793490011A12120B9001BD
:101B500014121202740175F09012101090011712F5
:101B60001202E475F0C812101090011A12120274D9
:101B70000175F02C12101075320175339075220129
:101B800075232C7530007531C87B017A007950902F
:101B9000013C12120B900052740FF0A3F0A37407D3
:101BA000F090005804F0A37406F0A304F090020F24
:101BB000F0A374D0F0E490020EF02290017F122A7C
:101BC000839404EE94005026122AA2EF25E0FFEE43
:101BD00033FE74772FF58274013EF583ECF0A3EDAC
:101BE000F090017FE475F001120F9702246D9001CF
:101BF000F27401F09001F2E0FFC3940474809480C9
:101C00005021EF122A8AFCA3E0FDEF25E02475F5B0
:101C100082E43401F583ECF0A3EDF09001F2E004EE
:101C2000F080D190013FE060028053900102122ABF
:101C300013FF122AA2C3EF9DFFE5F09CFE12387538
:101C4000C3EF9428EE648094805033122A10FFC3AF
:101C5000900101E09FFF900100E095F0FE123875C1
:101C6000C3EF9414EE6480948050059001088003C3
:101C7000900102122A13FF90017DE5F0800B900184
:101C800000E0FFA3E090017DCFF0A3EFF09001EE24
:101C90001211C500000000E49001F2F09001F2E0A2
:101CA000FFD3900180E09F90017FE0940040259059
:101CB00001EE1211AD9001F2E0122A8AFEA3E0FFBC
:101CC000E4FCFD12102F9001EE1211B99001F2E028
:101CD00004F080C89001EE1211A1ECC0E0EDC0E06C
:101CE000EEC0E0EFC0E090017F122AC2D0E0FFD04A
:101CF000E0FED0E0FDD0E0FC1210D59001EE121114
:101D0000B99001EE0211A1758D20438D20538D7F76
:101D1000E4F5B275B6FF75B7FF75B2A243B20153D1
:101D2000A8FB538B7F758B10438B08E58B20E70353
:101D30000080F8538B7F758B11438B08E58B20E770
:101D4000030080F8900251E5B5F0A3E5B4F0758B7F
:101D500001E4F5B21237E5E4F58D12383E4E70100D
:101D6000123835FD90011DE5F0F0A3EDF00225CD10
:101D7000123835FDC3EF9DFFEE95F0FE123875D396
:101D8000EF940AEE648094804024123835FFC390AB
:101D9000011EE09F90011DE095F05006E475F001F2
:101DA000800790011D74FFF5F0120F97803F1238E5
:101DB0003E7C007D03121214ECC0E0EDC0E0EEC0EA
:101DC000E0EFC0E0123835FFAEF0E4FCFDD0E0FB00
:101DD000D0E0FAD0E0F9D0E0F812102FE47B04FA5A
:101DE000F9F81210D590011DEEF0A3EFF090022348
:101DF000E0640112383EE4FCFD7B0AFAF9F81210A7
:101E0000D590019EEEF0A3EFF09001A0E07002A348
:101E1000E0700D90019EE0FFA3E0A3CFF0A3EFF0F0
:101E20009001A6E07002A3E0700F90011DE0FFA3F7
:101E3000E09001A6CFF0A3EFF0229001F5EFF09033
:101E40002E22E0FF9001F9E4F0A3EFF0758A5090A4
:101E50002E227401F01234C27404F0A3E4F0900155
:101E6000F6F09001F6E0FFC3940D74809480400377
:101E700002272EEFF87E02E4088006CEA2E713CEFA
:101E800013D8F8FF9001F7EEF0A3EFF04E70079033
:101E900001F7F0A304F0902E207401F0902E20E0C2
:101EA00030E2F99001F5E0FF902E001234C9E0FC19
:101EB000A3E0D394FEEC940740401234EAE0FEA382
:101EC000E0FF9001F7E0FCA3E0FDEF2DFFEE3CFE0C
:101ED000C3EF94FFEE94079001F5E075F002902EA9
:101EE00010500B1211F6EC8DF0120F97805012115A
:101EF000F67407F0A374FFF080449001F5E0FF1240
:101F000034C6E0FCA3E0FD9001F7E0FAA3E0FBD3C8
:101F1000ED9BEC9A40211234EAC083C082C3A3E057
:101F20009BFF0582D5820215831582E09AD082D06C
:101F300083F0A3EFF080071234C2E4F0A3F0902EF8
:101F400020E4F0F58D9001F6E004F00226429001C5
:101F5000F9A3E0902E22F0758A30227F907E017DD9
:101F60002C7C01122A75400302284A300720900178
:101F7000BAE07002A3E060087532137533888006FA
:101F80007532077533D0752206752340804B900259
:101F900023E0F9640170087E017F907C017D2C9024
:101FA00001D6E0FAA3E0FB2FF533EA3EF532CEECA2
:101FB000CEEDFFEB2FF523EA3EF522E9640170191F
:101FC000A3E0FEA3E0FF2533F533EE3532F532EF23
:101FD0002523F523EE3522F522900105122A13FF61
:101FE000AEF0C39533EE9532500F90013FE0601A8A
:101FF000C3EF9523EE95224011900217E07002A3E3
:10200000E0704590013F04F0803E9000F1E06420D4
:102010009002177005F0A3F080077401F0A374F428
:10202000F0E490013FF0900215122ACD122A10FF21
:102030009001DEE5F0F0A3EFF090011DE0FFA3E0DA
:102040009001E8CFF0A3EFF090013FE0FF60169021
:102050000024E0641090003670057410F080037462
:1020600020F0122AB790004BEFF022E4F50CF50BAC
:10207000F50AF509F50CF50BF50AF509F508122A2C
:10208000D7502AE50825E02424F8E6FE08E6FFE418
:10209000FCFDE50C2FFFE50B3EFEED350AFDEC35B2
:1020A000098F0C8E0B8D0AF509050880D1E47B059C
:1020B000FAF9F8AF0CAE0BAD0AAC091210D59001CD
:1020C00083EEF0A3EFF0E4750CA8750B61F50AF54B
:1020D00009F508122AD75055900183122A33C312EA
:1020E0002AE1123875D3EF940AEE6480948040128E
:1020F000900183E0FEA3E0FF90015BE0FCA3E0FD24
:10210000800790015B122A33C3122AE13395E0FD68
:10211000FCE50C2FFFE50B3EFEE50A3DFDE5093C25
:102120008F0C8E0B8D0AF50905080228B3E47F6039
:102130007EEAFDFCAB0CAA0BA90AA809D312117DFB
:10214000400BE4750C60750BEAF50AF509AE0BAFB0
:102150000C22CBEFCBEEFAC3E5149BFFE5139AFEFE
:10216000E5129400FDE51194008F148E138D12F585
:102170001122900223E025E0248EF582E43438F524
:1021800083E5822FF582E43583F583E49322E50825
:1021900025E024BEF582E43401F58322F583E4933F
:1021A00075F002902E001211F6E0FFA3E022CFF0AE
:1021B000A3EFF0902E20E4F0758A3075B293229050
:1021C0000167E0FEA3E0FFE4FCFD221237C8758A38
:1021D0005075B28F902E207401F0229001F3E0FF31
:1021E000A3E0900161CFF0A3EFF022900223E0245E
:1021F00053F582E43402F583E022F583E49324204E
:10220000F582E4342EF583229001F50211A17F04BA
:102210007E007D007B0122900223E0640122900178
:10222000F50211AD12102F9001F50211B91211A192
:10223000900108121202020FADE0FEA3E090010E21
:10224000FF121202EE8FF00210109001EEE0FEA3DA
:10225000E0FF22E50825E02424F8E6FE08E6FFE09A
:10226000FCA3E0FD22900105121202E4F5F0021039
:10227000107F0A7B017A017940021241C39FFFE57A
:10228000F09EFE9001EEF0A3EFF07C00229001EEB4
:10229000F0A3EFF022D3900210E0940090020FE040
:1022A000940022E0FEA3E0FFC32225E02477F5821C
:1022B000E43401F583E022121202746175F0A80281
:1022C0001010900100E0FCA3E0FD22FF9001081235
:1022D0001202E5F08FF0229002117403F0A3742033
:1022E000F022E0FEA3E0FBEEFAE4F9F822F0A3F01E
:1022F0009000367410F022C3E50894057480948031
:1023000022EF9DFFEE9CFE229001FE1211A1900192
:10231000F9E0FB75F013A42429F582E43402F58377
:102320001211B9EB75F013A42434F582E43402F5EC
:10233000831211A19001FE1211AD12104A9001F901
:10234000E0FB75F013A42425F582E43402F5831232
:1023500011B9EB75F013A4242DF582E43402F58352
:102360002275F0021211F6E493FE740193FFED75ED
:10237000F013A4242EF582E43402F583E0FCA3E0FC
:10238000D39FEC9E229001F9E0FB75F013A4242961
:10239000F582E43402F58322EB75F013A42430F5C2
:1023A00082E43402F58322EB75F013A42425F58230
:1023B000E43402F583229002061211B99001FE0264
:1023C00011A11211B99002060211A1EB75F013A42C
:1023D0002434F582E43402F58322E49001EEF0A384
:1023E000F090014C7404F0A374B0F090014A7404AE
:1023F000F0A374B0F01236287E007F047D007B01CC
:102400007A01795B1212417F011236AB902E14E0F3
:10241000FEA3E0FF1234BB90013C121202EE8FF0DB
:10242000121010E4FF1236AB1234CF9001EECDF053
:10243000A3EDF09001EEE0FCA3E0FDC39405EC9465
:10244000004009D3ED94F0EC94074017EF64014E7F
:10245000700590014C8004E490014AF0A3F0E4FF81
:102460001236AB902E23E4F01234CF9001EECDF073
:10247000A3EDF090001D7410F0EF64014E9001EE9A
:1024800070081234B61234F480061234B61234FED8
:10249000E03EFE1234DE22C0E0C083C082C0D075B0
:1024A000D018D2AFE5DB30E422D205C202E5DB3042
:1024B000E114123867E0F5DFEF64077065D28A90A7
:1024C0000007F0022D25C201022D28E5DB30E52CA6
:1024D0009000F0E064AA7017758A10F5DAC2AFF5C3
:1024E000B2F5A8F5A9F58B758E01758DC080FED269
:1024F00000300204C2028050C205804CC202E5DBFB
:1025000030E121E5DB30E040123867E0F5DFEF2411
:10251000F9600824EE700BD2068007D28A9000077B
:10252000E4F0802120010A7815A6DFD201D20280D2
:1025300017123867E5DFF0EF642470099002110488
:10254000F0A374F4F078150675DBFFD0D0D082D0FC
:1025500083D0E03212331F1237A87E007F2C7D001B
:102560007B017A01798612124112082EE490017FD4
:10257000F0A3F090016DF0A3F090016BF0A3F09048
:10258000016FF0A3F07F05123134900100E0FEA34B
:10259000E0A3122A20900100E0FEA3E0FF900108D2
:1025A000122A21122A4590010B122A97900111122A
:1025B0002A9790010E122A48E490013FF0FEFD1286
:1025C0002A51E490021DF0A3F090021B122ACDE4E0
:1025D00090004BF0122AB7900221E0700FC39002D6
:1025E00010E094F490020FE09401500A90020F74EE
:1025F00001F0A374F4F0227E007D007B0102124101
:102600000502AB5074AA7583F5758255A57455758E
:1026100083FA7582AAA574A57583F5758255A522DE
:102620000203030AB0B00BB6B60CFFFF09020208A2
:10263000FFFF0D77770E04041307071410101080A6
:10264000801500001600000192129212071B021B57
:10265000130F0404040404010101011108080F0808
:102660001208080F0603020402049001F31211A1DC
:102670009001F0E0C454F0243EF582E43402F58386
:1026800022EBC454F0243CF582E43402F583E4F0F8
:10269000A3F09001F0E0FFC454F02440F582E4344C
:1026A00002F583E4F0A3F0EFC454F02445F582E48E
:1026B0003402F583229001F0E0FBC454F02438F595
:1026C00082E43402F58322E0FDA3E09001F1CDF035
:1026D000A3EDF0EFC454F02444F582E43402F58312
:1026E000229001F0E0C454F02442F582E43402F573
:1026F0008322C454F02446F582E43402F583229008
:1027000001F1E0FEA3E0FF22C454F0243CF582E492
:102710003402F58322E0FEA3E0FFD39400EE9400A0
:10272000229001F30211AD787FE4F6D8FD75813374
:10273000022F51020000023023E493A3F8E493A394
:102740004003F68001F208DFF48029E493A3F854F3
:1027500007240CC8C333C4540F4420C8834004F476
:1027600056800146F6DFE4800B0102040810204089
:1027700080903756E47E019360BCA3FF543F30E560
:1027800009541FFEE493A360010ECF54C025E060FE
:10279000A840B8E493A3FAE493A3F8E493A3C8C5CC
:1027A00082C8CAC583CAF0A3C8C582C8CAC583CABD
:1027B000DFE9DEE780BEE49001F2F0A3F02006033B
:1027C00002302220077CC206900223E0902E12E005
:1027D000FFA3E09001F2CFF0A3EFF09001F2E0FF51
:1027E000A3E09001F0CFF0A3EFF0E4FF1236AB12BC
:1027F00034CF9001F2CDF0A3EDF0EF64014E9001E3
:10280000F270081234B61234F480061234B6123460
:10281000FEE03E9001EEF0A3EFF09001EEE0FEA3AB
:10282000E0FF1234DE900223E09001F0E0FFA3E02D
:10283000902E12CFF0A3EFF09002117403F0A37466
:1028400020F02212381C53A87F123801122248129D
:10285000366B12080E43A880E4F58D9000F17420C9
:10286000F01231B490020EE0146015146017146079
:102870003814604A240470E0122BBA12080380D87E
:10288000122D348031123785900020E0FF642060E3
:1028900008EF64216003123232900025E06410706A
:1028A000B790020E7404F080AF12080A90021174FF
:1028B00003F0A37420F090020E7402F0809A123597
:1028C0009C900025E06410608F120803808ACFF08E
:1028D000EFA3F0900105121202020FADC3FF9001A9
:1028E0008BE09F90018AE095F02290011DE0FEA30D
:1028F000E0FF22F090011DE0FFA3E022FE9001F333
:10290000E0FCA3E0FDC39FEC9E229001F3E094C89D
:102910009001F2E0940022E4F0A3F0A3F0A3F022EF
:102920009001AE7413F0A37488F0A3E4F0A322CF57
:102930009001A6F0A3EFF022FF90018AE5F0F0A34A
:10294000EFF0229001A9E09F9001A8E09E22900163
:10295000080212029001EEEFF0E4A3F09001EEE025
:10296000FFA3E0C39F502E12126D12384790016FE3
:10297000EEF0A3EFF08E2EF52FC87424C87400FC7F
:10298000E4FDFB7A007926FE7F0A120ED49001EF57
:10299000E004F080C712284B900100EEF0A3EFF0A6
:1029A00090016D122A83900133E09FFF900132E085
:1029B0009EFE1238757C007D05120F61900130EC8F
:1029C000F0A3EDF090016DE0FFA3E0900132CFF0B5
:1029D000A3EFF022900020E0642070037421F090B7
:1029E0000136121202120FAD641045F07003123559
:1029F00053900001E064AA70031234551235082088
:102A0000030890001AE06410700B90001A7411F023
:102A1000C2031208039000FBE06006E4F090020E8F
:102A2000F0900173E07004A3E064017015900173ED
:102A3000F0A3F09001BC7407F0A374D0F0E490020E
:102A40000EF030000CC2009002117401F0A374F477
:102A5000F022308A7890020FE07002A3E0706E904E
:102A60000173E07002A3E07064F5B2758D20438DB0
:102A700020758D9043A808D2AF758B4090012CE053
:102A8000FEA3E0FF4E6005758E148003758E3F2017
:102A9000002F20052CE5DB54047026758AA4200540
:102AA00020E5DB5404701AF5867587030000007575
:102AB0008601EF4E60047F2880027F7F7E00121D1A
:102AC000A0758B01758A3053A8F71237E522E4FE12
:102AD000EEC39407748094805038EE75F005A424FA
:102AE00028F582E4342EF583C083C082900223E06F
:102AF000D082D08375F0021211F6122961FDEE75B5
:102B0000F005A42427F582E4342E1229DAEDF00E24
:102B100080BEEF7010900223E0700A90014AE070CE
:102B200002A3E0600F1229F7701490014CE07002CC
:102B3000A3E0700A900223E0902E217412F0227E0E
:102B4000007F137D007B017A027925121241E4FB9C
:102B5000EBC39401748094805051900223E0FFEB0A
:102B600075F00AA42481F582E43438F583E5822FD8
:102B7000F582E43583F583E493FFE4FCFDFE122B3C
:102B8000781211B9122B781211A1EF04F87E00749B
:102B900001088005C333CE33CED8F9FFEE3395E07C
:102BA000FDFC122BAB1211B90B80A522900213E091
:102BB0007004A3E064017011900007E06004D28A01
:102BC000E4F0E4900213F0A3F0900036E0FF9000F0
:102BD000FFE06F603D900036E0FD9000FFF0900058
:102BE00007E0900224F0540FF0ED7E0064207005A1
:102BF000E04420800CEF64104E700B900224E044FF
:102C000010F0900007F0C28A9002137403F0A374CE
:102C1000E8F02274FFF5F0020F97EF2401FDE43E87
:102C2000FCD3E09D22E475F001020F97C3900149A7
:102C3000E094BC900148E0940222C3900195E09496
:102C400064900194E0940022C3900247E094B8900D
:102C50000246E0940B22C3900241E094F4900240BB
:102C6000E0940122EE8FF0020F97EF2401FDE43E85
:102C7000FCD3E09D229001EE7408F0A3E4F0A3746D
:102C80003FF0A374DFF0E4FDFCF9758A10538AEF7E
:102C9000009001EEE0FEA3E02DF582EE3CF583E42A
:102CA00093FF69F90DBD00010CBC37E5BDDFE29073
:102CB00001F0E0FEA3E0F5828E83E493FFE96F70FC
:102CC000089000017405F08005E4900001F0758A19
:102CD00030538AEF0022E0FEA3E0FF7C007D0A0271
:102CE0000EFA9001F5E0902E1075F0020211F690A8
:102CF0000223E0FF7E00902E12E0FDA3E02290016F
:102D000039121202EE8FF002101075F002EF902EC1
:102D1000100211F690014DE02FFF90014C2290011E
:102D20004BE02FFF90014A22900013E0FF90022217
:102D3000E06F600CEFF090021F7402F0A37458F083
:102D400090021FE07004A3E064017026900222E06C
:102D5000FF7E0064107002D207EF64204E7002C242
:102D600007900025E064106002D203E490021FF097
:102D7000A3F022E49001EEF0A3F0758A10538AEFDD
:102D800000122DE475EA81E4F5F6F5F475F308F523
:102D9000F275EB0700E5EC30E7FBAFF3EFFEADF2C9
:102DA000EDFF900136121202EE8FF0121010E4F5D2
:102DB000EC75EB30758A30538AEF0022900025E0E5
:102DC0006410703FF5B2758D20438D20538D7F5375
:102DD000A8F7F58BE5DB54047013200510F58AF590
:102DE00086758703000000758601758A30758B0132
:102DF0009002217401F09002117403F0A37420F08A
:102E00001237E522C2D5E830E70FB2D5E4C39BFB09
:102E1000E49AFAE499F9E498F8EC30E717B2D5129D
:102E2000361A1210D5E4C39BFBE49AFAE499F9E44C
:102E300098F880031210D530D50DE4C39FFFE49EAF
:102E4000FEE49DFDE49CFC22E4FFEFC3940D74803E
:102E50009480502E900223E0FEEF75F003A424012D
:102E6000F582E4342EF583E5822E122964FEEF7597
:102E7000F003A42400F582E4342E1229DAEEF00FD8
:102E800080C8902F56E0902E2BF022E4F5DA75DA08
:102E90004043DA2030881375D74075D6409002231E
:102EA00004F09000157440F0801175D74275D64239
:102EB000E4900223F09000157441F05392FE75DA0D
:102EC0005843A80275B80275F802229001F4EFF099
:102ED0001237C89001F4E0FF1232AE9001F4E0FF27
:102EE000900223E025E0248EF582E43438F583E572
:102EF000822FF582E43583F583E493FF12261A903E
:102F000001F4E0FF0238589001F0EFF07E007F10EE
:102F1000EEC0E0EFC0E07D00E075F010A42438F9C9
:102F2000740235F0FA7B01D0E0FFD0E0FE121241CE
:102F30009001F0E0122ED2740BF0A374B8F022903E
:102F4000015CE0243CFF90015BE034F6FEC390019D
:102F50006EE09F90016DE09E5014900173E070024E
:102F6000A3E0701190017304F0A374F4F022E490D4
:102F70000173F0A3F022C1054202530205C10641CC
:102F800002240041022300C10741022200C10101C5
:102F90001500C100C102C104C1034100FF1043027A
:102FA0004E0102510012082E7F0112313412239B70
:102FB000900102122A2112162012273B121BD31253
:102FC000338C12371F022F961229EE7A01795F1285
:102FD00012411229EE7A0179671212417F121229E9
:102FE000F07A0179BE021241EFF87401088002C341
:102FF00033D8FC42AB12295290388B93F452915241
:10300000935391DF22E5B254016006E5A854107095
:103010000F75B29275B67CE4F5B743B20143A810C0
:1030200022758A30538AEF758601758F05E4F5ABFA
:1030300075AC0F75913E759201D28A2290407F4304
:10304000EC40E493643B700300800653A87F00804B
:10305000FD53ECBF2290024E121202020FAD9001FE
:103060001DE0FEA3E0FF2290016DE0FEA3E0FF90D3
:10307000016BEEF0A3EFF02212295290388B9342AD
:10308000914288439120227815E6FF2400F582E4DE
:103090003400F58322EE30E707C3E49FFFE49EFE91
:1030A0002203030019001E0014001901022001026E
:1030B0000102009600960701F400000000000000E5
:1030C0000000000000000000000000000000000000
:1030D00000000000000000000000000000000000F0
:1030E00000000000000000000000000000000000E0
:1030F00000000000000000000000000000000000D0
:1037F000000000000000000000000000000000CBFE
:1038000000000000000000000000000000000000B8
:1038100000000000000000000000000000000000A8
:00000001FF
