:10000000004F000000060000D7560000000000006E
:1000100000000000000000000000000000000000E0
:10002000022CE79001F87401F022220229510236D5
:10003000200000020816D2AF32000002081ED2AF24
:10004000320000021CA4D2AF320000020826E49065
:1000500001D8F0A3F012221490018A12101E12315E
:100060006CE4FCFD120EA090018A12102A90018E01
:10007000E475F001120E08C3900191E094649001C0
:1000800090E094005003020AD490018A121012ECFE
:10009000C0E0EDC0E0EEC0E0EFC0E090018EE0FE19
:1000A000A3E0FBEEFAE4F9F8D0E0FFD0E0FED0E008
:1000B000FDD0E0FC120F4690018A12102A90018AAE
:1000C000121012900188EEF0A3EFF0A31210360088
:1000D00000000090018E1231999001F9E07002A3A6
:1000E000E06003020AD4900192E07002A3E0600392
:1000F000020AD490013FE0700302096E900184E08F
:100100007002A3E0701D900188E0FFA3E0900184DD
:100110001231501231AB9001947403F0A374E8F0E3
:1001200002097E900188E0FEA3E0FFC3900185E014
:100130009FFF900184E09EFE1236B19001AE121036
:1001400073EE8FF0120E81900182E0701D9001AE6F
:10015000123158C39406E5F094005008123155123C
:1001600031AB80069001827401F0900188E0FEA31B
:10017000E0FFD3900185E09F900184E09E4007E47A
:10018000900183F080189001837401F08010900139
:1001900084123199900182F090019612319A900167
:1001A00082E07003020AD4D3900187E094009001AA
:1001B00086E094005003020AD4123155FF90018664
:1001C000E0FCA3E0FDC3EF9DFFE5F09CFE1236B11D
:1001D0009001DAEEF0A3EFF0A3E4F074C81231530B
:1001E000D39494E5F09411400A9001DC7403F0A3D9
:1001F0007420F09001DAE0FFA3E09001B2123150D8
:10020000D312315F400CD39001DBE0946412318350
:10021000501312315512315E50369001DBE094C814
:10022000123183402BE4900182F0900184F012316E
:100230005312315E9001925008E4F0A374C8F0802C
:10024000077401F0A3742CF0E4900183F0020AD447
:10025000123155FFD3123160404AD312317D4044F0
:1002600090010812107374FF75F0F9120E49900195
:1002700098E475F007120E08C3900197E094E89097
:100280000196E09403501DA3E09407900196E0943A
:1002900000400A74FF75F0F9120E088007E490011F
:1002A00096F0A3F012315512315E504812317D4064
:1002B00043900108121073E475F007120E49900183
:1002C00096E475F007120E08C3900199E0945890D7
:1002D0000198E09402501DA3E09407900198E094E7
:1002E00000400A74FF75F0F9120E088007E49001CF
:1002F00098F0A3F090013FE060179001CEE070020B
:10030000A3E0700D1231759001CECFF0A3EFF08015
:100310001F90013FE07019123155C394F4E5F09439
:1003200001500DE49001CEF0A3F09001D2F0A3F0C3
:100330009001CEE07002A3E07003020BD812316C82
:10034000C39001CFE09FFF9001CEE09EFE1236B138
:100350009001D8EEF0A3EFF012316CD39001CFE012
:100360009F9001CEE09E400D9001D8E0FFA3E09069
:1003700001D0CF801A9001D8E0FEA3E0FFD394C84B
:10038000EE9400400EEE13FEEF13FF9001D0EEF05E
:10039000A3EFF0D39001D1E0940A9001D0E0940053
:1003A0004056123155D39488E5F0941340239001C0
:1003B000D3E094DC9001D2E09405503C9001D1E070
:1003C00025E0FE9001D0E0339001D2F0A3CEF08082
:1003D00027123155D394E8E5F09403401B9001D3E4
:1003E000E094F49001D2E09401500D9001D0E0FF30
:1003F000A3E0A3CFF0A3EFF090020DE0640160034F
:10040000020CC990013FE06003020CB69001A4E029
:100410007002A3E0700B1231759001A4CFF0A3EF2E
:10042000F012316CC39001A3E09F9001A2E09E50B6
:1004300004EE1231A39001A8E07002A3E0705A12FA
:10044000316CD31231B640129001A5E09FFF9001AC
:10045000A4E09E9001A6F0A3EFF0D39001A7E09452
:10046000049001A6E09400400812318A7464F08080
:1004700015D39001A7E094069001A6E094004006F1
:1004800012318A74C8F09001A87403F0A374E8F0E4
:100490001231759001A4CF800D12316CC31231B6A8
:1004A00050089001A4EEF0A3EFF09001AAE07002D2
:1004B000A3E070121231751231A2E49001ACF0A3E6
:1004C000F09001D480209001ACE0FFA3E09001D433
:1004D000CFF0A3EFF0221231751231A2E49001D4D3
:1004E000F0A3F09001ACF0A3F022E709F608DFFAE0
:1004F0008046E709F208DFFA803E88828C83E709AC
:10050000F0A3DFFA8032E309F608DFFA8078E30926
:10051000F208DFFA807088828C83E309F0A3DFFAA7
:10052000806489828A83E0A3F608DFFA8058898292
:100530008A83E0A3F208DFFA804C80D280FA80C67A
:1005400080D4806980F28033801080A680EA809A0F
:1005500080A880DA80E280CA803389828A83ECFABC
:10056000E493A3C8C582C8CCC583CCF0A3C8C58218
:10057000C8CCC583CCDFE9DEE7800D89828A83E4BD
:1005800093A3F608DFF9ECFAA9F0EDFB2289828A41
:1005900083ECFAE0A3C8C582C8CCC583CCF0A3C85D
:1005A000C582C8CCC583CCDFEADEE880DB89828ADD
:1005B00083E493A3F208DFF980CC88F0EF60010EAA
:1005C0004E60C388F0ED2402B4040050B9F582EB0C
:1005D0002402B4040050AF2323458223900D1A73E4
:1005E000EF8DF0A4A8F0CF8CF0A428CE8DF0A42E2F
:1005F000FE22C2D5EC30E709B2D5E4C39DFDE49CF0
:10060000FCEE30E715B2D5E4C39FFFE49EFE121066
:10061000DEC3E49DFDE49CFC80031210DE30D507B0
:10062000C3E49FFFE49EFE22C5F0F8A3E028F0C5D6
:10063000F0F8E582158270021583E038F022BB01E4
:100640000A89828A83E0F5F0A3E022500687F00948
:10065000E71922BBFE07E3F5F009E3192289828A34
:1006600083E493F5F074019322BB010789828A83A6
:10067000020E08500B09C5F027F7C5F01937F7220D
:10068000BBFE0D09F8E325F0F3C5F019E338F322BA
:10069000F889828A8374019325F0C5F0F8E49338D1
:1006A00022BB010A89828A83F0E5F0A3F02250067A
:1006B000F709A7F01922BBFE06F3E5F009F31922AA
:1006C000EF2BFFEE3AFEED39FDEC38FC22C3EF9B39
:1006D000FFEE9AFEED99FDEC98FC22E88FF0A4CC99
:1006E0008BF0A42CFCE98EF0A42CFC8AF0EDA42C59
:1006F000FCEA8EF0A4CDA8F08BF0A42DCC3825F028
:10070000FDE98FF0A42CCD35F0FCEB8EF0A4FEA912
:10071000F0EB8FF0A4CFC5F02ECD39FEE43CFCEA1F
:10072000A42DCE35F0FDE43CFC2275F00875820066
:10073000EF2FFFEE33FECD33CDCC33CCC58233C5A6
:10074000829BED9AEC99E58298400CF582EE9BFE37
:10075000ED9AFDEC99FC0FD5F0D6E4CEFBE4CDFA92
:10076000E4CCF9A88222B800C1B90059BA002DEC36
:100770008BF084CFCECDFCE5F0CBF97818EF2FFFCE
:10078000EE33FEED33FDEC33FCEB33FB10D7039976
:100790004004EB99FB0FD8E5E4F9FA227818EF2F23
:1007A000FFEE33FEED33FDEC33FCC933C910D70542
:1007B0009BE99A4007EC9BFCE99AF90FD8E0E4C961
:1007C000FAE4CCFB2275F010EF2FFFEE33FEED3391
:1007D000FDCC33CCC833C810D7079BEC9AE89940BE
:1007E0000AED9BFDEC9AFCE899F80FD5F0DAE4CD20
:1007F000FBE4CCFAE4C8F922EB9FF5F0EA9E42F064
:10080000E99D42F0EC6480C864809845F022EB9F3B
:10081000F5F0EA9E42F0E99D42F0E89C45F022E8BE
:10082000600FECC313FCED13FDEE13FEEF13FFD8C6
:10083000F122E0FCA3E0FDA3E0FEA3E0FF22E0F84C
:10084000A3E0F9A3E0FAA3E0FB22ECF0A3EDF0A310
:10085000EEF0A3EFF022A8828583F0D083D082123D
:10086000104D12104D12104D12104DE473E493A36D
:10087000C583C5F0C583C8C582C8F0A3C583C5F0CC
:10088000C583C8C582C822A42582F582E5F03583D8
:10089000F58322E0FBA3E0FAA3E0F922EBF0A3EA60
:1008A000F0A3E9F022EC8EF0A4CCC5F0CCCDF8EFAB
:1008B000A4CEC5F02DFDE43CFCE8A42EC8C5F03D57
:1008C000FDE43CFCEFA4FFE5F028FEE43DFDE43C44
:1008D000FC22EF4E6012EF60010EEDBB010B89822E
:1008E0008A83F0A3DFFCDEFA2289F05007F709DFE4
:1008F000FCA9F022BBFEFCF309DFFCA9F022BC003E
:100900000BBE0029EF8DF084FFADF022E4CCF8752A
:10091000F008EF2FFFEE33FEEC33FCEE9DEC984039
:1009200005FCEE9DFE0FD5F0E9E4CEFD22EDF8F5D5
:10093000F0EE8420D21CFEADF075F008EF2FFFED35
:1009400033FD4007985006D5F0F222C398FD0FD52D
:10095000F0EA227F011230DC122824902E20E030B1
:10096000E2F990020DE025E024D4F582E434361259
:1009700028019001DD1228137F011228604E7008B3
:100980009001DD12286C801E7C007D03120DC0904A
:1009900001DEE02FFF9001DDE03EFE7802EFCEC3E6
:1009A00013CE13D8F9FFEE1227F94E70031227F178
:1009B0001227F1900159E07002A3E0700F90015DE1
:1009C000E0FFA3E0900159CFF0A3EFF09001DF1218
:1009D000103600002710E4FF1230DCE49001DAF05A
:1009E0009001DAE0FF7E00C394037480948040039A
:1009F0000213BCEF2401FFEE33FE122834FDD3EFC7
:100A00009D7480F86E9840030213B3E4FF1228240B
:100A1000902E20E030E2F990020DE025E024D3F59D
:100A200082E434361228019001DB122813FF1228C9
:100A300060C390015AE09FFF900159E09E9001DB56
:100A40008FF0120E089001DBE0FAA3E0FB90015F4B
:100A5000EAF0A3EBF074FFF523F524F525F526E481
:100A6000F527F528F529F52AF52EF52DF52CF52B8A
:100A70009001CAEAF0A3EBF0E4F522C3E522940862
:100A80007480948040030212FDE52225E024BCF529
:100A900082E43401F583E0FEA3E0FF4E60028008AB
:100AA0009001DBE0FEA3E0FF1227D8EEF0A3EFF009
:100AB0001227D8E0FEA3E0FFD39528EE9527400C3F
:100AC00085272985282A8E278F28800DD3EF952A00
:100AD000EE952940048E298F2AC3EF9524EE9523A5
:100AE000500C8523258524268E238F24800DC3EF6B
:100AF0009526EE952550048E258F261227D8E0FEE8
:100B0000A3E0FFE4FCFDE52E2FFFE52D3EFEED35D5
:100B10002CFDEC352B1227B3052202125BAE27AF5A
:100B200028EFFB12279FAE29AF2A12279CAE23AFD6
:100B30002412279CAE25AF2612279CFC7802120FA8
:100B4000FF9001CCEEF0A3EFF090015BE0FEA3E09C
:100B5000FF4E70089001CC12286C801E7C007D0333
:100B6000120DC09001CDE02FFF9001CCE03EFE7849
:100B700002EFCEC313CE13D8F9FF90015BEEF0FA6B
:100B8000A3EFF0FB1227E9FFE4FCFD9001E4121053
:100B90002AEBFFEAFEE4FCFD9001E812102AE4FFD4
:100BA000121E17900163EEF0A3EFF090020DE064C7
:100BB000019001DF700B1227E62400FFEE34F08075
:100BC000091227E62400FFEE34E8FE3395E0FDFC31
:100BD0001228769001DAE004F00211C0902E23E48E
:100BE000F09001DF12101EE8C0E0E9C0E0EAC0E0CA
:100BF000EBC0E0122834FFFBE4FAF9F81228511296
:100C0000341FD0E0FBD0E0FAD0E0F9D0E0F81228B1
:100C100076E47F507EC3FDFC9001DF12101ED312DC
:100C20000FD8400A9001DF1210360000C35012287E
:100C300051EC33500A9001DF121036000000009092
:100C40000169E0FAA3E0FB4A700512285180227E78
:100C5000007F02EBFDEAFC121085ECF8EDF9EEFAEC
:100C6000EFFB122851120EA0E47B03FAF9F8120FE1
:100C700046900169EEF0A3EFF0900157E07002A3F7
:100C8000E0700F900169E0FFA3E0900157CFF0A35F
:100C9000EFF09001261227E6FFE4FCFD120EA09073
:100CA000012612102A90012AE475F001120E089014
:100CB000012AE0FEA3E0FFD3940AEE94004029EF5E
:100CC000FBEEFAE4F9F8900126121012120F46908A
:100CD0000124EEF0A3EFF0E490012AF0A3F09001DC
:100CE000261210360000000090012CE07002A3E0F4
:100CF000703A900124E0FEA3E0FFC3900164E09FFE
:100D0000FF900163E09EFE1236B1900122EEF0A347
:100D1000EFF0D39406EE9400401290012C7403F08F
:100D2000A374E8F0A3E475F001120E08900169E0E5
:100D3000FEA3E0FF22122BC74003021820900108F7
:100D4000122BA3FDE5F0FC122BA0FFAEF0D39DEE1D
:100D50009C402E122C30D3EF9430EE9475400C90C2
:100D600001D87475F0A37430F08010120E1EC39D6C
:100D7000FEE5F09C9001D8F0A3CEF0E49001B480A1
:100D800060120E1EFFAEF0C3ED9FFBEC9EFAD3EB9C
:100D90009410EA9427400C9001D87427F0A37410A3
:100DA000F08009C3ED9FFFEC9E122BE39001D8E089
:100DB000FFA3E09001B4CFF0A3EFF0300718D3E029
:100DC000942C9001B4E0940140139001B67427F084
:100DD000A37410F08007E49001B6F0A3F0E4900152
:100DE000D8F0A3F090013FE0604A122B97D3940013
:100DF000EE648094804014D3EF9509EE9508400B83
:100E00009001FFE4F0A37464F0801BD3900200E033
:100E100094009001FFE09400400C900105122BA378
:100E2000FFE5F0122BE3D204900205740FF0A374D7
:100E3000A0F0800F9002037403F0A374E8F0E4FFC5
:100E4000123522D39001D9E094009001D8E064805B
:100E5000948050030217F5E0FEA3E0FF9001051215
:100E60002B8E122B97EE3395E0FDFCE47BB87A884D
:100E7000F9F8C3120FD8500A9001D87488F0A374FF
:100E8000B8F0D3900202E09400900201E094005088
:100E9000089000F1E064207044122B97C39509EE8E
:100EA00095085039E509249CFDE50834FFFCD3EF93
:100EB0009DEE9C40067C007D03804BE5092438FDB7
:100EC000E50834FFFC122B97D39DEE9C40067C0076
:100ED0007D048007122B977C007D0A802930072C27
:100EE00090013FE07011122B97C39515EE951450A9
:100EF0001B7C027DBC800F122B97C39513EE9512BD
:100F0000500A7C027DBC120DD2122BE290013FE010
:100F1000700302177A900203E07002A3E07014904D
:100F200001D8E0FEA3E0FDEEFCE4FF121821122B35
:100F3000E28035122B97C3900135E09FFF9001347A
:100F4000E09EFE1236B1D3EF9428EE648094804088
:100F500017D3900204E094C8900203E09400400884
:100F600074FF75F09C120E08900134E0FEA3E0FFC0
:100F70007C007D0F121085ECF8EDF9EEFAEFFB1214
:100F80002B97EE3395E0FDFC120EA0E47B10FAF9EE
:100F9000F8120F46900134EE800B9001D8E0FFA3C9
:100FA000E0900134CFF0A3EFF0900134E0FEA3E035
:100FB000FFD39405EE9400400EEF9410EE94005091
:100FC000069001D8EE8016900130E0FEA3E0FF907D
:100FD0000135E02FFF900134E03E9001D8F0A3EFFF
:100FE000F0D39001D9E094309001D8E0648094F57A
:100FF00040077475F0A37430F0E5DB5404704112BF
:101000002B9790010E122B8E9001D9E024A8FF900F
:1010100001D8E08022E5DB54047025122BBB90013F
:1010200030E0FEA3E0FF90010E122B8E90010E1215
:101030002BA324A8FFE5F03461FE90010B122B8E48
:10104000229001DAEFF0A3ECF0A3EDF0EF122A8981
:10105000E0FEA3E0C39DFFEE9CFE1236B1D3EF94F9
:1010600028EE64809480401C122A59121036000029
:101070000000122A25E4F0122AA3122A85EEF0A31A
:10108000EFF0803B122A14122AB940339001DBE0C2
:10109000FCA3E0FDD3EF9DEE9C400B9001DAE01243
:1010A0002A4CE04401F09001DAE0FF122A18E0FA3D
:1010B000A3E0C39DEA9C5007122A4BE04402F09043
:1010C00001DAE0122A5EC083C08212101E122AA327
:1010D000E4FCFD120EA0D082D08312102A9001DA17
:1010E000E0FF122AACE475F001120E08EF75F0076C
:1010F000A424DCF582E43436F583E493FE74019392
:10110000FF9001DAE0FDC454F0242AF582E43402B1
:10111000F583E0FAA3E0C39FEA9E5003021A8DED27
:10112000122AACE0FEA3E0FFFBEEFAE4F9F890012E
:10113000DAE0122A5E121012120F469001DD121030
:101140002A122A0EE0FCA3E0C39FFFEC9EFE12369B
:10115000B19001E1EEF0A3EFF09001DAE0FD75F05F
:1011600007A424D7F582E43436F583C37401939F32
:10117000E4939E401FED122A18E0FEA3E04E601497
:101180009001DAE0FB122A96E0FEA3E0C394B8EEE9
:10119000940B501E9001DAE0FF122A18E0FCA3E045
:1011A0004C7008EF122A96E4F0A3F0122A0EEE0219
:1011B0001A34EB6003021A3A9001E3F09001E1E087
:1011C000FEA3E0FFD39450EE94004006A37408F011
:1011D00080329001DAE0122A4CE064036026D3EFFB
:1011E000943CEE940040089001E37404F08015D321
:1011F0009001E2E094289001E1E094004006900123
:10120000E37402F0122A14E0FEA3E0FFE4FCFD12F6
:101210002AC5D3120FEE40119001E3E0FF122A1409
:10122000E48FF0120E08021A70D39001E2E094509D
:101230009001E1E094004058122A14C083C082E07B
:10124000FEA3E0FF9001E3E0FDC3EF9DFFEE9400FD
:10125000D082D083F0A3EFF08036122A14E0FEA3F0
:10126000E0FF4E700D122AC5EBFFEAFEE9FDE8FC37
:1012700080167C007D07121085122AC5120EA0E48C
:101280007B08FAF9F8120F46122A14EEF0A3EFF0D9
:10129000122A5912103600000000122A25E4F0909C
:1012A00001DD121012122A85EEF0A3EFF0122A14BB
:1012B000122AB9405F9001DCE09FFF9001DBE09EC5
:1012C000FE1236B19001DAE075F007A424D9F58258
:1012D000E43436F583D37401939FE4939E400F90DA
:1012E00001DAE0FF122A18122A6BE4F0802690013E
:1012F000DAE0FF75F007A424DBF582E43436F583E9
:10130000E493FE122A77E0C39E5009122A14122A8F
:101310006BE004F0122AA322D39001FAE09F90011F
:10132000F9E09E400AA3E09FF09001F9E09EF09062
:1013300001FE1232359001FDE09C400CA3E09FF0CD
:101340009001FDE09EF08002D28AD39001FCE09FE4
:101350009001FBE09E400AA3E09FF09001FBE09E1D
:10136000F0123247500312327FD3900200E09F9078
:1013700001FFE09E400AA3E09FF09001FFE09EF095
:10138000D3900202E09F900201E09E400AA3E09FFA
:10139000F0900201E09EF0D3900208E09F900207D7
:1013A000E09E400AA3E09FF0900207E09EF0D390F9
:1013B0000204E09F900203E09E400AA3E09FF090A9
:1013C0000203E09EF0D3900206E09F900205E09EAB
:1013D000400AA3E09FF0900205E09EF0D39001B791
:1013E000E09F9001B6E09E400AA3E09FF09001B616
:1013F000E09EF090020A123235900209E09C400A09
:10140000A3E09FF0900209E09EF0123255500312C3
:10141000327FD3900193E09F900192E09E400AA317
:10142000E09FF0900192E09EF0900195123285903D
:101430000194E09C400AA3E09FF0900194E09EF0AC
:10144000D39001A9E09F9001A8E09E400AA3E09FED
:10145000F09001A8E09EF0D39001ABE09F9001AA2C
:10146000E09E400AA3E09FF09001AAE09EF0900168
:101470007012328590016FE09C400AA3E09FF090CB
:10148000016FE09EF0D39001B9E09F9001B8E09E1B
:10149000400AA3E09FF09001B8E09EF01232635042
:1014A0000312327F123271500312327FD390012D1A
:1014B000E09F90012CE09E400AA3E09FF090012C59
:1014C000E09EF022C0E0C0F0C083C082C0D0E8C07F
:1014D000E0D2AFD39001FAE094009001F9E09400DB
:1014E000400312322ED39001FEE094019001FDE002
:1014F0009400400512322E8002D28AD39001FCE083
:1015000094009001FBE09400400312322E12324707
:101510005003123240D3900200E094009001FFE0AB
:101520009400400312322ED3900202E09400900205
:1015300001E09400400312322ED3900208E09400A0
:10154000900207E09400400312322ED3900204E090
:101550009400900203E09400400312322ED39002D4
:1015600006E09400900205E09400400312322ED36E
:101570009001B7E094009001B6E09400400312326D
:101580002ED390020AE09401900209E094004003F7
:1015900012322E1232555003123240D3900193E092
:1015A0009400900192E09400400312322ED39001F7
:1015B00095E09401900194E09400400312322ED300
:1015C0009001A9E094009001A8E094004003123239
:1015D0002ED39001ABE094009001AAE09400400368
:1015E00012322ED3900170E0940190016FE09400CC
:1015F000400312322ED39001B9E094009001B8E07C
:101600009400400312322E12326350031232401201
:1016100032715003123240D390012DE094009001BA
:101620002CE09400400312322ED0E0F8D0D0D082CB
:10163000D083D0F0D0E0329001E3EFF01228CAE07E
:1016400070279001E3E0122901121012E4FBFAF96D
:10165000F8C3120FEE60129001E3E012291F12107E
:1016600012E4F8C3120FEE70571229339001E412FE
:101670001F53EEF0A3EFF0ED1228CAE06029ED75DC
:10168000F00AA424C3F582E43436F583C083C08213
:1016900090020DE0D082D0831228D8400A9001E356
:1016A000E01228CA7405F012287FE0D394007480F9
:1016B000948040061228C9E014F09001E8021F4F00
:1016C0001228FC1210129001EC12102A12291E127C
:1016D00010129001F012102A9001E3E0122910126A
:1016E0001012EFF912293CE9F8120FFFEFFBEEFAA6
:1016F000EDF9ECF812293C120EAD9001F412102A0B
:101700009001EC1210129001E812101E120EA0901F
:1017100001F412101E120EA012292D1228FC1229FB
:101720003912291E12293912294212101E120F468F
:1017300012292D9001F0121F53EEF0A3EFF0ED757A
:10174000F00AA424BFF582E43436F583C083C08256
:1017500090020DE0D082D0831228D8400F12287F4B
:101760007405F01229339001F012102A9001F01242
:10177000101222EFFBEEFA121012C3EF9BFFEE9A4B
:10178000FE1236B19001E3E0FD75F013A42418F5C4
:1017900082E43402F583227FFF7A0079001236C793
:1017A0007FD87A0179001236C77E007F147D007BD6
:1017B000017A0179F81210B2902DE0E493900001C3
:1017C000F09000047411F0A37422F0A37433F0902D
:1017D0002DE2E493900012F0902DE3E49390001436
:1017E000F09000FB7401F09000367410F09000F15E
:1017F000F0900024F0A37420F07B017A00794090EF
:10180000010212107C7A00794490010812107C7A4F
:1018100000794290010512107C7A00792E90010B1C
:1018200012107C7A00792A90010E12107C7A0079CD
:101830002890011112107C7A00796090011F12101B
:101840007C7A0079809001AE12107C7A0079189031
:10185000013912107C7A00791B90013612107C7AC3
:1018600000793290011412107C7A007926900117C9
:1018700012107C7A00793490011A12107C900114B5
:10188000121073740275F058120E81900117121025
:1018900073740175F02C120E8190011A121073747A
:1018A0000175F0F4120E8175140275155875080152
:1018B0007509F475120175132C7B017A007950902B
:1018C000013C12107C9000527418F0A3F0A374072E
:1018D000F090005814F0A37404F0A37407F0900182
:1018E000F9F0A374D0F0E49001F8F02290017B129B
:1018F0002C379404EE94005022122BF6EF25E0FFD3
:10190000EE33FE74732FF58274013EF583ECF0A381
:10191000EDF090017B122C0A02219A9001DC7401F7
:10192000F09001DCE0FFC39404748094805021EFB8
:10193000122BD5FCA3E0FDEF25E02471F582E43401
:1019400001F583ECF0A3EDF09001DCE004F080D130
:1019500090013FE060028053122BA0FF122BF6C3D0
:10196000EF9DFFE5F09CFE1236B1C3EF9428EE64C4
:101970008094805036900108122BA3FFC390010180
:10198000E09FFF900100E095F0FE1236B1C3EF94A6
:1019900014EE648094805005900108800390010249
:1019A000122BA3FF900179E5F0800B900100E0FF7E
:1019B000A3E0900179CFF0A3EFF09001D812103698
:1019C00000000000E49001DCF09001DCE0FFD39027
:1019D000017CE09F90017BE0940040259001D812AB
:1019E000101E9001DCE0122BD5FEA3E0FFE4FCFD0D
:1019F000120EA09001D812102A9001DCE004F080B1
:101A0000C89001D8121012ECC0E0EDC0E0EEC0E0CA
:101A1000EFC0E090017B122C11D0E0FFD0E0FED0AF
:101A2000E0FDD0E0FC120F469001D812102A900180
:101A3000D8021012758D20438D20538D7FE4F5B2AE
:101A400075B6FF75B7FF75B2A243B20153A8FB5339
:101A50008B7F758B10438B08E58B20E7030080F8A4
:101A6000538B7F758B11438B08E58B20E703008038
:101A7000F890023BE5B5F0A3E5B4F0758B01E4F511
:101A8000B2123620E4F58D90011DE0FEA3E0FF4E7A
:101A90007010123670FD90011DE5F0F0A3EDF0021C
:101AA00022FD123670FDC3EF9DFFEE95F0FE12365B
:101AB000B1D3EF940AEE648094804024123670FF14
:101AC000C390011EE09F90011DE095F05006E47563
:101AD000F001800790011D74FFF5F0120E08803DA3
:101AE00090011D7D03123679ECC0E0EDC0E0EEC040
:101AF000E0EFC0E0123670FFAEF0E4FCFDD0E0FB9A
:101B0000D0E0FAD0E0F9D0E0F8120EA0E47B04FABD
:101B1000F9F8120F4690011DEEF0A3EFF090020DC0
:101B2000E0640190011D700A7D05123679E47B6442
:101B3000800AE0FEA3E0FFE4FCFD7B0AFAF9F8125C
:101B40000F4690019AEEF0A3EFF090019CE0700236
:101B5000A3E0700D90019AE0FFA3E0A3CFF0A3EF04
:101B6000F09001A2E07002A3E0700F90011DE0FF71
:101B7000A3E09001A2CFF0A3EFF0229001D874026D
:101B8000F0A374BCF0D39001B9E094009001B8E0E8
:101B900094004011122BA0FF900108121073E5F081
:101BA0008FF0120E819001F9E07002A3E0600B90BB
:101BB00001D8E4F0A37464F0800B90001AE0641183
:101BC00070037420F090013FE0600F7E007F0A7D7B
:101BD000007B017A0179400210B290014012101E80
:101BE000E8C0E0E9C0E0EAC0E0EBC0E0122BA0FFF3
:101BF000AEF0E4FCFDD0E0FBD0E0FAD0E0F9D0E0BC
:101C0000F8120EA090014012102A900144122C0AE2
:101C10009001D8122C37900149E09F900148E09E36
:101C2000500302249F900140121012ECC0E0EDC05E
:101C3000E0EEC0E0EFC0E0900144122C11D0E0FFD4
:101C4000D0E0FED0E0FDD0E0FC120F469001401243
:101C5000102A900108122BA32432FFE435F0FEE491
:101C6000FCFD90014012101ED3120FEE402E900189
:101C7000F9E07002A3E07024200421900146122CA8
:101C80000BD3900147E09405900146E09400401882
:101C9000122B85E4900146F0A3F0800C122B85E412
:101CA000900146F0A3F0C2049001401210360000EB
:101CB0000000E4900144F0A3F0900148F0A3F0226A
:101CC0009001DFEFF0902E22E0FF9001E3E4F0A31B
:101CD000EFF0758A50902E227401F01232FD7404D8
:101CE000F0A3E4F09001E0F09001E0E0FFC3940D78
:101CF0007480948040030225B4EFF87E02E40880EB
:101D000006CEA2E713CE13D8F8FF9001E1EEF0A3C0
:101D1000EFF04E70079001E1F0A304F0902E2074D4
:101D200001F0902E20E030E2F99001DFE0FF902EEC
:101D300000123304E0FCA3E0D394FEEC940740408F
:101D4000123325E0FEA3E0FF9001E1E0FCA3E0FDFB
:101D5000EF2DFFEE3CFEC3EF94FFEE94079001DF02
:101D6000E075F002902E10500B121067EC8DF012FF
:101D70000E0880501210677407F0A374FFF08044BF
:101D80009001DFE0FF123301E0FCA3E0FD9001E1F0
:101D9000E0FAA3E0FBD3ED9BEC9A4021123325C07F
:101DA00083C082C3A3E09BFF0582D5820215831501
:101DB00082E09AD082D083F0A3EFF080071232FD48
:101DC000E4F0A3F0902E20E4F0F58D9001E0E00423
:101DD000F00224C89001E3A3E0902E22F0758A302F
:101DE000227F587E027DF47C01122BC7400302261D
:101DF000B43007209001B6E07002A3E060087514CB
:101E00001375158880067514077515D07508067545
:101E10000940804B90020DE0F9640170087E027F5A
:101E2000587C017DF49001D2E0FAA3E0FB2FF51578
:101E3000EA3EF514CEECCEEDFFEB2FF509EA3EF5C8
:101E400008E964017019A3E0FEA3E0FF2515F5156C
:101E5000EE3514F514EF2509F509EE3508F508906F
:101E60000105122BA3FFAEF0C39515EE9514500F8C
:101E700090013FE0601AC3EF9509EE95084011907C
:101E80000201E07002A3E0702990013F04F080227B
:101E90009000F1E064209002017005F0A3F080074B
:101EA0007401F0A374F4F0E490013FF09001FF128C
:101EB0002C1C90013FE0FF6016900024E06410901D
:101EC000003670057410F080037420F0122BFF9020
:101ED000004BEFF022E4F526F525F524F523F52651
:101EE000F525F524F523F522122C26502AE5222586
:101EF000E0240AF8E6FE08E6FFE4FCFDE5262FFFF5
:101F0000E5253EFEED3524FDEC35238F268E258D0F
:101F100024F523052280D1E47B03FAF9F8AF26AE3D
:101F200025AD24AC23120F4690017FEEF0A3EFF015
:101F3000E47526A8752561F524F523F522122C26D3
:101F4000505590017F122BA9C3122C301236B1D3F9
:101F5000EF940AEE64809480401290017FE0FEA32B
:101F6000E0FF900157E0FCA3E0FD800790015712CD
:101F70002BA9C3122C303395E0FDFCE5262FFFE59D
:101F8000253EFEE5243DFDE5233C8F268E258D2450
:101F9000F523052202271DE47F607EEAFDFCAB26C7
:101FA000AA25A924A823D3120FEE400BE4752660BE
:101FB0007525EAF524F523AE25AF2622CBEFCBEE2F
:101FC000FAC3E52E9BFFE52D9AFEE52C9400FDE576
:101FD0002B94008F2E8E2D8D2CF52B2290020DE050
:101FE00025E024D3F582E43436F583E5822FF582AB
:101FF000E43583F583E49322E52225E024BAF582D3
:10200000E43401F5832212101E900163E0FEA3E088
:10201000229001DDE0FFA3E0CF90015DF0A3EFF09F
:1020200022F583E49375F002902E00121067E0FF12
:10203000A3E022CFF0A3EFF0902E20E4F0758A30D9
:1020400075B29322123603758A5075B28F902E2086
:102050007401F02290020DE0243DF582E43402F593
:1020600083E022F583E4932420F582E4342EF58383
:10207000229001DF0210127F047E007D007B01228E
:1020800012369490015DE0FEA3E0FF22E0FCA3E0A5
:10209000FDECFEEDFF22120EA09001DF02102A904F
:1020A00001E81210129001E3E0FB75F013A4241371
:1020B000F582E43402F58312102AEB75F013A424A0
:1020C0001EF582E43402F5831210129001E812101A
:1020D0001E120EBB9001E3E0FB75F013A4240FF574
:1020E00082E43402F58312102AEB75F013A424174E
:1020F000F582E43402F5832275F002121067E4934E
:10210000FE740193FFED75F013A42418F582E434F6
:1021100002F583E0FCA3E0D39FEC9E229001E3E074
:10212000FB75F013A42413F582E43402F58322EB4B
:1021300075F013A4241AF582E43402F58322EB75BA
:10214000F013A4240FF582E43402F583229001F009
:1021500012102A9001E802101212102A9001F002C7
:102160001012EB75F013A4241EF582E43402F583FB
:1021700022C0E0C083C082C0D075D018D2AFE5DBEA
:1021800030E422D205C202E5DB30E1141236A3E0CE
:10219000F5DFEF64077065D28A900007F00229FF2F
:1021A000C201022A02E5DB30E52C9000F0E064AACF
:1021B0007017758A10F5DAC2AFF5B2F5A8F5A9F572
:1021C0008B758E01758DC080FED200300204C20274
:1021D0008050C205804CC202E5DB30E121E5DB30F6
:1021E000E0401236A3E0F5DFEF24F9600824EE703A
:1021F0000BD2068007D28A900007E4F080212001EC
:102200000A7816A6DFD201D20280171236A3E5DFC4
:10221000F0EF642470099001FB04F0A374F4F078EB
:10222000160675DBFFD0D0D082D083D0E03290018B
:10223000DD1210129001DAE0C454F02428F582E493
:102240003402F58322EBC454F02426F582E43402F0
:10225000F583E4F0A3F09001DAE0FFC454F0242AFF
:10226000F582E43402F583E4F0A3F0EFC454F024E3
:102270002FF582E43402F583229001DAE0FBC454A6
:10228000F02422F582E43402F58322E0FDA3E090FD
:1022900001DBCDF0A3EDF0EFC454F0242EF582E481
:1022A0003402F583229001DAE0C454F0242CF58244
:1022B000E43402F58322C454F02430F582E434027D
:1022C000F583229001DBE0FEA3E0FF22C454F0245A
:1022D00026F582E43402F58322E0FEA3E0FFD394E6
:1022E00000EE9400229001DD02101EE49001D8F06F
:1022F000A3F090014C7407F0A304F090014A14F08D
:10230000A304F01234637E007F047D007B017A0118
:1023100079571210B27F011234E6902E14E0FEA31A
:10232000E0FF1232F690013C121073EE8FF0120EA5
:1023300081E4FF1234E612330A9001D8CDF0A3ED08
:10234000F09001D8E0FCA3E0FDC39405EC940040BC
:1023500009D3ED94F0EC94074017EF64014E70053B
:1023600090014C8004E490014AF0A3F0E4FF1234A1
:10237000E6902E23E4F012330A9001D8CDF0A3EDBD
:10238000F090001D7410F0EF64014E9001D87008B9
:102390001232F112332F80061232F1123339E03E3D
:1023A000FE123319229001401210129001081210EF
:1023B00073EE8FF0020E819001D8E0FEA3E0FF22C1
:1023C000900102121073020E1EE52225E0240AF885
:1023D000E6FE08E6FFE0FCA3E0FD229001051210F6
:1023E00073E4F5F0020E81D39001FAE094009001BD
:1023F000F9E094002225E02473F582E43401F583AA
:10240000E022EE9001D8F0A3EFF022121073746175
:1024100075F0A8020E81900100E0FCA3E0FD22907F
:1024200001FB7403F0A37420F022E475F001020EA6
:1024300008E0FEA3E0FBEEFAE4F9F822F0A3F09046
:1024400000367410F022C3E5229403748094802235
:10245000EF9DFFEE9CFE22E0FEA3E0FFC3221231BF
:10246000C11235E37E007F2C7D007B017A017982E9
:102470001210B212082EE490017BF0A3F0900169D3
:10248000F0A3F0900167F0A3F090016BF0A3F07F50
:1024900003122F62900100E0FEA3E0FFA3122B8E37
:1024A000900100E0FEA3E0FF122B8B122BBB9001EA
:1024B0000B122BEB900111122BEB90010E122BBE85
:1024C000E490013FF0FE7F0AFD7B017A0179401222
:1024D00010B2E4900207F0A3F0900205122C1CE465
:1024E00090004BF0122BFF90020BE0700FC3900195
:1024F000FAE094F49001F9E09401500A9001F97423
:1025000001F0A374F4F022787FE4F6D8FD75812EF3
:10251000022D31020000022ED7E493A3F8E493A326
:102520004003F68001F208DFF48029E493A3F85415
:1025300007240CC8C333C4540F4420C8834004F498
:1025400056800146F6DFE4800B01020408102040AB
:1025500080903591E47E019360BCA3FF543F30E549
:1025600009541FFEE493A360010ECF54C025E06020
:10257000A840B8E493A3FAE493A3F8E493A3C8C5EE
:1025800082C8CAC583CAF0A3C8C582C8CAC583CADF
:10259000DFE9DEE780BE9001FDE07004A3E06401A6
:1025A0007011900007E06004D28AE4F0E49001FD2D
:1025B000F0A3F0900036E0FF9000FFE06F603D90E8
:1025C0000036E0FD9000FFF0900007E090020EF072
:1025D000540FF0ED7E0064207005E04420800CEF85
:1025E00064104E700B90020EE04410F0900007F063
:1025F000C28A9001FD7403F0A374E8F02200000089
:102600000602AB4F74AA7583F5758255A57455758E
:1026100083FA7582AAA574A57583F5758255A522DE
:102620000203020AB0B00BB6B60CFFFF09020208A3
:10263000FFFF0D77770E04041307071410101080A6
:102640008015000016000001921292120713080B69
:10265000010F040404040401010101111806080813
:1026600012180408080302040204E49001DCF0A339
:10267000F0200603022ED620077CC20690020DE051
:10268000902E12E0FFA3E09001DCCFF0A3EFF090DA
:1026900001DCE0FFA3E09001DACFF0A3EFF0E4FF6C
:1026A0001234E612330A9001DCCDF0A3EDF0EF64B2
:1026B000014E9001DC70081232F112332F800612A5
:1026C00032F1123339E03E9001D8F0A3EFF09001DF
:1026D000D8E0FEA3E0FF12331990020DE09001DA7A
:1026E000E0FFA3E0902E12CFF0A3EFF09001FB7477
:1026F00003F0A37420F02212365753A87F12363C01
:10270000121F771234A612080E43A880E4F58D90AC
:1027100000F17420F0122FE29001F8E0146015141B
:10272000601714603814604A240470E0122ACB1237
:10273000080380D8122C3E80311235C0900020E072
:10274000FF64206008EF6421600312306090002570
:10275000E0641070B79001F87404F080AF12080ABA
:102760009001FB7403F0A37420F09001F87402F060
:10277000809A1233D7900025E06410608F1208030E
:10278000808A9001D8EFF0E4A3F09001D8E0FFA395
:10279000E0C39F502E12113312368390016BEEF07E
:1027A000A3EFF08E10F511C8740AC87400FCE4FDA4
:1027B000FB7A00790CFE7F06120D9A9001D9E00495
:1027C000F080C71226B5900100EEF0A3EFF0900163
:1027D00069122C37900133E09FFF900132E09EFE9A
:1027E0001236B17C007D05120DD2900130ECF0A3C1
:1027F000EDF0900169E0FFA3E0900132CFF0A3EF8C
:10280000F022900020E0642070037421F0900136E3
:10281000121073120E1E641045F0700312338E9066
:102820000001E064AA7003123290123343200308BF
:1028300090001AE06410700B90001A7411F0C2033B
:102840001208039000FBE06006E4F09001F8F090BD
:10285000016FE07004A3E06401701590016FF0A3B4
:10286000F09001B87407F0A374D0F0E49001F8F090
:1028700030000CC2009001FB7401F0A374F4F0224C
:10288000308A789001F9E07002A3E0706E90016FD9
:10289000E07002A3E07064F5B2758D20438D207561
:1028A0008D9043A808D2AF758B4090012CE0FEA319
:1028B000E0FF4E6005758E148003758E3F20002F5B
:1028C00020052CE5DB54047026758AA4200520E53C
:1028D000DB5404701AF586758703000000758601C5
:1028E000EF4E60047F2880027F7F7E00121AF87509
:1028F0008B01758A3053A8F712362022E4FEEEC30E
:102900009407748094805038EE75F005A42428F55F
:1029100082E4342EF583C083C08290020DE0D08221
:10292000D08375F0021210671227CBFDEE75F0050B
:10293000A42427F582E4342E122843EDF00E80BE45
:10294000EF701090020DE0700A90014AE07002A34F
:10295000E0601290020DE06401701490014CE07090
:1029600002A3E0700A90020DE0902E217412F02272
:10297000CFF0EFA3F0900105121073020E1EC3FFFB
:10298000900187E09F900186E095F02290011DE084
:10299000FEA3E0FF2290011DE0FFA3E0229001DBF7
:1029A000E0941E9001DAE09400229001AA7413F0E2
:1029B000A37488F0A3E4F0A322E4F0A3F0A3F0A3AF
:1029C000F022CF9001A2F0A3EFF022FF900186E564
:1029D000F0F0A3EFF0229001A5E09F9001A4E09E0B
:1029E000227E007F137D007B017A02790F1210B2E4
:1029F000E4FBEBC3940174809480505190020DE08D
:102A0000FFEB75F00AA424BDF582E43436F583E5C6
:102A1000822FF582E43583F583E493FFE4FCFDFE29
:102A200012290F12102A12290F121012EF04F87E29
:102A3000007401088005C333CE33CED8F9FFEE33DE
:102A400095E0FDFC12294212102A0B80A52274FF8A
:102A5000F5F0020E08EF2401FDE43EFCD3E09D22D8
:102A6000E475F001020E08C3900149E094BC9001A6
:102A700048E0940222C3900191E09464900190E0B8
:102A8000940022C3900231E094B8900230E0940B9D
:102A900022C390022BE094F490022AE0940122EEEB
:102AA0008FF0020E08EF2401FDE43EFCD3E09D22EE
:102AB0009001D87408F0A3E4F0A3743FF0A374DF8E
:102AC000F0E4FDFCF9758A10538AEF009001D8E01C
:102AD000FEA3E02DF582EE3CF583E493FF69F90D4A
:102AE000BD00010CBC37E5BDDFE29001DAE0FEA3DA
:102AF000E0F5828E83E493FFE96F70089000017423
:102B000006F08005E4900001F0758A30538AEF00EA
:102B100022E0FEA3E0FF7C007D0A020DC09001DFF1
:102B2000E0902E1075F00202106790020DE0FF7E1B
:102B300000902E12E0FDA3E022900139121073EEF6
:102B40008FF0020E8175F002EF902E100210679048
:102B5000014DE02FFF90014C2290014BE02FFF90A0
:102B6000014A22900013E0FF90020CE06F600CEF2E
:102B7000F09002097402F0A37458F0900209E0701A
:102B800004A3E06401702690020CE0FF7E00641054
:102B90007002D207EF64204E7002C207900025E059
:102BA00064106002D203E4900209F0A3F022E490E2
:102BB00001D8F0A3F0758A10538AEF00122DE47546
:102BC000EA81E4F5F6F5F475F308F5F275EB070024
:102BD000E5EC30E7FBAFF3EFFEADF2EDFF90013631
:102BE000121073EE8FF0120E81E4F5EC75EB307578
:102BF0008A30538AEF0022900025E06410703FF580
:102C0000B2758D20438D20538D7F53A8F7F58BE54A
:102C1000DB54047013200510F58AF58675870300D0
:102C20000000758601758A30758B0190020B740166
:102C3000F09001FB7403F0A37420F012362022C23E
:102C4000D5E830E70FB2D5E4C39BFBE49AFAE499E8
:102C5000F9E498F8EC30E717B2D5123455120F4664
:102C6000E4C39BFBE49AFAE499F9E498F880031230
:102C70000F4630D50DE4C39FFFE49EFEE49DFDE4C6
:102C80009CFC22E4FFEFC3940D74809480502E903E
:102C9000020DE0FEEF75F003A42401F582E4342E6A
:102CA000F583E5822E1227CEFEEF75F003A42400F3
:102CB000F582E4342E122843EEF00F80C8902F5690
:102CC000E0902E2BF022E4F5DA75DA4043DA20307A
:102CD000881375D74075D64090020D04F09000150A
:102CE0007440F0801175D74275D642E490020DF021
:102CF0009000157441F05392FE75DA5843A802759E
:102D0000B80275F802229001DEEFF012360390014E
:102D1000DEE0FF1230DC9001DEE0FF90020DE025E6
:102D2000E024D3F582E43436F583E5822FF582E49E
:102D30003583F583E493FF1224A09001DEE0FF02C7
:102D400036949001DAEFF07E007F10EEC0E0EFC025
:102D5000E07D00E075F010A42422F9740235F0FA49
:102D60007B01D0E0FFD0E0FE1210B29001DAE01259
:102D70002A96740BF0A374B8F022900158E0242432
:102D8000FF900157E034FAFEC390016AE09F900182
:102D900069E09E501490016FE07002A3E070119002
:102DA000016F04F0A374F4F022E490016FF0A3F03B
:102DB00022C10542023D0302C10641020E0041024A
:102DC0000D00C10741020C00C101011600C100C184
:102DD00002C104C1034100FF1043023801023B005D
:102DE00012082E7F01122F621220CC900102122BAA
:102DF0008E1215151225C112235B122D7612355A2B
:102E0000022E4A1228577A01795B1210B212285703
:102E10007A0179631210B27F121228597A0179BAB5
:102E20000210B2EFF87401088002C333D8FC42AB41
:102E30001227BC9036D093F4529152935391DF22D3
:102E4000E5B254016006E5A85410700F75B2927592
:102E5000B67CE4F5B743B20143A81022758A30531B
:102E60008AEF758601758F05E4F5AB75AC0F75912A
:102E70003E759201D28A2290407F43EC40E49364F5
:102E80003B700300800653A87F0080FD53ECBF22F7
:102E9000900238121073020E1EE0FEA3E0FF7C00C9
:102EA000021085900169E0FEA3E0FF900167EEF05B
:102EB000A3EFF0221227BC9036D093429142884370
:102EC0009120227816E6FF2400F582E43400F58391
:102ED00022EE30E707C3E49FFFE49EFE22030300D7
:102EE00019001E001400197E007D007B010210B243
:102EF00001022001020102009600960701F4000081
:102F000000000000000000000000000000000000C1
:102F100000000000000000000000000000000000B1
:102F200000000000000000000000000000000000A1
:102F30000000000000000000000000000000000091
:1037F0000000000000000000000000000000002D9C
:1038000000000000000000000000000000000000B8
:1038100000000000000000000000000000000000A8
:00000001FF
