:020000040000FA
:1000000000180300F11A020023260200272602002E
:1000100055260200592602005D260200000000005D
:100020000000000000000000000000006126020047
:100030006526020000000000256E000021EB010093
:100040006926020071250200000000000000000087
:1000500000000000000000006D260200000000000B
:10006000000000000000000000000000DBB70000FE
:1000700000000000C5B9000001BA0000CFE8000090
:1000800000000000B1730100B17301000000000026
:100090000000000000000000000000000000000060
:1000A0000000000000000000000000000000000050
:1000B0000000000000000000000000000000000040
:1000C0000000000000000000000000000000000030
:1000D0000000000000000000000000000000000020
:1000E0000000000000000000000000000000000010
:1000F0005856500100000000000000000000000001
:1001000032B588B0044602A80FF2B421142200F0E0
:1001100071F900F0EDFACDE90001704D2A46012198
:10012000352000F09DFC022208A9281D00F052F99C
:10013000BDF820202146A81D00F04CF90822694690
:10014000BDF820004019801D00F044F9BDF82000E2
:100150000E30ADF80D00294602A801F005FA09B0ED
:1001600030BD0EB410B5BFB004466846FC2101F0A6
:1001700037FA41AB2246F921684601F06FFA68462A
:1001800001F08AFA401C00216A46821802F8011C1C
:10019000014689B26846FFF7B3FF3FB010BC5DF877
:1001A00010FBF0B593B010A80FF238110CC90CC0B9
:1001B000002425E010A8275C384600F06FFE0028D8
:1001C0001DD0002319460D460E462C30027AD0F879
:1001D00004C0BCF1000F00D00123002B03D0DCF8D9
:1001E0000C10DCF810500068002800D0C668029699
:1001F0000195009139460FF2F400FFF7B2FF641C3D
:10020000072CD7DB08A80FF2301191EC080B80EC1B
:10021000080B00F042F9089001F0E6FA099000F0AE
:10022000ACF98DF828000DF12A0000F080FA0CA836
:1002300000F054FA00F05CFA9DF92820002A01D160
:1002400025A301E00FF27013DDE90C45CDE9064569
:10025000CDE90401BDF92E0003909DF92C00029018
:100260009DF92B0001909DF92A000090099A0899A8
:100270000FF2E400FFF775FF13B0F0BD80B507285B
:1002800006D1002904D00878012801D1FFF789FFA1
:10029000002002BD80B51249072001F007FB0020B5
:1002A00002BD0020704700207047002070470020EA
:1002B000704700207047094901F584728262352237
:1002C0000270032202710222C2704FF484724282D1
:1002D000416100207047000072756E0054200300D9
:1002E0007D0A0000010204050810830069642825C6
:1002F00064292C20746F74616C282564292C206576
:10030000787465726E616C282564292C20655F7392
:10031000616D706C696E67282564292C20655F7299
:1003200065706F7274282564292C2066617374656A
:1003300073742825642900000000000000000000FC
:1003400000000000000000000000000000000000AD
:10035000000000000000000076657273696F6E286F
:100360002564292C2072617465282564292C20615C
:10037000705F7374617465282573292C2074696D0E
:100380006528253032643A253032643A25303264AB
:100390002E25303264292C2074735F6875622825FD
:1003A0006C6C64292C20626173655F74735F6B28C9
:1003B000256C6C642900000073757370656E6400B1
:1003C0000500000000000000000000000000000028
:1003D0000000000062B38B0708D0521E11F8013BE9
:1003E00000F8013B00F024808B07F6D1830740F032
:1003F000208000BF103A07D330B4B1E83810103A6B
:10040000A0E83810F9D230BC530724BFB1E8081077
:10041000A0E8081044BF51F8043B40F8043BD20761
:1004200024BF31F8022B20F8022B44BF0B78037055
:100430007047083A07D3B1E80810083A40F8043B7F
:1004400040F804CBF7D25307E4E78268521C82607D
:10045000426832B10268531C036011704168491E42
:100460004160704780B50020DFF8F81448718DF8BE
:1004700000006946092001F000FA0FF2305001F047
:1004800043FA01BD80B54FF42F72DFF8D414DFF8C2
:10049000FC0401F0BCFB002002BDDFF8F40470474F
:1004A00010B596B0044610A8142101F099F806A8DA
:1004B000282101F095F86846182101F091F8FFF71E
:1004C000ECFF0690684600F0EEFE1822694607A889
:1004D000FFF790FF01200D9065200E900F900F22E6
:1004E000214610A8FFF776FF2820ADF8450006A9A1
:1004F00010A801F039F816B010BD10B588B0044648
:1005000002A8142101F06CF800200090ADF804005E
:1005100001A9684600F01AFF009800280FD00F22AA
:10052000214602A8FFF756FFBDF80400ADF80D0004
:10053000009902A801F018F8009801F0E9FB08B052
:1005400010BD10B5DFF81C4460702078012804D17C
:100550006078042801D100F056FE6078032802D1AB
:100560000120207003E0042801D100202070611CCC
:100570000820BDE8104001F080B9DFF8E8030078FA
:100580007047DFF8E003C0787047DFF8D8034079A0
:1005900070472DE9F84F2DED048B82B0060000F076
:1005A0009880DFF8C073D7E90401002901D1002841
:1005B00010D0D6F80720D6F80B30101A63EB0101E3
:1005C000DFF8A4230123994204D8C0F0828090422E
:1005D000C0F07F8001F0F4FC04460D46D7E90489A1
:1005E000B9F1000F02D1B8F1000F6AD0D7E906AB1C
:1005F000BBF1000F02D1BAF1000F62D0D6F80700AC
:10060000D6F80B10B0EB080061EB090101F0E2FC39
:10061000CDE90001B4EB0A0065EB0B0101F0DAFC57
:1006200002460B46DDE9000101F0F4FC41EC180B39
:10063000CE4ACF4B01F01AFE2BD8CE4ACE4B01F05A
:100640002DFE26D297ED089B53EC192B0020CB49A9
:1006500001F03CFE02D187ED088B11E0C848C94982
:1006600001F044FE8046894653EC182BC448C64925
:1006700001F03CFE42464B4601F00AFFC7E9080183
:10068000D6F80700D6F80B10C7E90401C7E90645FC
:100690001FE0D6F80700D6F80B10B0EB080061EBAE
:1006A0000901BC4A0623994213D301D8904210D3C2
:1006B000D6F80700D6F80B10C7E90401C7E90645CC
:1006C00007E0D6F80700D6F80B10C7E90401C7E920
:1006D000064502B0BDEC048BBDE8F18FA149D1E91C
:1006E0000423C0E90023D1E90623C0E902237047AF
:1006F00070B501F065FC9B4ED6E90623801A99413E
:10070000D6E9044501F066FCD6E9082301F0EEFDC8
:1007100001F032FF2018694170BD924902780A72D7
:1007200042784A7280788872002088817047062259
:100730009949FFF74FBEF0B5044616461F46894D4E
:10074000D5E90A01301A67EB0101944A002301F050
:100750003FFF00B2B0F57A7F00D32046A989401848
:10076000A88100B2B0F57A7F05DBA0F57A70A88188
:10077000A87A401CA87295F90A003C2804DB3C3892
:10078000A872687A401C687295F909003C2804DB5D
:100790003C386872287A401C287295F9080018289D
:1007A00001DB00202872C5E90A67F0BD80B50A2880
:1007B00001DA052002BDF02801D1F02002BDA128F8
:1007C00001DBA02002BD0A2190FBF1F001F078FFCF
:1007D00041EC100B01F08CFF51EC100B01F092FF7B
:1007E00001F06EFF41EC110B9FED6D0B02F0F9F97A
:1007F00051EC100B01F086FF00EB8001480002BDB8
:1008000038B50446A0780146491E01291FD9091FA1
:10081000012924D9891E01292DD9891E012932D9FE
:10082000203909D00F390CD0491E58D0491E012952
:1008300036D9891E59D05AE0D4F80F00FFF76DFF62
:1008400055E0D4F80F000078FFF77BFE4FE0012859
:1008500001D1002000E001204249087047E005284E
:1008600001D1012000E000203E4DE870E91C072086
:1008700001F003F83BE0072801D1012000E000204F
:100880003849087133E0374D092802D10020A8709B
:1008900001E00120A870A91C0A2000F0EEFF26E06C
:1008A000304D3A2812D140A001F02EF80120687195
:1008B00005F1300001F0E2F90FF2FC0001F024F83C
:1008C000D4F80F10092000F0D8FF10E005F1300037
:1008D00001F0A9F90FF2F00001F016F807E0D4F8E2
:1008E0000F10012002F04AFC01E001F064F8A0784A
:1008F0001438032801D915380FD1832000F0CEFA1F
:1009000003000AD0D4F80F20B4F80510A0789B6A31
:100910001B6901B0BDE83040184731BD81780C2912
:1009200004D01B2903D03C2902D07047B8E5E4E588
:1009300001F0A2B880B500208DF80000052902D191
:1009400001208DF8000007489DF80010827991423F
:1009500004D081716946062000F08FFF01BD0000C0
:10096000650C0000F018030000F2052A3AEE940E20
:10097000D6FFEF3FE388B5F81400F03F0000F03FEA
:100980009A9999999999E93F9999C93F2019030032
:100990005856500101AC23FCF818030040420F00E8
:1009A00000000000000000404D4F4E004D4F4646F5
:1009B00020434221000000004D4F544F5220535419
:1009C00041525421000000004D4F544F52205354C7
:1009D0004F5021002DE9F0410024C046C046254675
:1009E000DFF8C8791EE0052001F0B4F90020B16AF3
:1009F00009688847002804D02046441CC0B2022859
:100A0000F1DBE4B2032C0BDB0020317847F8210046
:100A1000307857F82000C8F80400304601F078F923
:100A20006D1C00241D2D18DA382001F059F90646F6
:100A30002246382102F0DEFBDFF87489304658F890
:100A400035108847307847F8206008EBC5083078C3
:100A500057F82000C8F80400C8E72046BDE8F08138
:100A600002B5134637211970587002226946981C46
:100A7000FFF7B0FC01BD02B5104601210170022252
:100A80006946401CFFF7A6FC01BD01220A704A70AE
:100A9000803888707047008A022801DB0120704787
:100AA000002070472DE9F04389B0044602F073FD41
:100AB000002848D02746DFF8F40850F82700458A78
:100AC000372F02DA4FF0040801E04FF0030808EB7B
:100AD000050001F005F9064602A80FF64811142298
:100AE000FFF788FC08EB0500ADF80D0008EB0609E0
:100AF000372F13DA4946204602F03BFDFFF7F8FD99
:100B0000CDE9000108226946A8190838FFF762FC00
:100B1000324601212046FFF7A3FF0DE006EB480116
:100B2000204602F026FD49462046FFF7AEFF32463A
:100B300029462046FFF79FFF314602A800F014FD2A
:100B4000304601F0E5F809B0BDE8F08310B50C4679
:100B5000C17801290ED100216160FFF79CFF0028B8
:100B600005D0A068002802D0FFF720FE00E000209A
:100B7000A06010BD8068002804D0FFF717FEA060B9
:100B8000606010BD6068FFF711FE6060A06010BD7E
:100B900038B500206FF00044254616E0DFF8102835
:100BA00002EBC101496800290ED0CA6A002A0BD0A5
:100BB000CB78002B08D1D2680978052901D1142AF5
:100BC00002DB954200DD1546401C40B201461D295E
:100BD000E4DBA02D05D12A2000F03DFB012800D147
:100BE0005025A54200D10025284632BD2DE9FF47FA
:100BF00004461746A246DFF8B40750F82A50087892
:100C00008DF800004868019088680290C8680390D9
:100C1000002D01D103204BE069462846FFF796FFDF
:100C2000694605F12C0002F0E6FD05F12806307B4F
:100C3000012815D101F0C4F980468946204602F00A
:100C4000C2FC05F1100002F063FE00203168496823
:100C5000884742464B462146002000F02CFF0EE01C
:100C60009DF8000000280AD105F1100002F050FEA6
:100C7000E81C4078012802D12046FFF713FF3A46CE
:100C80000021482033681B699847E878002802D182
:100C9000022000F0B3FDB068002801D0012300E07D
:100CA0000023327B51460FF2147000F02DFE00201D
:100CB00004B0BDE8F0872DE9FF4106461446B04672
:100CC000DFF8E80650F8285008788DF800004868EA
:100CD000019088680290C8680390002D1AD09DF892
:100CE000000000280BD105F12807B868002811D0B2
:100CF000102200F108016846FFF77CFB03E069461B
:100D00002846FFF723FF694605F12C0002F095FD08
:100D1000002801D0032029E005F12807387B0028AE
:100D20000ED101F04DF904460D4600203968C9681E
:100D3000884722462B463146022000F0BCFE05E0E3
:100D40002246002149203B681B699847022000F099
:100D500055FDB868002801D0012300E000233A7B4C
:100D600041460FF2646000F0CFFD002004B0BDE802
:100D7000F08130B589B00546DFF8300650F82540DF
:100D800008788DF810004868059088680690C86853
:100D9000079010788DF800005068019090680290DC
:100DA000D0680390002C03D008781178884201D0D5
:100DB000032046E004A92046FFF7C8FE6946204606
:100DC000FFF7C4FE05980199884209D10698029957
:100DD000884205D107980399884201D1002030E06C
:100DE000039900290ED0079888420BD00FF2E450E7
:100DF00000F08AFD00200146A26A92689047C9A0CF
:100E000000F082FD694604F12C0002F016FD002876
:100E100001D0032015E004A904F12C0002F0EBFC42
:100E2000002211464A20A36A1B699847022000F05D
:100E3000E5FC059B019A29460FF2A05000F064FDE5
:100E4000002009B030BD10B50C4611461A46DFF837
:100E50005C3553F82030002B01D1012010BD204615
:100E60009B6A1B699847002010BD10B50C461146BF
:100E70001A46DFF8383553F82030002B01D1012015
:100E800010BD192C04D1012100F08AF9002010BDF9
:100E900020469B6A5B699847002010BD0146CF2918
:100EA00001DA002801D100207047DFF8000550F872
:100EB0002100704710B582B0694600220A600828F8
:100EC00004D010281CD020282DD013BD6A46032141
:100ED0004B20DFF8D8345B689B6A5B6998479DF8C4
:100EE0000000800703D50021012000F0C6FC9DF81A
:100EF000000040073CD50021022000F0BEFC13BDDD
:100F00006A4603214B20DFF8A4345B689B6A5B6967
:100F100098479DF8000000072AD50DF10101032034
:100F200000F0ABFC13BD082000F095F9012804D0B7
:100F30000FF2B44000F0E8FC13BDDFF87004046A5F
:100F4000E078002810D0FFF7D3FBA26A92689047A0
:100F500000280DD1206B002806D00069002803D19D
:100F60000021082000F01CF90021084600F085FC53
:100F700013BD2DE9F04106460F46D6F82C8001F04E
:100F80001FF804460D46B06800280AD1B8F1000FDA
:100F900019D0D8F81800C01B012807DBD8F8048046
:100FA000F4E7D8F81800C01B01280CDAFFF7A0FB03
:100FB000B26A9268904722462B4631780120BDE8FC
:100FC000F04100F078BDBDE8F0812DE9F84304461A
:100FD0000D4604F1100002F025FD064604F1100054
:100FE00002F027FD07462078372802DA4FF0040880
:100FF00001E04FF00308002F42D040F2FF1008EB51
:101000000601814203DB2046BDE8F2438CE0B5F8DF
:10101000051016FA81F2DFF8989308EB020181427D
:101020000DDB0FF2CC310FF2DC3000F06DFC09F17A
:10103000E801284600F098FA0020A5F80500B5F868
:101040000500484400F1E8022078372803DA3946E1
:10105000FFF706FD02E03146FFF70DFD3A4604F1C9
:101060001001B5F8050018FA80F04844E83002F0A5
:1010700091FCB5F8050008EB06010818A5F8050075
:10108000BDE8F18338B504461546206B00280FD023
:10109000C069401A01280BDAFFF76FFA012802D164
:1010A000207B002804D029462046BDE834408CE748
:1010B00031BD70B586B068460FF27C311422FFF75F
:1010C00099F900F091FB044600251BE0B84901EBBB
:1010D000C0004668002E14D096F83400002810D0C6
:1010E000F07800280DD121463046FFF742FF6A46CE
:1010F00021463046FFF7C6FF214606F12C0002F0DC
:10110000BCFB6D1CEDB228461D28DFDBBDF80500D9
:10111000002803D0A749684600F026FA002006B050
:1011200070BD0000637265002DE9F04385B0044690
:1011300068460FF218311422FFF75CF925784FF456
:10114000FD70618A90FBF1F6B6B204F1100002F076
:1011500070FC0746DFF8609219E0B8464A464146FF
:101160002846FFF77DFC424604F1100109F1040016
:1011700002F010FC608A00FB08F0001DADF80500CD
:101180004946684600F0F0F9A7EB0807BFB2002F08
:1011900003D0B742E1DBB046E0E705B0BDE8F0833D
:1011A000F0B587B004460D462646804F00F06FF834
:1011B00000280CD07BA000F0A7FB0020014657F8C8
:1011C0002620926A9268904777A000F09DFB57F81E
:1011D0002600FFF7A9FF002D13D001A80FF28021F0
:1011E0001422FFF707F968460FF288210A680260A7
:1011F0008DF802400320ADF80900694601A800F00F
:10120000B3F907B0F0BD30B583B068460FF20C21DA
:101210000CC90CC000240FE064486946615C50F8BA
:101220002150002D07D02846FFF735FC002802D0BA
:101230002846FFF779FF641C052CEDDB37BD5B49C1
:1012400051F82000002804D0006B002801D00120B4
:10125000704700207047554951F82000002802D1FE
:101260004FF0FF30704790F83410481E8041C04363
:10127000C00F40B270474D4951F82000002804D0FB
:10128000C06A002801D0C0687047002070474749F5
:1012900051F82000002804D0C06A002801D040691D
:1012A0007047002070472DE9F0410446012510E009
:1012B0003E4850F8250000280AD0D4E900670120F4
:1012C00000212A4602F0BAFB30433943C4E9000149
:1012D0006D1C372DECDB04F1080681271EE0334836
:1012E00050F82700002818D0A7F18002501102EB17
:1012F00090604FEAA0185FFA88F806EBC800D0E9C2
:10130000004501200021A2EB881202F097FB204348
:10131000294306EBC802C2E900017F1CCF2FDEDBA8
:10132000BDE8F08138B5044601250CE01F4850F8AF
:101330002530002B06D02246002153209B6A5B6992
:1013400098472E346D1C372DF0DB31BD70B5044647
:101350000D4600260120154A00E0401CC0B201469F
:10136000372906DA52F821100029F6D0761CF6B299
:10137000F3E730462E2111FB00F0401C288028881E
:1013800000F0AEFC206000280AD00022298802F07C
:1013900067FB206806702068401CBDE87040C1E70C
:1013A00070BD0000667300006665000008880300D9
:1013B000942B03007C2C0300448B03002361202525
:1013C000642C25642C25640023722025642C25645C
:1013D0002C2564006372732025640000236320259C
:1013E000642C25643E256400233E452D494E54005F
:1013F000617272616E67655F646174615F70616381
:101400006B65740025733A2074785F6461746120A1
:1014100069732066756C6C2825642900010E06121C
:1014200008000000050000000000000000000000AF
:1014300000000000000000000500000000000000A7
:101440000000000000000000000000000500000097
:10145000000000000000000000000000000000008C
:101460000500000000000000000000000000000077
:1014700000000000050100002DE9F04705460E467A
:10148000B5F805704C4C2078401C2070802080F30B
:10149000118800BF00BF6078401C60702878052864
:1014A00009D1B5F80500B5F80310884203D100F062
:1014B00062FA804601E04FF0000808EB070000F1F7
:1014C0000F0A504600F00CFC8146B9F1000F11D113
:1014D00051460FF2EC0000F017FA6078401E607081
:1014E000C0B2002802D1002080F31188BDE8F04787
:1014F00002F00ABCB5F805004044A5F80500B5F8AF
:1015000003004044A5F803000F2229464846FEF791
:1015100061FF3A46314609F10F00FEF75BFFB8F173
:10152000000F04D007EB09000F3000F02DFAB5F8DA
:10153000050000F10F0189B2484600F0E3FC607835
:10154000401E6070C0B2002802D1002080F31188D4
:1015500002F0DAFBB9F1000F04D04846BDE8F047CD
:1015600000F0D6BBBDE8F08770B504460D46B4F870
:101570000560A4F8036000F023FDC4F80700C4F878
:101580000B100FE03046A4F80500B4F80500361A39
:10159000B6B229462046FFF76FFF002E02D0B4F8FE
:1015A00005004519002E05D0B6F5FF7FEADD4FF4A2
:1015B000FF70E8E770BD00003819030000F09CBC24
:1015C0007478627566666572206973206E6F742028
:1015D000616C6C6F63617465642825642921210046
:1015E000002201F00BBEF0B401684468836809185A
:1015F00001EB5402E40748BF4B440C3091422BD01E
:1016000011F8014B14F0030504BF11F8015BED1C48
:1016100026090F2E07D111F8016B0F3603E011F8E0
:10162000017B03F8017B6D1EF9D1002EE6D0A408E2
:1016300011F8015B04F00304032C08BF11F8014BFF
:1016400005EB04241C1BB51CD8D014F8016B03F85F
:10165000016B6D1EF9D1D1E7F0BC704708B584B0BD
:101660000023029311B90093019302E00090481EF9
:10167000019004AB694607487844183002F0F8FB43
:10168000009911B1009A00211170002858BF0298EA
:1016900005B000BDB7EDFFFF00F10103810704D0E5
:1016A00010F8011B89B18107FAD10268B2F101314A
:1016B000914311F0803F04BF50F8042FF6E710F873
:1016C000011B11B110F8011BFBE7C01A70470000A5
:1016D00000B583B000F074FCCDE90001684600F06D
:1016E00086F8042000F08AF8464800F09CFA07BD0E
:1016F00070B5444C2046C068C0460546FFF748FA1E
:101700000646B54212D031462846FFF713F9314656
:10171000204603F085FA002E204603D0BDE8704035
:1017200000F081BABDE8704000F0A8BA70BD30B5D5
:1017300083B000200146CDE90001022001F01EFD2A
:10174000304D26E0DDE90023E868FEF7F4FF2E487F
:101750000178491C0170FFF7ACFC02F0D5FA69462C
:1017600005F1480003F06AFA0028EBD0200702D503
:101770000820FFF79FFBE00602D51020FFF79AFB39
:10178000A00602D52020FFF795FBA00701D5FFF7A3
:10179000AFFF3E2003F070FA04466007DFD4E5E7B0
:1017A00010B584B0174C04F506630822114604F105
:1017B000480003F083FA022002904FF40060019089
:1017C00004F160000090114B50220FF2500104F11F
:1017D000140003F07FFA4FF47A720D49204604B0EA
:1017E000BDE8104000F013BA0648C068704780B5E5
:1017F0000146084803F0A0FA40B202BD064903F0D2
:10180000B9BA0000F8420300381903002F1F000086
:10181000D11E0000404303000C43030073656E7348
:101820006F725F7461736B005060026041600860AA
:1018300070470A68F8E748600160704701684068CF
:10184000F9E7002007E02F4901EBC00241F8302002
:1018500011464960401C0B28F5DB704710B4026844
:101860000B4600E01268824204D09468A342F9D18A
:10187000104600E0002010BC70472DE9F0410446FE
:101880000D4626461F4F57F8368008E0D8F8082046
:10189000100002D0294620469047D8F8008007EB78
:1018A000C6008045F2D10020BDE8F08138B50C4675
:1018B0000B2801DA210001D1032032BD114901EBCF
:1018C000C00521462846FFF7C9FF002806D10C2095
:1018D00000F006FA84602946FFF7ABFF002032BD16
:1018E00010B5084A02EBC000FFF7B8FF040001D1B1
:1018F000032010BDFFF7A2FF204600F009FA0020E8
:1019000010BD0000D06E03000EB430B5C0B0044668
:1019100068464FF48071FFF763FE43AB22464FF4F5
:1019200080716846FFF79AFE6846FFF7B5FE441CD3
:1019300000206946611801F8010C7E480178491CB5
:1019400001707D4D297808462218FA2A0DDA7B4A63
:101950008018002902D00A2100F8011C224669469D
:10196000FEF738FD28782018287002F0CDF940B035
:1019700030BC5DF810FB70480078002801D0801C56
:1019800000E00020C0B2704738B56B4C2278002AC6
:1019900010D000280ED0032101704270674D2946F7
:1019A000801CFEF717FD0022FA21284601F022FCD8
:1019B0000020207031BD70B50FF28C115CA0FFF7D4
:1019C000A3FF5C480178491C017000245C4D5D4E0A
:1019D00019E0605DFFF762FA002813D0605D56F8E9
:1019E000200000280ED1552000F07AF9615D46F8FC
:1019F00021000022552102F033F8605D014656F8BF
:101A000021100870641C062CE3DBBDE8704002F076
:101A10007BB970B586B040F2FF14204600F060F943
:101A2000050027D00022214602F01AF800260EE019
:101A300044484349715C50F82110002906D05522D2
:101A4000104610FB0650401CFEF7C4FC761C062E08
:101A5000EEDB68460FF21C111422FEF7CBFCADF84A
:101A600005400620287029466846FFF77DFD284678
:101A700000F04EF906B070BD38B50FF2E0012CA0B1
:101A8000FFF742FFFFF7C5FF2A480178491C0170A4
:101A900001242C4D09E055F82400002804D000F062
:101AA00037F9002045F82400641C372CF3DBBDE82F
:101AB000314002F029B970B514461D46372935DA90
:101AC000204A52F82110002930D0C0EBC00201EBAF
:101AD0008200461C00F074FA001BA9413268521CB7
:101AE00032607268B36812184B417260B360F2687A
:101AF0003369994205D801D3904202D2F268336922
:101B000001E002460B46F26033617269B369002B53
:101B100001D1002A08D07269B3698B4204D801D37D
:101B2000824201D27069B1697061B16170BD00001B
:101B3000257300003819030067950300C46C030087
:101B40002C1F0300C06D03007365745F7379737499
:101B5000656D5F746573745F656E76006765745F4D
:101B600073797374656D5F746573745F7265737593
:101B70006C74000004FF3C00000000000000000046
:101B8000000000000000000030B4544982680B6A75
:101B90009A188260012202744A692AB90260486177
:101BA0000FF23100C8610CE001F1140384689568FC
:101BB000651B012D03DB13461A68002AF7D102606A
:101BC000186048694A6A8068821A48BF486230BC17
:101BD0007047000010B5044610E0A0610168616123
:101BE00000210174A069816081F31188A0694068B7
:101BF0008047802080F3118800BF00BF606928B152
:101C00008168226A8A1A012AE7DB616210BD30B45A
:101C1000002300241D4638C018C01438C2608260FA
:101C2000416030BC704710B5802181F3118800BF3E
:101C300000BF017C294CC1B104F1140100E0114640
:101C40000A6892B182420ED011460A686AB1824295
:101C500009D011460A6842B1824204D011460A688E
:101C60001AB18242EBD102680A60C1688160FFF755
:101C70008BFF607808B980F3118810BD802181F353
:101C8000118800BF00BF027C14490AB3002202740D
:101C900082680B6AD21A826001F1140200E01A46CF
:101CA000136893B183420ED01A4613686BB1834216
:101CB00009D01A46136843B1834204D01A46136808
:101CC0001BB18342EBD100681060486900B9C8615C
:101CD000487808B980F3118870470000381903006C
:101CE00030B5134D0446287881B020B9281D03F083
:101CF0007DF801202870281D03F091F8204603F09C
:101D000061FF0446281D03F0B0F8204601B030BD45
:101D100030B50446064D81B0281D03F080F82046FA
:101D200004F0ABF8281D01B0BDE8304003F09DB8C9
:101D3000C48F030038B504460D0000BF00BF00BFCC
:101D400000BF00BF04F063FBA942F6D301D8A04254
:101D5000F3D331BD10B5044604F059FB4FF47A7249
:101D60006243801851EBE271BDE81040E2E738B5FC
:101D7000FEF7BEFC884AC2E9080100210520FFF7F2
:101D80007CFD86480078002820D0854C2078401CB7
:101D90002070844D2878401C28701020FFF72EFDFD
:101DA000802080F3118800BF00BF2078401E207083
:101DB0002878012804D16868002801D004F090FC3C
:101DC0002878401E2870002080F311880820BDE884
:101DD000324004F085BD38B5FEF78AFC6E4AC2E990
:101DE00006016E480078002820D06D4C2078401CF9
:101DF00020706C4D2878401C28700820FFF7FEFCEE
:101E0000802080F3118800BF00BF2078401E207022
:101E10002878012804D16868002801D004F060FC0B
:101E20002878401E2870002080F311880720BDE824
:101E3000324004F055BD38B5FEF75AFC564AC2E9A7
:101E4000000156480078002820D0554C2078401CCE
:101E50002070544D2878401C28702020FFF7CEFCBD
:101E6000802080F3118800BF00BF2078401E2070C2
:101E70002878012804D16868002801D004F030FCDB
:101E80002878401E2870002080F311880820BDE8C3
:101E9000324004F025BD80B5002812D0032818D1A7
:101EA0004148009000231A460321072004F0D2FC89
:101EB0003E48009000231A460321082004F0CAFC83
:101EC00001BD3B48009000231A460221082004F07F
:101ED000C1FC01BD04F0AABD80B50846FEF759FB60
:101EE000344804F085FE002805D00FF2D800BDE884
:101EF0000240FFF709BD01BD00232F4A40212D48B4
:101F000004F0DEBE04F0A7BE2DE9F8430C461546EA
:101F10001E46052740B20120C046804615F8019BA9
:101F200020480178491C01702449404605F097F883
:101F3000002807D10095731E4A466108404605F007
:101F4000A4F8074601F0E0FE3846C0B2BDE8F283CF
:101F50002DE9F04182B00C4615461E46052740B2D9
:101F60000120C04680460F480178491C0170134982
:101F7000404605F074F8002807D10096089B2A46D1
:101F80006108404605F06CF8074601F0BDFE384692
:101F9000C0B2BDE8F6810000A84103006D950300C2
:101FA0006F95030038190300D72500006F25000046
:101FB00037260000E06F0300D9260000801A0600D3
:101FC00004F00BBA4D534720426F782046756C6C75
:101FD00000000000094200BF08BF00F07BBB0246C2
:101FE0000846B0FA80F150408A40C1F12001C84152
:101FF0005040C91E01F58461090501EBD02140055F
:1020000040EAD220520572F1004250F1000041F145
:10201000000170472DE9F04140F2FF7581EA030CA1
:102020000CF0004C15EA11541DBF15EA1357AC42D1
:10203000AF42E9E0BC41C1F31301C3F31303801ABB
:10204000994143F4801304D2641E40004941801832
:102050005941C90241EA5051B1FBF3F603FB161195
:10206000A2FB0675D7EBC020A94102D2761E8018CC
:102070005941C90241EA5051B1FBF3FE03FB1E1165
:10208000A2FB0E75D7EBC020A94103D2AEF1010E21
:1020900080185941890241EA9051760546EA8E2E10
:1020A000B1FBF3F603FB1611A2FB0675D7EB8020FC
:1020B000A94102D2761E80185941C90241EA505105
:1020C0004EEA060EB1FBF3F603FB1611A2FB0675F2
:1020D000D7EBC020A94102D2761E80185941C9020F
:1020E00041EA5051B1FBF3F703FB1711A2FB07358F
:1020F000D3EBC020A94167F100070CBF004247F0B5
:10210000010766F3D5274FEA1E31B80814F580643D
:1021100014DDBD0775F1004250EB0E5051EB045138
:1021200011F5801F5CBF41EA0C01BDE8F0814CF065
:102130007F6141F0E0410020BDE8F081BD076D08FE
:1021400040EA0E5041F48011D4F10104B4F12006AC
:102150000ADAC4F120060200E04001FA06F3E14089
:102160001843B24015430EE0342C14DCC6F12004B1
:1021700045EA40056D0820FA06F2154321FA06F0FB
:10218000A1400D43002175F1004250F1000051EBD8
:102190000C01BDE8F08100205FEA0C01BDE8F08190
:1021A000CFB992185B41B3FA83F704BFB2FA82F653
:1021B000BF190B3FB7F120062FBF02FA06F3BB4051
:1021C000C7F1200622FA06F638BF3343BA401CB1E5
:1021D000E419641E2FE77F4231F00041B1FA81F427
:1021E00004BFB0FA80F6A4190B3CB4F120062FBF4F
:1021F00000FA06F1A140C4F1200620FA06F638BF25
:102200003143A0403C1B16E7AC421ABF05EA135706
:10221000AF4214E050EA41061CBF52EA4306BFE752
:1022200050EA4107304661461CBF41EA0551BDE80E
:10223000F08152EA430C08BFC143BDE8F0810020A1
:102240004FF4001616EB410F98BF16EB430F08BF73
:1022500016EB410F24BFC14305E016EB430F0CBF43
:1022600061464CEA0551BDE8F08100004FF4001CC6
:102270001CEB410F94BF1CEB430F09E041EA030C38
:1022800050EA4C0C52EA0C0C03D28B4208BF82423B
:10229000704714BF99429042704700004FF4001CF1
:1022A0001CEB410F94BF1CEB430F09E041EA030C08
:1022B00050EA4C0C52EA0C0C03D2994208BF9042EF
:1022C000704714BF8B4282427047000090420CD18D
:1022D00041EA030C50EA4C0C07D0994205D14FF467
:1022E000001C1CEB410F38BF89427047B0B581EA32
:1022F000030C0CF0004C40F2FF7515EA11541DBFA1
:1023000015EA1357AC42AF4239E0E41923EA4553CA
:1023100043F48013C90241F0004141EA505EC70214
:102320001100A7FB020200284FF00000EEFB012085
:102330004FF00001E3FB072118BF42F001024018F3
:1023400000214941E3FB0E01A4F580640F0302D292
:1023500052004041494154F101046CDD470872F1DB
:10236000004250F1000051EB0451A1F580115CBF17
:1023700041EA0C01B0BD4CEA05510020B0BD05EAB0
:102380001357AC4214BFAF4241E050EA410E1CBFAC
:1023900052EA430E02E061460020B0BD24423C44B4
:1023A0001BD15FEA070EF6D0090302BF01460020E9
:1023B000AEF1140EB1FA81F7AEEB070401FA07FE95
:1023C0000C37C7F1200100FA07F7C8404EEA000EAB
:1023D00023EA455343F48013A2E733F00043B3FAF2
:1023E00083F704BFB2FA82FE77440B3FE41BB7F1D8
:1023F000200E2FBF02FA0EF3BB40C7F1200E22FAC7
:102400000EFE38BF43EA0E03BA40641C82E750EA6E
:10241000410E14BF52EA430E6FF000014FF4001753
:1024200017EB430F8ABF194617EB410FB5E74CEA8C
:1024300005510020B0BDD4F10104B4F120070FDA3A
:10244000C4F12007520828BF42F0010210FA07F534
:1024500001FA07F7E1BF2A43E0403843E1400FE0CB
:10246000352C98DCC7F1200452EA400220FA07F22A
:1024700018BF42F0010231FA07F0A1400A430021DF
:1024800072F1004250F1000051EB0C01B0BD0000B0
:10249000F0B44FF0004591EA030C44BF6B4004F0E8
:1024A00075BE00BF841A71EB030603D2001BB14155
:1024B000121973414FF4001C1CEB410F34BF7CEB2D
:1024C000430443E00C0DA4EB1356352E50DC45EAD3
:1024D000C323DB0A45EAC121C912B6F120050DDD8F
:1024E00063FA05F6EB4086EA0305124218BF45F091
:1024F0000105C01851F100010CD213E062FA06F593
:10250000F2405540F3415A40B340F3405A408018DE
:10251000594107D349085FEA30005FEA350528BF13
:1025200045F0010501F58011420875F1004250F1B6
:10253000000041EB0451F0BC4FF4001C1CEB410FB8
:1025400038BF70470020090D090570471CEB410F8B
:1025500010D252EA43060BD0BCEB410F05D80C0D4C
:10256000AB43661E342EB5DD02E0AB438018594103
:10257000F0BC7047F0BC7047490080F0228000BF7B
:102580004A0DA2F580621E3A0ADC5242202A18DA6D
:10259000890241F0004141EA50500021D04070478B
:1025A000D2F1200210D4890241F0004141EA505199
:1025B000C002D04061FA02F35840D14080EA0100E5
:1025C0007047002000217047D017010070470000BD
:1025D0001B4213D1094236D12AB18446B0FBF2F036
:1025E00002FB10C2704704F087BEFCD30022002318
:1025F00070470B000200002100207047904271EBF1
:10260000030CF6D370B5B1FA81F4B3FA83F52C1B41
:10261000A340C4F1200532FA05F63343A2405FF02F
:102620000046E64002E05B085FEA3202841A71EB82
:10263000030524BF204629467641F4D302000B004F
:102640003000002170BD012ACFD970B5140C20D004
:10265000B1FA81F4B2FA82F5C4F120046419B4F13C
:102660002006D6D3B2405FF00044F440002502E0DB
:1026700052085FEA3303C61A71EB020E24BF3046DC
:10268000714664416D41F3D302000B002000290024
:1026900070BD0C46B1FBF2F102FB11452D0445EA79
:1026A0001045B5FBF2F402FB145580B240EA054533
:1026B000B5FBF2F002FB105240EA044070BD00008E
:1026C000010040F10980F446404200F005F851F065
:1026D00000416047010000BF09D0B0FA80F1884096
:1026E000C91CC1F58461090501EBD0214005704783
:1026F00080B54FF0FF3251EC100B04F0FFFD41ECC0
:10270000100B01BDF446400D40EAC120490006D23D
:1027100000F014F8004248BF6FF00040604700F03E
:102720000DF84FF0004188428CBF08464042604798
:10273000400D40EAC120490080F00D8040F000408B
:10274000490DA1F58061491C05D4D1F11F0154BF89
:10275000C840C01770474FF00000704700000000ED
:102760002DE9F8452DED088B0FB486B040F2FF71CE
:1027700007989DED080B8DED040BC0F30A508842BD
:1027800008D107980024000305BF069800280225F9
:10279000012512E0012807DA06A804F05FFF0128EE
:1027A00002DB0024002508E0079A40F2FE3161F3C5
:1027B0001E520792441A4FF0FF35002104A804F07E
:1027C0006EFF1A9F06460FB10020388036B9DDE94A
:1027D000082300200021FFF779FD12D0002D13D52A
:1027E00024B2012C15D1DDE906230020DFF88C137B
:1027F000FFF76CFD05D0012E0BD1DF49FFF766FD19
:102800003ED10AB0CD49E8E1022D04D1DDE906014F
:10281000E2E1012E6FDB022E08BFDDE9080100F0C6
:10282000DB81012D2AD107980028099806D40028B9
:1028300054BF9FEDD50B9FEDD60BCBE100280ED4F6
:1028400056B94FF0FF3104A804F029FF002848BF13
:102850009FEDD10B00F1BE819FEDCB0BBAE156B9D4
:102860004FF0FF3104A804F01AFF002848BF9FED85
:10287000B40B00F1AF819FEDC60BABE1012E11D17E
:102880000998002824B206D4012CACBF9FEDBE0BE2
:102890009FEDBF0B9EE1012CACBF9FEDBD0B9FEDEB
:1028A000BA0B97E10998002810D466B94FF0FF31B0
:1028B00004A804F0F4FE002842BF079800289FED0A
:1028C000A00B00F187819FEDB20B83E104F024FFA0
:1028D0002221016066B94FF0FF3104A804F0DFFE49
:1028E000002842BF079800289FEDAB0B00F17281D2
:1028F0009FEDA50B6EE10798002848BF002E0CD570
:1029000004F00AFF212101600AB04FF0FF30BDEC56
:10291000088B6FF00041BDE8F485DDE90601002277
:102920000023FFF7A3FC38BF002509D381F0004145
:10293000CDE906014FF0FF3104A804F0B0FE0546D2
:10294000012C13D1DDE906017F4A804BFFF7A6FC7D
:102950000CD2DDE9062300204FF08041FFF7C6FCD2
:10296000CDE9060100269FED7A8B1CE0DDE9062308
:1029700000207949FFF7BAFC9FED788B53EC182BB8
:10298000FFF786FDFFF7BEFEA0F120063046FFF7F9
:1029900097FE0022734BFFF7A9FC53EC182BFFF7AF
:1029A00077FD41EC180B0FF2582000EB461ADDE9D9
:1029B000060153EC182B04F0DFFBDDE9062341ECA4
:1029C000190B51EC180BFFF763FD02460B4651EC57
:1029D000190BFFF71FFB41EC1A0B53EC1A2BFFF7F7
:1029E00085FC41EC1B0B8DED069B04F0B9FD53EC0F
:1029F0001B2BFFF77BFCDDE9062304F0BDFB06463D
:102A0000884600204D4953EC182B04F0B5FB0022FA
:102A10004FF08043FFF76AFC32464346FFF738FD2C
:102A200053EC1A2BFFF762FCDDE90623FFF730FDBC
:102A300041EC180B4C4A4D4BFFF7ECFACDE9040181
:102A40002046FFF73DFE41EC190BDAE9000153EC9B
:102A5000192BFFF71DFDDDE90423FFF719FDCDE973
:102A60000401DDE90823FFF741FCCDE90201002262
:102A70003F4BFFF713FCC0F0938001223D4BFFF763
:102A8000F5FB40F2918000220023FFF707FCDDE90F
:102A9000022339BF0020384900203849FFF7F8FCED
:102AA000FFF730FE0446DDE9080153EC182BFFF771
:102AB0001DFCCDE90201DAE90223DAE90401FFF79E
:102AC000E7FCDDE90823FFF711FC9FED2D8B53ECAC
:102AD000182BFFF70BFCDDE90223FFF7D9FCCDE94A
:102AE0000201DAE9002351EC190BFFF7D1FCDDE913
:102AF0000823FFF7FBFB064688462046FFF7E0FD6C
:102B000002460B463046414604F036FB53EC182B88
:102B1000FFF7ECFBDDE90223FFF7BAFCCDE9020188
:102B20000FB13C80002400940022044B02A804F062
:102B3000F9FDA8B3012837D042E000BF0000F03F04
:102B40000000000000000080CD3B7F669EA0E63FB5
:102B5000000000000000F03F0000504000000000B6
:102B60000000E03F0000903FEF39FAFE422EE63FC2
:102B70000000E0C00000E0400000E0BF0000E03FD7
:102B8000EF39FAFE422EE63F000000000000F07F21
:102B90000000000000000000000000000000F0FF46
:102BA0000020CDE9020007E00020014902E000BF5B
:102BB0000000F07FCDE9020104F0AEFD22210160AA
:102BC000002D1DBFDDE9020181F0004141EC100B39
:102BD0009DED020B51EC100B0AB0BDEC088BBDE86B
:102BE000F48580B50020009053EC112B51EC100BB4
:102BF000FFF7B6FD41EC100B01BD00000000000026
:102C0000000000000000F0BF000000000000008095
:102C10000000000000000080000000000000000034
:102C2000000000C05294EEBF00000048204E51BE8C
:102C3000000000F86467BCBC000000000000000059
:102C4000000000208133EDBF00000080B3DB14BE24
:102C5000000000506706A3BC000000000000000058
:102C6000000000D0E9DCEBBF00000008C39259BEB1
:102C700000000080B0D3B8BC0000000000000000DD
:102C800000000070F98FEABF000000C0A51028BE48
:102C9000000000E8BFC0B0BC000000000000000061
:102CA00000000070284CE9BF00000060134B42BEDA
:102CB000000000C03D20B8BC000000000000000083
:102CC00000000050FA10E8BF000000C05FF62BBE05
:102CD000000000905C71A7BC000000000000000034
:102CE00000000020FCDDE6BF000000C0F8F154BE8B
:102CF00000000018E9F6B9BC000000000000000068
:102D0000000000D0C3B2E5BF00000070E43254BE42
:102D100000000050DB06B4BC000000000000000012
:102D200000000010EF8EE4BF00000020F36252BEEE
:102D3000000000C02A879ABC0000000000000000CC
:102D4000000000B02272E3BF000000F0E8E056BED1
:102D500000000028352DBDBC000000000000000070
:102D6000000000000A5CE2BF000000B0FA8E41BE25
:102D700000000040AE6FBDBC00000000000000007D
:102D800000000000564CE1BF000000F015CD5FBE12
:102D900000000000141C90BC0000000000000000B7
:102DA00000000040BD42E0BF00000030F93457BED3
:102DB000000000E06C1E93BC00000000000000005A
:102DC000000000E0F57DDEBF000000B08A535EBE6B
:102DD00000000080DA77AABC0000000000000000BC
:102DE000000000C09D81DCBF00000000FFA226BEE5
:102DF0000000006057E2B0BC0000000000000000CE
:102E000000000060F98FDABF000000580A8151BE4F
:102E1000000000F05F60B8BC00000000000000008F
:102E20000000000098A8D8BF000000607A7F45BE6F
:102E3000000000D05433A3BC0000000000000000DC
:102E4000000000600FCBD6BF000000D091CB40BE89
:102E5000000000406D1BA0BC00000000000000004E
:102E6000000000A0FBF6D4BF00000098C5CE52BE03
:102E7000000000003A397EBC0000000000000000A5
:102E8000000000E0FE2BD3BF0000004073872BBE84
:102E900000000000926879BC000000000000000003
:102EA00000000040C069D1BF00000058F16353BE6C
:102EB00000000080438D7CBC00000000000000008A
:102EC00000000080D85FCFBF000000181F8354BEF1
:102ED000000000B03F42A2BC000000000000000063
:102EE0000000008067FCCBBF00000060FAFF53BE0B
:102EF00000000050E00DB8BC000000000000000021
:102F00000000000098A8C8BF000000607A7F35BEAE
:102F1000000000C0543393BC00000000000000001B
:102F200000000000DC63C5BF00000058D6FF54BE9F
:102F300000000000396490BC0000000000000000A8
:102F4000000000C0AD2DC2BF00000080A45915BE16
:102F5000000000E0484BABBC000000000000000097
:102F6000000000801A0BBEBF00000050BF3C5ABEDC
:102F7000000000A0B364B6BC000000000000000028
:102F80000000008004D6B7BF00000040BBCF36BEB3
:102F90000000008076CEA8BC000000000000000009
:102FA0000000008032BBB1BF000000402A0043BED9
:102FB00000000028C60CBDBC00000000000000009E
:102FC000000000009473A7BF000000182B3B59BEFF
:102FD000000000C0E55DA5BC00000000000000008E
:102FE00000000000EE4397BF000000A0E6C340BE13
:102FF00000000020958DB5BC00000000000000001E
:1030000000000000000000800000000000000080C0
:103010000000000000000080000000000000000030
:103020000020704730B58DB0040001D102204EE081
:103030000FF264100FC805AD85E80F000FF268109D
:103040000FC809AD85E80F0068461421FEF7C8FADD
:10305000132221466846FDF7BDF99DF80140082C72
:103060001FD19DF8000000280BD12320FEF7E7F8C0
:10307000002806D0002205A9CC20FDF7B7FD0120CD
:1030800025E09DF8000001280BD1CC20FEF7E3F8E5
:10309000012806D1002205A9CC20FDF70CFE012055
:1030A00015E0232C12D19DF8000000280ED1082035
:1030B000FEF7C5F8002809D0002209A90820FDF76D
:1030C000FAFD002205A9CC20FDF790FD00200DB0EF
:1030D00030BD30B58DB0050001D102204CE000209C
:1030E000029001902C780422691C02A8FDF772F965
:1030F0000422691D01A8FDF76DF921460FF2B80001
:10310000FEF702FC2046FDF7C9FE00281FD000256F
:10311000006B00280FD10FF2B4000FC803AD85E893
:103120000F000298049001980590002203A9204600
:10313000FDF75CFD0125FDF720FA012803D10420ED
:10314000FDF7FFF90125002D01D0002014E007A8AC
:103150000FF288011422FDF74DF968460FF2900135
:103160000A6802608DF802400320ADF8210069462C
:1031700007A8FEF7F9F902200DB030BD002803D0F2
:10318000022805D002D305E008464BE70846A0E731
:10319000084645E7002070470100000000000000DD
:1031A000000000000000000000000000000000001F
:1031B000000000000000000023234548206E6F201F
:1031C0006576656E74282564290000000000000003
:1031D00000000000000000000000000005000000EA
:1031E00000000000000000000000000000000000DF
:1031F0000A1A000062F30F2262F31F4200B500BFFB
:10320000130096469446103928BFA0E80C50FAD80F
:103210005FEA417C28BF0CC048BF40F8042BC907B7
:1032200028BF20F8022B48BF00F8012B00BD00008A
:10323000506002604160086070470A68F8E74860C3
:103240000160704701684068F9E7DFF80804006032
:103250004060704701281AD004281BD0052825D0CB
:10326000082829D00E281ED0252822D087282CD027
:10327000952830D0972831D09A2829D0A1280FD06E
:10328000A4281CD0BB281DD0CE2806D029E0DFF80A
:10329000C8037047DFF8C4037047DFF8C403704702
:1032A000DFF8C0037047DFF8C0037047DFF8BC03E6
:1032B0007047DFF8BC037047DFF8B8037047DFF8EA
:1032C000B8037047DFF8B4037047DFF8B403704702
:1032D000DFF8B0037047DFF8B0037047DFF8AC03E6
:1032E00070470020704701281AD0042818D00528FC
:1032F0001AD008281CD00E2814D0252816D08728CC
:103300001AD095281AD0972818D09A2814D0A12816
:1033100010D0A4280ED0BB2810D0CE280AD00FE0A1
:1033200014207047182070471C20704708207047F1
:10333000062070470C20704702207047012070471C
:10334000002070477CB50C46002501281CD00428BD
:1033500047D0052852D0082869D00E2800F0A68052
:10336000252800F08C80872800F0C7809A2800F07C
:10337000D280A12876D0A4287AD0BB2800F09180F2
:10338000CE2800F0C380D2E004F04FFCDFF8C86222
:10339000B4F9000000EE900AF8EEE00A20EE800A90
:1033A00086ED000A04F041FCB4F9020000EE900A38
:1033B000F8EEE00A20EE800A86ED010A04F035FC02
:1033C000B4F9040000EE900AF8EEE00A20EE800A5C
:1033D00086ED020A2088B0816088F081A088308262
:1033E000A5E0DFF8746228467061B061F061208862
:1033F000308460887084A088B08498E00520FDF750
:103400004DFD0079012800D10125002D07D0DFF8FE
:103410004802806D2168884201D1012500E0002525
:103420001C222146DFF84402FCF7D4FF7FE0DFF8DE
:10343000286206F17C0001782278914200D10125B2
:1034400001222146FCF7C6FF0222611C06F17E0024
:10345000FCF7C0FF022204F10B0106F18000FCF72B
:10346000B9FF64E00C22DFF8FC01FCF7B3FF5EE07B
:1034700001250C22DFF80002FCF7ACFF57E0DFF873
:10348000D861706F2168884204D1B06F616888424A
:1034900000D101250822214606F17400FCF79AFFAD
:1034A00045E0E078DFF8CC11087540E004F0D1FC8D
:1034B000DFF8A461D4ED000AF8EEE00A20EE800AFD
:1034C00086ED100A04F0C5FCD4ED010AF8EEE00A1E
:1034D00020EE800A86ED110A04F0BBFCD4ED020A4E
:1034E000F8EEE00A20EE800A86ED120AE068F06449
:1034F000206930656069706519E0574E06F17C00FF
:1035000094F9031041750121817510E00C22544893
:10351000FCF760FF0BE0684605F0D6F84E4E06F16A
:103520007C009DF80010C1759DF8011001762846B9
:1035300076BD70B504460D46FDF7B0FC064629463B
:103540002046FFF7FFFE002E12D0316B00290FD06E
:1035500000280DD1FEF748F9316B8969081A012856
:1035600006DA294606F11000BDE8704000F0D8B92F
:1035700070BD70B504460D46FFF76CFE060009D01D
:103580002046FFF7B0FE024631462846BDE87040AF
:10359000FCF720BF70BD38B50446FFF75BFE05465B
:1035A0002046FFF7A0FE002D0BD0002100E0491CB3
:1035B00089B20A46824204DA525DFF2AF7D001201E
:1035C00032BD002032BD38B50446FFF743FE05008A
:1035D0000DD02046A1280AD0A42808D0FFF783FEEA
:1035E000FF2201462846BDE8384000F039BA31BD17
:1035F000026800E01268824204D093689942F9D1CF
:10360000104670470020704738B50446114D2146DA
:103610002846FFF7EDFF002806D10C20FEF760FBDF
:1036200084602946FFF709FE002032BD10B501462F
:103630000848FFF7DDFF040005D10FF25400FEF744
:1036400063F9032010BDFFF7FDFD2046FEF760FB88
:10365000002010BD00880300688703007C870300FA
:10366000908703009C870300A8870300C08703009E
:10367000DC870300E4870300EC870300F88703007E
:10368000F9870300FB870300FD870300FE87030023
:10369000455F6669666F5F757200000038B5054664
:1036A000002400E06D68002D10D0287A0A7890423E
:1036B000F8D1E8684A689042F4D128698A68904253
:1036C000F0D16869CA689042ECD1012421460FF21A
:1036D0003820FEF719F9002C00D10025284632BD0C
:1036E00038B504462420FEF7FBFA054600222421C3
:1036F000FFF780FD1022214605F10800FCF77AFE55
:103700006068A861A068E861012085F8200028466B
:1037100032BDF8B50022134601F10804694D2E7838
:10372000761C2E70056801E02B466D68002D08D0D0
:10373000EE686768BE42F7DBE6686F69BE42F3DB9E
:103740000122002A0AD02A680A604D602A68002AED
:1037500001D0516000E00160296005E0002B02D03B
:1037600059600B6000E0016000F0CEFA0020F2BD6D
:1037700080B5002801D0002901D1022002BD514AA4
:1037800013785B1C13704A680B68002B01D05A60D9
:1037900000E002604868002801D00A68026008461C
:1037A000FEF7B6FA00F0B0FA002002BD18B40168C6
:1037B000002903D0C268CB689A4200D04168002932
:1037C00017D0404A13785B1C1370CA688969511A74
:1037D000C268531A91FBF2F402FB0432826102695F
:1037E000531A91FBF2F102FB0131C16111BC00F0EF
:1037F0008BBA11BC704770B504460D462068FFF7C0
:103800004DFF06000BD12846FFF76AFF06463146FA
:103810002046FFF77EFF3046FFF7C8FF04E096F82A
:103820002000401C86F82000207A401C2072307A4C
:10383000002800D16660002070BD10B504462068E5
:10384000FFF72CFF002801D1032010BD90F82010B5
:10385000491E80F82010217A491E2172017A002920
:1038600001D10021616090F82010002903D10146A8
:103870002046FFF77DFF002010BD38B5114A1378B0
:103880005B1C1370006801E0C2614068002815D01D
:103890008269531AC269521A012B05DAC4681D19CC
:1038A00093FBF4F304FB13538361012AECDA0369FD
:1038B000D41892FBF3F203FB1242E5E700F024FA7E
:1038C000002032BD3819030080B503461046002B96
:1038D00001D0002801D1012002BD002902D0012918
:1038E00008D00EE0196800290BD010220831FCF72F
:1038F00081FD06E05968002903D010220831FCF749
:1039000079FD002002BD00002366632025640000CD
:1039100000221346C0E9042311464181018170470A
:1039200070B504460D0034D0002C32D0B4F9080034
:10393000B4F90A100818218890FBF1F201FB120378
:1039400060880246294666689BB200FB0360FCF76C
:1039500041FDB4F90A002188884202DA401C6081E6
:103960000AE009D12089401C208100B2218890FB07
:10397000F1F201FB120020816088092809D3082296
:103980004019A0F1080104F11000BDE87040FCF7F7
:1039900021BD70BD2DE9F04104460D461646002DAF
:1039A0003ED0002C3CD0B5F9081008462A881346B2
:1039B000374607EB000C634509DB698801FB07F21A
:1039C0006B6801FB00312046FCF704FD1CE01B1A6C
:1039D000BB4201DBB04603E0A2EB01081FFA88F806
:1039E000698801FB08F26B6801FB00312046FCF797
:1039F000F1FC6888A6EB080189B200FB01F2696856
:103A000000FB0840FCF7E6FCB5F9080038182988E7
:103A100090FBF1F201FB120028816889801B68810C
:103A2000BDE8F081B0F90A10408811FB00F080B2C7
:103A30007047B0F90A0080B270470000D2B2203A55
:103A400022BF00FA02F1002070475242D041D2F169
:103A5000200291404140D0409040414070470000DA
:103A600062F30F2262F31F42401810F0030308D0E4
:103A7000C91A1FD3DB0748BF00F8012D28BF20F863
:103A8000022D130030B414461546103928BF20E922
:103A90003C00FAD8490728BF20E90C0048BF40F88D
:103AA000042D890028BF20F8022D48BF00F8012D01
:103AB00030BC7047C91818BF00F8012DCB0728BFCC
:103AC00000F8012D7047000030B4802080F3118889
:103AD00000BF00BFDFF89413886800220A7182F3E8
:103AE000118800281CBF0268002A33D0436954693A
:103AF0009C422FD100E022461468A4B165699D4222
:103B000011D12246146874B165699D420BD12246D9
:103B1000146844B165699D4205D12246146814B108
:103B200065699D42E7D0802383F3118800BF00BF01
:103B300003680C69844208BF0B61016A0B6019625B
:103B400002621168016001B10862106092F82900F8
:103B500082F82800002080F3118830BC704730B50F
:103B6000DFF808430020607181B0206AE16900F14C
:103B70008040606208001CBF20468847002080F318
:103B80001188E56808E0E868616A411A48BF606228
:103B9000002080F311882D6805B3802080F3118800
:103BA00000BF00BF206920B1686921694969884266
:103BB00019D3287C4007EBD5E868216A401A012810
:103BC000E1DA284600F0BCF8802080F3118800BFBD
:103BD00000BF287C0028D6D101B030BD802080F302
:103BE000118800BF00BF01B030BD000070B5DFF824
:103BF0007C420020607001202070E06B68B1802062
:103C000080F3118800BF00BFE06B8047002080F385
:103C10001188E063606384F83800A06800281CBF46
:103C2000C16A002904D009680A001CBF406888479F
:103C300094F8310040B1A06894F8301080F8281052
:103C4000207908B1FFF740FF206948B304E02868F5
:103C50002061002080F31188802080F3118800BF4C
:103C600000BF25690DB32E7CFEB170070ED5E86844
:103C7000216A411A012905DA284600F061F8287CFA
:103C800020B90DE0616A411A48BF606206F0FB008E
:103C90001028DCD1A86880684068007C0028D6D154
:103CA000802080F3118800BF00BF607950B920697F
:103CB00000B32069007C0028206909D080688068F2
:103CC000406805E0FFF74BFF60790028FAD1EEE786
:103CD000A060A068C16A21B149680A001CBF4068A1
:103CE0008847A06890F8280084F8300084F83100F4
:103CF000204670BD84F8310084F83000A060207048
:103D000080F31188204670BD10B5584C2078401EB5
:103D10002070C0B298B9606888B1802080F31188A3
:103D200000BF00BF606830B101202070204602F063
:103D3000C4FC00202070607808B980F3118810BDA1
:103D400030B581B08168494C41B1226AC2600A68CD
:103D5000496802B151600A6000218160017C11F064
:103D60000301017426D1216991B92061207838B905
:103D700001202070204602F0A0FC0020207001E00D
:103D8000012060716078A8B980F3118801B030BD5E
:103D900042694B699342E8D38142E7D09A4209D104
:103DA00003461B68002BEDD05D69AA42EAD18B4225
:103DB000F7D1DAE701B030BD30B52C4C227881B0B4
:103DC0004169521C227004F10C0200E01A4613688B
:103DD000A3B15D69A94211D21A46136873B15D6936
:103DE000A9420BD21A46136843B15D69A94205D2B4
:103DF0001A46136813B15D69A942E7D303600262F2
:103E0000106043B118625A698A420CBF90F82910B9
:103E1000002180F82810017C51B9802181F311889C
:103E200000BF00BFFFF78CFF607808B980F31188EE
:103E300001B0BDE8304067E730B50C4C2578681C10
:103E4000207081B0204602F038FC6078257008B9F7
:103E500080F3118801B030BD00B581B004F0D6FD0B
:103E600002480121017001B000BD000038190300B3
:103E70002DE9F04FA1B08046002017461D46029163
:103E80000B900DF1440A6FF000490AE017F8011B8E
:103E90000298C0470028029000F0AB820B98401CAB
:103EA0000B90387808B90B98A5E22528EED10020B0
:103EB000059006900790089009900A9001E040F064
:103EC000010017F8011F2029F9D023290DD02B2933
:103ED00004D02D2906D030290AD00CE040F0020091
:103EE00080B2EEE740F00400FAE740F00800F7E7A0
:103EF00040F01000F4E72A290ED12968296051F812
:103F0000042B2960002A0D9204D5514240F0040090
:103F10000D9180B27F1C11E000210D9109E00D99F7
:103F2000494505D001EB810302EB430130390D9186
:103F30007F1C3A78A2F130010A29F0D339782E2972
:103F400003D04FF0FF310C911DE017F8011F2A2913
:103F500007D1296829607F1C51F8042B29600C9235
:103F600011E000210C9109E00C99494505D001EBC5
:103F7000810302EB430130390C917F1C3A78A2F1A6
:103F800030010A29F0D3ADF838000FF678403978BF
:103F900004F058FD08B117F8010B8DF83A009DF8B0
:103FA0003A00682802BF39786829622005D06C2859
:103FB00004BF38786C2803D171208DF83A007F1C3B
:103FC00011A8049017F8014BB4F1250029D01C3832
:103FD00000F0C280001F022840F2BE80133800F0BB
:103FE000E380093800F0B880801E00F04A81401E4E
:103FF00000F02381401E022840F2AE80001F00F036
:104000001C81401F79D0401E00F0CE80401E24D07D
:10401000C01E0BD0801E00F0C780C01E00F0C48000
:1040200039E125208DF8440001203DE12868286011
:1040300050F8046B286003960C9C002C04D5304685
:10404000FDF72AFB044606E022460021304604F034
:1040500005FD00B1841B069427E1296829603C24F2
:1040600051F8040B29600021CDE9000111A803904B
:10407000DDE90001049E11B908B90C9AB2B102063B
:10408000120FA0EB02123032D2B2631E3A2AA8BF3E
:10409000273200099A5540EA0170090908BF002833
:1040A0001C4603D0039AA3199A42E8D3A01903909F
:1040B000C4F13C010C980691814209DA401A08903B
:1040C0004FF6EF71BDF838000840ADF83800ECE06D
:1040D000002840F1EA809DF8380000F01400102814
:1040E00040F0E3800D98059A801A089A801A441AC5
:1040F000012CC0F2DA800894D7E09DF83A006228DB
:104100001AD0682806D06A280CD06C281CD07128D8
:1041100008D019E02868286050F8041B28600B9824
:104120000880C2E02868286050F8042B28600B98AB
:10413000C117C2E90001B8E02868286050F8041BE4
:1041400028600B980870B0E02868286050F8041BBD
:1041500028600B980860A8E02868C01D20F00702BE
:104160002A60D2E9000108322A60CDE90001002965
:1041700002D505982D210AE0BDF83800810702D547
:1041800005982B2103E0C00705D50598202100F8EC
:104190000A10401C059011A80599081803902146A3
:1041A000684600F0E5F980E09DF83A006C280DD0F3
:1041B000712818BF6A2809D12868C01D20F007029D
:1041C0002A60D2E9000108322A6005E029682960E6
:1041D00051F8040B29600021CDE900019DF83A0057
:1041E000682803D1DDE9000180B20BE0622803D129
:1041F000DDE90001C0B205E0742818BF7A2804D1B7
:10420000DDE900010021CDE900019DF8380000073B
:104210002ED5DDE90001002908BF002828D044F090
:104220002000782824D10598302100F80A10401C7D
:10423000411C059100F80A401AE09DF83A00294611
:1042400000F0DCF8CDE90001002902DA05982D2103
:104250000AE0BDF83800810702D505982B2103E05C
:10426000C00705D50598202100F80A10401C0590CC
:1042700011A80599081803902146684600F0F5F842
:1042800013E0012005902868286050F8041B28607E
:104290008DF8441009E025208DF844000120059098
:1042A0001CB18AF80140022005900D980599401A2A
:1042B0000899401A0699401A0999401A0799401A14
:1042C0000A99441A9DF83800400710D420208DF830
:1042D0004000002609E0012310AA6946404600F08C
:1042E00079FC002840F08580761CA642F3DB059E11
:1042F0000DF1440B0AE01BF8011B0298C04700288F
:10430000029076D00B98401C0B90761E002EF2D1B6
:1043100030208DF840004FF0000B089E09E001238B
:1043200010AA6946404600F055FC002861D10BF107
:10433000010BB345F3DB069EDDF80CB00AE01BF879
:10434000011B0298C0470028029052D00B98401CD5
:104350000B90761E002EF2D130208DF840004FF0E9
:10436000000B099E09E0012310AA6946404600F0AF
:1043700031FC00283DD10BF1010BB345F3DB039871
:104380000699079E01EB000B09E01BF8011B029840
:10439000C047029068B30B98401C0B90761E002E0D
:1043A000F3D130208DF840004FF0000B0A9E08E05A
:1043B000012310AA6946404600F00CFCC8B90BF175
:1043C000010BB345F4DB9DF8380040077FF569AD7C
:1043D00020208DF84000002600E0761CA642BFF6A3
:1043E00060AD012310AA6946404600F0F3FB0028A7
:1043F000F3D04FF0FF3021B0BDE8F08F622826D017
:1044000068281DD06A2808D06C2827D0712804D0CD
:10441000742823D07A280CD020E00868C01D20F032
:1044200007000860D0E900230830086019461046EC
:1044300070470A680A6052F8040B0A60002170474E
:104440000A680A6052F8040B0A6000B20BE00A68BE
:104450000A6052F8040B0A6040B204E00A680A607D
:1044600052F8040B0A60C11770472DE9FA4E054651
:104470000A462F696F2A08BF082405D041F02000A2
:10448000782814BF0A2410243C26D5E90001642AA8
:1044900018BF692A81468A4605D1002903DAD9F175
:1044A00000096AEB4A0ABAF1000F08BFB9F1000F20
:1044B0000CD1286B50B9082C36D195F8380000077C
:1044C00032D530203B2687F83B002DE0E3174846E5
:1044D00051462246FEF77CF8A4FB0023A9EB02021A
:1044E0003032D2B2A6F1010B3A2A5E4603DB9DF8C8
:1044F0000030513B9A180BF8072081465FEA010A09
:1045000008BFB9F1000F03D0E868F1198842DDD384
:10451000082C09D195F83800000705D5F05D302842
:1045200002D0761E3020F055C6F13C00A861F1198A
:10453000E960296B884208DA081A28624FF6EF71A1
:10454000288F08402887BDE8F38E00290ED595F8FE
:10455000381001F01401102908D1696B6A69891AB1
:104560002A6A891A0E1A012EA8BF2E62BDE8F38EA0
:104570002DE9F24F04468EB0D4E90001CDE90201E5
:1045800004AF9DF8380040F0200BBBF1610F0AD05A
:10459000206B002848BF062004D408BFBBF1670F7A
:1045A00001D1012020636168C1F30A5040F2FF721B
:1045B00090421CD1080304BF2068002809D10320C1
:1045C000A0619DF8380061381A2836D30FF248618F
:1045D00008E00320A0619DF8380061381A2829D32B
:1045E0000FF22C61E0680322FBF7F4FEBEE1012824
:1045F00016DA204603F032F8012811DB00250020EE
:10460000BBF1610F20D1E168302201F8012B4A1C77
:10461000E2609DF83820612A0CBF782258220FE012
:10462000626840F2FE3161F31E52451A62604FF03B
:10463000FF30E5E70FF2D451D4E70FF2D851D1E7BC
:104640000A706169891C616110B90026002584E146
:10465000BBF1610F40F09780206B00284CBF2126F2
:10466000461CD4E900ABDDE9020100220023FDF77E
:1046700015FE36B23ABF8BF00040CDE902A0CDE97D
:1046800002AB06F101082D1F8DF810200DF1110766
:1046900000E0C71DB8F1010F33DBDDE902010022A4
:1046A0000023FDF7E3FD2CD21C2102A804F002FA3E
:1046B000DDE90201FEF726F8A8F10708B8F1010FBD
:1046C000814609DBFDF7FCFF02460B46DDE90201EE
:1046D00002F052FDCDE90201F81D072105E009F0C5
:1046E0000F0200F8012D4FEA2919B9F1010F01DB82
:1046F000491EF4D5491E5CBF002200F8012DF9D5F2
:10470000C7E70DF11100391AB142B8BF0E4636B2F3
:1047100030000DF111072FD4884206DA04A94118A0
:1047200049780829A8BF0F2100DA002104AA8218BD
:1047300000E0761E12F80139401E8B42F9D00F2995
:1047400004D104A941184A78521C4A70002802D5A5
:1047500004AF761C2D1D36B2701E0DD4C1190A7817
:104760003032D2B23A2A03DB9DF838303A3B9A18FD
:10477000401E01F80129F2D5206B002840F1ED80A0
:10478000701E2063E9E0DDE9020100220023FDF74D
:1047900085FD3CBF81F00041CDE902012DB247F219
:1047A000975068434B49DFF8309190FBF1F52DB2FB
:1047B000C5F1070ABAF1010F90461CDBDDE902677B
:1047C0005FEACA7007D542464B4630463946FDF788
:1047D0008DFD06460F464046494642464B464FEA47
:1047E0006A0AFDF783FDBAF1000F80468946E7D1DA
:1047F000CDE9026724E0CAF1000A0026374F14E031
:104800005FEACA7007D542464B4630463946FDF747
:104810006DFD06460F464046494642464B46FDF76B
:1048200065FD4FEA6A0A80468946BAF1000FE7D172
:10483000DDE9020132463B46FDF7ECFBCDE9020122
:10484000BBF1660F0CBF05F10A000620216BDFF8F3
:1048500090904618142EA8BF132630208DF8100013
:104860000DF11107012E3DDBDDE90201FDF760FFCF
:1048700007F1080104220A23B0FBF3F303EB8307DB
:10488000A0EB4700303001F8010C0A20B3FBF0F038
:1048900000EB8007A3EB47033033521E01F8023DC3
:1048A000E9D1083E012E01F10807DBDBDDE9020159
:1048B000FDF73EFFFDF70EFF02460B46DDE9020164
:1048C00002F05AFC00224B46FDF710FDCDE9020133
:1048D000CAE700BFA0860100000024400000F03FAE
:1048E00084D797410DF11100381A0DF1110702E03C
:1048F000401E6D1E7F1C39783029F9D0BBF1660F40
:1049000002D12DB2691C04E0BBF1650F0CBF01217F
:104910000021226B8E1836B2B042B8BF064636B2BE
:1049200031001AD4814204DAC85D3528A8BF392085
:1049300000DA3020CA19521E00E0761E12F8013942
:10494000491E8342F9D0392802D1C85D401CC855A0
:10495000002902D57F1E761C6D1C2DB29DF83810E3
:10496000009533B23A46204600F003F80FB0BDE898
:10497000F08F2DE9F043054685B01E46D5F830800E
:10498000012E8946174602DA01260FF2902749F0D8
:104990002000BDF93040662808BF641C17D0672886
:1049A00040F0828014F1040FC0F28480444580F20C
:1049B000818095F83800641C000702D44645B8BFD2
:1049C000B04624B2B8EB040848BF4FF0000824B248
:1049D000E868A969012C25DA4A1C30230B54B8F188
:1049E000010F03DA95F83810090702D52E2111546A
:1049F000521CAA6118EB040FB8BFC8F1000424B21E
:104A00006142A0446962B045B8BF4646AB6936B260
:104A1000EE61324639461818FBF7DCFCA8EB0600BD
:104A2000A862C0E00818A64218DA32463946FBF7F9
:104A3000D1FCA9697118A01BB8F1010FA9616862C6
:104A400003DA95F83800000705D5EA682E20885467
:104A5000E869401CE861C5F82880A4E02246394690
:104A6000FBF7B8FCA8692018361BB8F1010F03DA70
:104A700095F83810090703D5EA682E218154401CA7
:104A800036B2A861B045B8BF4646E868AB6936B2F1
:104A90003246E1191818FBF79DFCA8693018A86187
:104AA000A8EB060068627EE0B9F1610F16D14FF005
:104AB000700918E0464504DA95F83810090758BF20
:104AC000B046B8F1010848BF4FF00008B9F1670FD0
:104AD00014BF4FF045094FF0650904E0B9F1410FEB
:104AE00008BF4FF05009A969E8684A1CAA61B8F1EB
:104AF000010F17F8013B0B5403DA95F8381009073A
:104B000017D5531CAB612E211154B8F1010F10DBE6
:104B1000761E36B2B045B8BF464636B23246394642
:104B20001818FBF757FCA8693018A861A8EB060015
:104B30006862E868A9690918200081F8009003D428
:104B40002B2048708F1C03E02D224A708F1C64427A
:104B500000260DF1080808E00A22684604F034F83F
:104B6000019808F8010B761C009C21B20129F3DAA8
:104B7000022E06DA49F02000652804BF302007F82D
:104B8000010B4EB9302007F8010B07E0761E02A892
:104B9000305C303007F8010B012EF7DAE868A969BC
:104BA0000818381AE86195F8380000F01400102849
:104BB0000DD16869A9690818696A0818E9690818AF
:104BC000A96A0818696B8842BCBF081A286205B038
:104BD000BDE8F083F8B504460D4616461F46002092
:104BE00004E0E86A401CE8627F1E002047B116F826
:104BF000011BA868A0470028A860F2D14FF0FF3041
:104C0000F2BD0000686A6C747A4C00006E616E0040
:104C10004E414E00696E6600494E4600300000006D
:104C2000802282F3118800BF00BFC1600248407833
:104C300008B980F3118870473819030000B581B0B6
:104C4000802282F3118800BF00BF8368094A33B90C
:104C5000507808B980F31188012001B000BD1378A5
:104C60005B1C137003F0DBFFFFF74EF8002001B070
:104C700000BD00BF3819030010B50F4C2178491C46
:104C80002170802181F3118800BF00BFA1688A696B
:104C9000024205D1C86108200874204601F00DFDCC
:104CA000A168886900228A612178491E2170617893
:104CB00009B981F3118810BD3819030070B40024BC
:104CC0000025264670C070C018384360C2608182DB
:104CD00070BC70472DE9F0470E46089F099DDDF82E
:104CE00028900446924698463421FCF779FC1049F6
:104CF000C4F814A0207C09780843207484F8299013
:104D000006B16662E819C008C000002140F8501DD5
:104D10004FF08071416407490164C0F84C806FF026
:104D20000201416260602046BDE8F047FFF744B8E9
:104D30006E950300876E000030B50D4D2A78521C29
:104D40002A7081B00124802282F3118800BF00BF45
:104D50008268C3689A4202D203F03EFF002468785A
:104D600008B980F31188FEF7CFFF204601B030BDAF
:104D70003819030000B581B0802282F3118800BF8A
:104D800000BF8A69104388610A7C02F0F802082A91
:104D900005D1CA6902421CBF0846FEF7D1FF03488D
:104DA000407808B980F3118801B000BD38190300BC
:104DB00070B504463748384E0568B5B1287A88B1D1
:104DC0006868A0420ED1012028723078401C3070F3
:104DD000287A401E2872C0B210B9284603F04CFF52
:104DE000FEF792FFED68002DE8D170BD2B492C4AEB
:104DF0000A60002100220B468C46A0E80E101038F5
:104E0000802181F3118800BF00BF22490A68C26077
:104E100008602148407808B980F31188704730B5A0
:104E20001D4D04462878401C287081B0A868217A5E
:104E300039B9606001252572FEF766FF284601B08A
:104E400030BD6168814208D01021204603F02AFF5E
:104E5000207A0028F8D1A8686060207A451C257265
:104E6000FEF752FF284601B030BD0B490A78521CAC
:104E70000A70017A491E0172C9B2002918BFFEF7F3
:104E800043BF00B581B003F0F7FE01B05DF804EB5D
:104E9000FEF73ABFB88F030038190300649303008C
:104EA000B155000000F5E0700268914203D34368F9
:104EB0009A18914202D380680028F5D17047DFF834
:104EC0005807016891B94FF4803181604FF48051E7
:104ED00041604FF0FF31C16001610421DFF83C27E0
:104EE0004161C2F8BC11DFF838170160012070473A
:104EF00001F1080313F0070305D001F10803C3F122
:104F0000080303F007035918D21A8161C26042F006
:104F100001034B60511828234B60DFF8FC16096928
:104F2000C16170472DE9F84F064601F1080010F005
:104F3000070008BF884607D001F10800C0F108004B
:104F400000F0070000EB010802F1080010F0070074
:104F500006D002F10800C0F1080000F00700821836
:104F60001546A5EB0800A0EB030903EB080B43F083
:104F70000300C8F80400AB4528BF03F0B1FE287950
:104F8000C00758BF03F0ACFEB9F1100F38BF03F0F3
:104F9000A7FEB069854209D1F0684844F060C6F8C0
:104FA00018B040F00100CBF804006DE17069854253
:104FB0000BD1B0684844B060C6F814B040F00101AD
:104FC000CBF8041040F80B005EE1686800F00301C4
:104FD000012940F0AD80C008C0000190C008202821
:104FE0003AD2D5F808A0EF680090BD4208BF03F0A0
:104FF00077FE554508BF03F073FE68680099C00846
:10500000C000B0EBC10F18BF03F06AFE009806EBBA
:10501000C00000F128018A4507D031698A45C0F0F7
:105020008280DAF80C10A9427DD1574506D1009A4A
:105030003068012191408843306076E02830874213
:1050400005D0306987426ED3B868A8426BD1CAF8E0
:105050000C70C7F808A068E0EF68D5F818A0AF4258
:105060000CD0A8683169884223D3C168A94204BF23
:10507000B968A9421DD1C760B8601CE005F11400F1
:10508000076837B905F110000768A7B101E00846C5
:10509000076807F114010A68002A02BF07F110012E
:1050A0000A68002AF3D13169884202D300210160E5
:1050B00001E003F015FEBAF1000F36D0E86906EB07
:1050C000800000F5987001688D4208D10760A7B98B
:1050D000EA697068012191408843706025E0306979
:1050E000824508D3DAF81000A84214BFCAF8147039
:1050F000CAF8107001E003F0F3FDB7B130698742E0
:1051000011D3C7F818A0296929B1814226BF396196
:105110008F6103F0E5FD686938B13169884202D3D7
:105120007861876101E003F0DBFD01984519814456
:1051300068684008400068604FEAD90549F00100FE
:10514000CBF8040049F80B90202D23D206EBC500C4
:1051500000F12807BA46B9F1100F38BF03F0C0FDBF
:10516000306820FA05F1C90704D40121A940084399
:10517000306006E0B868316988422CBF824603F08F
:10518000AFFDC7F808B0CAF80CB0CBF808A0CBF850
:105190000C7079E05FEA192108BF002023D0B1F537
:1051A000803F28BF1F201ED2A1F58070000C00F0A8
:1051B00008008140A1F58052120C02F004029140D7
:1051C000A1F580431B0CC0F10E0003F00203801A0E
:1051D000C01A994000EBD130C11D29FA01F202F04A
:1051E000010101EB4000CBF81C000022CBF8142099
:1051F000CBF8102006EB8001726822FA00F3DB077F
:1052000001F5987107D4012303FA00F01043706090
:10521000C1F800B01DE009681F280EBF002040083B
:10522000C0F1190009FA00F000E011464A68D208FE
:10523000D2004A4514D0C20F01EB820202F11003E2
:1052400040001A68002AF0D1306983421AD3C3F8AB
:1052500000B0CBF81810CBF80CB0CBF808B013E0C6
:1052600032698868914228BF90420BD3C0F80CB0D5
:10527000C1F808B0CBF80800CBF80C100020CBF830
:10528000180001E003F02CFD08F10800BDE8E68FEE
:105290002DE9FA4D0546DFF8800384B0006808B9AF
:1052A000FFF70DFEDFF870030499806841182F3175
:1052B000401E21EA00000499814280F0A88105F592
:1052C000D876B16839B132688018824280F09F8107
:1052D0008142C0F09C8103F007FD00281EBF0446F8
:1052E000D0F8008014F1010F00F0918130687168EE
:1052F00040443060814238BF01467160A86980BB7C
:10530000286908B1844200D22C610020F061346128
:10531000C6F8148005F12801BF48006868624FF0A4
:10532000FF302862002001F10802C9601160801C72
:1053300010312028D2609260F5D3B848854203D15D
:10534000A8F12802214629E055F8040CC00805EB15
:10535000C000A0F1080108EB0400401AA0F12802E7
:105360001CE005F5E071084600E08068D0B10268F5
:1053700043689A189442F8D1027B120712D4AA69A2
:1053800003689A420ED347683B449A420AD208EB1C
:1053900007014160E868A96908EB00022846FFF7A9
:1053A000A7FD1EE128698442084638BF2C6108EB3E
:1053B000040100E0806880B102688A42FAD1017B72
:1053C00009070AD404604168414441602146049BB6
:1053D000284606B0BDE8F04DA4E5AF693946284639
:1053E000FFF760FD01684068401802902F3800F117
:1053F000080111F0070105D000F10801C1F1080111
:1054000001F00701081807F11001884234BF009726
:10541000009000980830019004F10801009800F114
:10542000180A11F007014FF0000BA8F1280005D071
:1054300004F10801C1F1080101F007010A19401A3D
:10544000AA61E86040F001015160801828214160A4
:1054500071480069E861019810F0070018BF03F077
:105460003FFC00991B20486005F5E071B1E80C5045
:105470000198A0E80C503461C6F81480C6F81CB03E
:105480000198B061029800E08A460722CAF8042019
:105490000AF104010A1D82420BF1010BF4D3BBF1A6
:1054A000020FB8BF03F01CFC0098B84200F09980CE
:1054B000C01BC119C4084A68520852004A6040F033
:1054C00001017960C051202C20D205EBC40101F10B
:1054D0002806B046102838BF03F002FC286820FADE
:1054E00004F1C90704D40121A1400843286006E063
:1054F000B068296988422CBF804603F0F1FBB76091
:10550000C8F80C70C7F80880FE606AE0010A08BF9E
:10551000002223D0B1F5803F28BF1F221ED2A1F563
:105520008072120C02F008029140A1F580531B0C0E
:1055300003F004039940A1F58044240CC2F10E024B
:1055400004F00204D21A121BA14002EBD131CA1D91
:1055500020FA02F303F0010202EB4102FA61002398
:105560007B613B6105EB82016B6823FA02F4E4077F
:1055700001F5987105D401209040184368600F60D0
:105580001CE009681F2A0EBF00225208C2F119024E
:1055900000FA02F200E019464B68DB08DB008342A8
:1055A00010D0D30F01EB830303F1100452002368E2
:1055B000002BF0D12869844211D32760B961FF60C4
:1055C000BF600EE02A698868914228BF904206D3E6
:1055D000C7608F60B860F9600020B86101E003F037
:1055E0007FFBE8680499814211D2401AE860A969FA
:1055F000049A5218AA6140F001005060049840F0EB
:105600000300486006B001F10800BDE8F08D0020FD
:1056100006B0BDE8F08D00006C9303008493030096
:105620006859883C2DE9F04D0446002688465FEA1B
:105630001820C8F1000B08BF002123D0B0F5803F2F
:1056400028BF1F211ED2A0F58071090C01F00801AE
:105650008840A0F58052120C02F004029040A0F5A0
:1056600080431B0CC1F10E0103F00203891AC91A11
:10567000984001EBD030C11D28FA01F202F001017F
:1056800001EB400104EB8100D0F8300118B31F2971
:105690000EBF00224A08C2F1190208FA02F20023E2
:1056A00000E052004568ED08ED00A5EB08055D45FA
:1056B00003D25FEA050B06460BD04569D70F00EB16
:1056C0008700002D00691CBF85422B460028E8D1C9
:1056D0001846B8BBC6BB0120884040004142084381
:1056E0006168084000F0638141420840401E010BA0
:1056F00001F01001C840420902F00802D0408308BE
:1057000003F00403D840450805F002055118E840AD
:105710005918C0F3400729443944F840401804EBB5
:105720008000D0F830010DE008464168C908C90082
:10573000A1EB080159453CBF8B460646016900298B
:10574000F2D140690028F0D1002E00F03081A0682D
:10575000A0EB0800834580F02A8120698642C0F0D2
:1057600024817068C008C00008EB0B0108EB060537
:10577000884218BF03F0B4FAAE4280F01681F76891
:10578000D6F818A0B7420CD0B0682169884223D35C
:10579000C168B14204BFB968B1421DD1C760B860E9
:1057A0001CE006F11400076837B906F1100007681D
:1057B000A7B101E00846076807F114010A68002A4A
:1057C00002BF07F110010A68002AF3D1216988425B
:1057D00002D30021016001E003F082FABAF1000F68
:1057E00038D0F06904EB800000F5987001688E42B3
:1057F00009D10760380014D1F26960680121914035
:105800008843606026E02069824508D3DAF81000FA
:10581000B04214BFCAF81470CAF8107001E003F067
:105820005FFABFB12069874212D3C7F818A0306968
:1058300030B12169884226BF3861876103F050FA90
:10584000706938B12169884202D37861876101E0CB
:1058500003F046FABBF1100F0CD208EB0B0040F03E
:105860000300706008EB0B008019416841F00101F2
:10587000416096E048F0030070604BF00100686002
:105880004FEADB004BF805B020281DD204EBC00125
:1058900001F12807216821FA00F2D207BB4605D49E
:1058A000012202FA00F00843206006E0B86821698E
:1058B00088422CBF834603F013FABD60CBF80C502E
:1058C000C5F808B0EF606CE05FEA1B2108BF00205C
:1058D00023D0B1F5803F28BF1F201ED2A1F58070D4
:1058E000000C00F008008140A1F58052120C02F07B
:1058F00004029140A1F580431B0CC0F10E0003F09F
:105900000203801AC01A994000EBD130C11D2BFA56
:1059100001F202F0010101EB4000E86100226A613E
:105920002A6104EB8001626822FA00F3DB0701F5CB
:10593000987106D4012303FA00F0104360600D60F3
:105940001CE009681F280EBF00204008C0F11900A4
:105950000BFA00F000E011464A68D208D2005A451E
:1059600010D0C20F01EB820202F1100340001A684E
:10597000002AF0D12069834211D31D60A961ED6036
:10598000AD600EE022698868914228BF904206D33C
:10599000C5608D60A860E9600020A86101E003F0A7
:1059A0009FF906F10800BDE8F08D03F099F9002099
:1059B000BDE8F08D2DE9F84F044688466068414205
:1059C0000840401E010B01F01001C840420902F0DE
:1059D0000802D040830803F00403D840450805F0CE
:1059E00002055118E8405918C0F3400629447118BF
:1059F000F040401804EB8000D0F830014168C9083D
:105A0000C9000646A1EB080A09E008464168C90832
:105A1000C900A1EB080151453CBF8A460646016911
:105A20000029F2D140690028F0D120698642C0F0F7
:105A3000C4807068C00808EB0A09C00008EB060BB8
:105A4000484518BF03F04CF95E4580F0B680F76812
:105A5000B569B7420CD0B0682169884223D3C168C8
:105A6000B14204BFB968B1421DD1C760B8601CE043
:105A700006F11400076837B906F110000768A7B1EE
:105A800001E00846076807F114010A68002A02BF0E
:105A900007F110010A68002AF3D12169884202D374
:105AA0000021016001E003F01BF9002D34D0F06902
:105AB00004EB800000F5987001688E4209D1076000
:105AC000380011D1F269606801219140884360601B
:105AD00022E02069854205D32869B04214BF6F6176
